{
  "_format": "hh-sol-artifact-1",
  "contractName": "TestNFT",
  "sourceName": "contracts/test/TestNFT.sol",
  "abi": [
    {
      "inputs": [],
      "stateMutability": "nonpayable",
      "type": "constructor"
    },
    {
      "anonymous": false,
      "inputs": [
        {
          "indexed": true,
          "internalType": "address",
          "name": "owner",
          "type": "address"
        },
        {
          "indexed": true,
          "internalType": "address",
          "name": "approved",
          "type": "address"
        },
        {
          "indexed": true,
          "internalType": "uint256",
          "name": "tokenId",
          "type": "uint256"
        }
      ],
      "name": "Approval",
      "type": "event"
    },
    {
      "anonymous": false,
      "inputs": [
        {
          "indexed": true,
          "internalType": "address",
          "name": "owner",
          "type": "address"
        },
        {
          "indexed": true,
          "internalType": "address",
          "name": "operator",
          "type": "address"
        },
        {
          "indexed": false,
          "internalType": "bool",
          "name": "approved",
          "type": "bool"
        }
      ],
      "name": "ApprovalForAll",
      "type": "event"
    },
    {
      "anonymous": false,
      "inputs": [
        {
          "indexed": true,
          "internalType": "address",
          "name": "from",
          "type": "address"
        },
        {
          "indexed": true,
          "internalType": "address",
          "name": "to",
          "type": "address"
        },
        {
          "indexed": true,
          "internalType": "uint256",
          "name": "tokenId",
          "type": "uint256"
        }
      ],
      "name": "Transfer",
      "type": "event"
    },
    {
      "inputs": [
        {
          "internalType": "address",
          "name": "to",
          "type": "address"
        },
        {
          "internalType": "uint256",
          "name": "tokenId",
          "type": "uint256"
        }
      ],
      "name": "approve",
      "outputs": [],
      "stateMutability": "nonpayable",
      "type": "function"
    },
    {
      "inputs": [
        {
          "internalType": "address",
          "name": "owner",
          "type": "address"
        }
      ],
      "name": "balanceOf",
      "outputs": [
        {
          "internalType": "uint256",
          "name": "",
          "type": "uint256"
        }
      ],
      "stateMutability": "view",
      "type": "function"
    },
    {
      "inputs": [
        {
          "internalType": "uint256",
          "name": "id",
          "type": "uint256"
        }
      ],
      "name": "faucet",
      "outputs": [],
      "stateMutability": "nonpayable",
      "type": "function"
    },
    {
      "inputs": [
        {
          "internalType": "uint256",
          "name": "tokenId",
          "type": "uint256"
        }
      ],
      "name": "getApproved",
      "outputs": [
        {
          "internalType": "address",
          "name": "",
          "type": "address"
        }
      ],
      "stateMutability": "view",
      "type": "function"
    },
    {
      "inputs": [
        {
          "internalType": "address",
          "name": "owner",
          "type": "address"
        },
        {
          "internalType": "address",
          "name": "operator",
          "type": "address"
        }
      ],
      "name": "isApprovedForAll",
      "outputs": [
        {
          "internalType": "bool",
          "name": "",
          "type": "bool"
        }
      ],
      "stateMutability": "view",
      "type": "function"
    },
    {
      "inputs": [],
      "name": "name",
      "outputs": [
        {
          "internalType": "string",
          "name": "",
          "type": "string"
        }
      ],
      "stateMutability": "view",
      "type": "function"
    },
    {
      "inputs": [
        {
          "internalType": "uint256",
          "name": "tokenId",
          "type": "uint256"
        }
      ],
      "name": "ownerOf",
      "outputs": [
        {
          "internalType": "address",
          "name": "",
          "type": "address"
        }
      ],
      "stateMutability": "view",
      "type": "function"
    },
    {
      "inputs": [
        {
          "internalType": "address",
          "name": "from",
          "type": "address"
        },
        {
          "internalType": "address",
          "name": "to",
          "type": "address"
        },
        {
          "internalType": "uint256",
          "name": "tokenId",
          "type": "uint256"
        }
      ],
      "name": "safeTransferFrom",
      "outputs": [],
      "stateMutability": "nonpayable",
      "type": "function"
    },
    {
      "inputs": [
        {
          "internalType": "address",
          "name": "from",
          "type": "address"
        },
        {
          "internalType": "address",
          "name": "to",
          "type": "address"
        },
        {
          "internalType": "uint256",
          "name": "tokenId",
          "type": "uint256"
        },
        {
          "internalType": "bytes",
          "name": "_data",
          "type": "bytes"
        }
      ],
      "name": "safeTransferFrom",
      "outputs": [],
      "stateMutability": "nonpayable",
      "type": "function"
    },
    {
      "inputs": [
        {
          "internalType": "address",
          "name": "operator",
          "type": "address"
        },
        {
          "internalType": "bool",
          "name": "approved",
          "type": "bool"
        }
      ],
      "name": "setApprovalForAll",
      "outputs": [],
      "stateMutability": "nonpayable",
      "type": "function"
    },
    {
      "inputs": [
        {
          "internalType": "bytes4",
          "name": "interfaceId",
          "type": "bytes4"
        }
      ],
      "name": "supportsInterface",
      "outputs": [
        {
          "internalType": "bool",
          "name": "",
          "type": "bool"
        }
      ],
      "stateMutability": "view",
      "type": "function"
    },
    {
      "inputs": [],
      "name": "symbol",
      "outputs": [
        {
          "internalType": "string",
          "name": "",
          "type": "string"
        }
      ],
      "stateMutability": "view",
      "type": "function"
    },
    {
      "inputs": [
        {
          "internalType": "uint256",
          "name": "tokenId",
          "type": "uint256"
        }
      ],
      "name": "tokenURI",
      "outputs": [
        {
          "internalType": "string",
          "name": "",
          "type": "string"
        }
      ],
      "stateMutability": "view",
      "type": "function"
    },
    {
      "inputs": [
        {
          "internalType": "address",
          "name": "from",
          "type": "address"
        },
        {
          "internalType": "address",
          "name": "to",
          "type": "address"
        },
        {
          "internalType": "uint256",
          "name": "tokenId",
          "type": "uint256"
        }
      ],
      "name": "transferFrom",
      "outputs": [],
      "stateMutability": "nonpayable",
      "type": "function"
    }
  ],
  "bytecode": "0x60806040523480156200001157600080fd5b50604080518082018252600781526615195cdd13919560ca1b6020808301918252835180850190945260038452621514d560ea1b9084015281519192916200005c916000916200007b565b508051620000729060019060208401906200007b565b5050506200015e565b828054620000899062000121565b90600052602060002090601f016020900481019282620000ad5760008555620000f8565b82601f10620000c857805160ff1916838001178555620000f8565b82800160010185558215620000f8579182015b82811115620000f8578251825591602001919060010190620000db565b50620001069291506200010a565b5090565b5b808211156200010657600081556001016200010b565b600181811c908216806200013657607f821691505b602082108114156200015857634e487b7160e01b600052602260045260246000fd5b50919050565b611417806200016e6000396000f3fe608060405234801561001057600080fd5b50600436106100ea5760003560e01c80636352211e1161008c578063a22cb46511610066578063a22cb465146101e1578063b88d4fde146101f4578063c87b56dd14610207578063e985e9c51461021a576100ea565b80636352211e146101a557806370a08231146101b857806395d89b41146101d9576100ea565b8063095ea7b3116100c8578063095ea7b31461015757806323b872dd1461016c57806342842e0e1461017f5780635791589714610192576100ea565b806301ffc9a7146100ef57806306fdde0314610117578063081812fc1461012c575b600080fd5b6101026100fd366004611112565b610256565b60405190151581526020015b60405180910390f35b61011f6102aa565b60405161010e91906111fa565b61013f61013a36600461114a565b61033c565b6040516001600160a01b03909116815260200161010e565b61016a6101653660046110e9565b6103d6565b005b61016a61017a366004610f9f565b6104ec565b61016a61018d366004610f9f565b61051d565b61016a6101a036600461114a565b610538565b61013f6101b336600461114a565b610545565b6101cb6101c6366004610f53565b6105bc565b60405190815260200161010e565b61011f610643565b61016a6101ef3660046110af565b610652565b61016a610202366004610fda565b610661565b61011f61021536600461114a565b610699565b610102610228366004610f6d565b6001600160a01b03918216600090815260056020908152604080832093909416825291909152205460ff1690565b60006001600160e01b031982166380ac58cd60e01b148061028757506001600160e01b03198216635b5e139f60e01b145b806102a257506301ffc9a760e01b6001600160e01b03198316145b90505b919050565b6060600080546102b99061131f565b80601f01602080910402602001604051908101604052809291908181526020018280546102e59061131f565b80156103325780601f1061030757610100808354040283529160200191610332565b820191906000526020600020905b81548152906001019060200180831161031557829003601f168201915b5050505050905090565b6000818152600260205260408120546001600160a01b03166103ba5760405162461bcd60e51b815260206004820152602c60248201527f4552433732313a20617070726f76656420717565727920666f72206e6f6e657860448201526b34b9ba32b73a103a37b5b2b760a11b60648201526084015b60405180910390fd5b506000908152600460205260409020546001600160a01b031690565b60006103e182610545565b9050806001600160a01b0316836001600160a01b0316141561044f5760405162461bcd60e51b815260206004820152602160248201527f4552433732313a20617070726f76616c20746f2063757272656e74206f776e656044820152603960f91b60648201526084016103b1565b336001600160a01b038216148061046b575061046b8133610228565b6104dd5760405162461bcd60e51b815260206004820152603860248201527f4552433732313a20617070726f76652063616c6c6572206973206e6f74206f7760448201527f6e6572206e6f7220617070726f76656420666f7220616c6c000000000000000060648201526084016103b1565b6104e78383610781565b505050565b6104f633826107ef565b6105125760405162461bcd60e51b81526004016103b19061125f565b6104e78383836108e6565b6104e783838360405180602001604052806000815250610661565b6105423382610a82565b50565b6000818152600260205260408120546001600160a01b0316806102a25760405162461bcd60e51b815260206004820152602960248201527f4552433732313a206f776e657220717565727920666f72206e6f6e657869737460448201526832b73a103a37b5b2b760b91b60648201526084016103b1565b60006001600160a01b0382166106275760405162461bcd60e51b815260206004820152602a60248201527f4552433732313a2062616c616e636520717565727920666f7220746865207a65604482015269726f206164647265737360b01b60648201526084016103b1565b506001600160a01b031660009081526003602052604090205490565b6060600180546102b99061131f565b61065d338383610a9c565b5050565b61066b33836107ef565b6106875760405162461bcd60e51b81526004016103b19061125f565b61069384848484610b6b565b50505050565b6000818152600260205260409020546060906001600160a01b03166107185760405162461bcd60e51b815260206004820152602f60248201527f4552433732314d657461646174613a2055524920717565727920666f72206e6f60448201526e3732bc34b9ba32b73a103a37b5b2b760891b60648201526084016103b1565b600061072f60408051602081019091526000815290565b9050600081511161074f576040518060200160405280600081525061077a565b8061075984610b9e565b60405160200161076a92919061118e565b6040516020818303038152906040525b9392505050565b600081815260046020526040902080546001600160a01b0319166001600160a01b03841690811790915581906107b682610545565b6001600160a01b03167f8c5be1e5ebec7d5bd14f71427d1e84f3dd0314c0f7b2291e5b200ac8c7c3b92560405160405180910390a45050565b6000818152600260205260408120546001600160a01b03166108685760405162461bcd60e51b815260206004820152602c60248201527f4552433732313a206f70657261746f7220717565727920666f72206e6f6e657860448201526b34b9ba32b73a103a37b5b2b760a11b60648201526084016103b1565b600061087383610545565b9050806001600160a01b0316846001600160a01b031614806108ba57506001600160a01b0380821660009081526005602090815260408083209388168352929052205460ff165b806108de5750836001600160a01b03166108d38461033c565b6001600160a01b0316145b949350505050565b826001600160a01b03166108f982610545565b6001600160a01b03161461095d5760405162461bcd60e51b815260206004820152602560248201527f4552433732313a207472616e736665722066726f6d20696e636f72726563742060448201526437bbb732b960d91b60648201526084016103b1565b6001600160a01b0382166109bf5760405162461bcd60e51b8152602060048201526024808201527f4552433732313a207472616e7366657220746f20746865207a65726f206164646044820152637265737360e01b60648201526084016103b1565b6109ca600082610781565b6001600160a01b03831660009081526003602052604081208054600192906109f39084906112dc565b90915550506001600160a01b0382166000908152600360205260408120805460019290610a219084906112b0565b909155505060008181526002602052604080822080546001600160a01b0319166001600160a01b0386811691821790925591518493918716917fddf252ad1be2c89b69c2b068fc378daa952ba7f163c4a11628f55a4df523b3ef91a46104e7565b61065d828260405180602001604052806000815250610cb9565b816001600160a01b0316836001600160a01b03161415610afe5760405162461bcd60e51b815260206004820152601960248201527f4552433732313a20617070726f766520746f2063616c6c65720000000000000060448201526064016103b1565b6001600160a01b03838116600081815260056020908152604080832094871680845294825291829020805460ff191686151590811790915591519182527f17307eab39ab6107e8899845ad3d59bd9653f200f220920489ca2b5937696c31910160405180910390a3505050565b610b768484846108e6565b610b8284848484610cec565b6106935760405162461bcd60e51b81526004016103b19061120d565b606081610bc357506040805180820190915260018152600360fc1b60208201526102a5565b8160005b8115610bed5780610bd78161135a565b9150610be69050600a836112c8565b9150610bc7565b60008167ffffffffffffffff811115610c1657634e487b7160e01b600052604160045260246000fd5b6040519080825280601f01601f191660200182016040528015610c40576020820181803683370190505b5090505b84156108de57610c556001836112dc565b9150610c62600a86611375565b610c6d9060306112b0565b60f81b818381518110610c9057634e487b7160e01b600052603260045260246000fd5b60200101906001600160f81b031916908160001a905350610cb2600a866112c8565b9450610c44565b610cc38383610df9565b610cd06000848484610cec565b6104e75760405162461bcd60e51b81526004016103b19061120d565b60006001600160a01b0384163b15610dee57604051630a85bd0160e11b81526001600160a01b0385169063150b7a0290610d309033908990889088906004016111bd565b602060405180830381600087803b158015610d4a57600080fd5b505af1925050508015610d7a575060408051601f3d908101601f19168201909252610d779181019061112e565b60015b610dd4573d808015610da8576040519150601f19603f3d011682016040523d82523d6000602084013e610dad565b606091505b508051610dcc5760405162461bcd60e51b81526004016103b19061120d565b805181602001fd5b6001600160e01b031916630a85bd0160e11b1490506108de565b506001949350505050565b6001600160a01b038216610e4f5760405162461bcd60e51b815260206004820181905260248201527f4552433732313a206d696e7420746f20746865207a65726f206164647265737360448201526064016103b1565b6000818152600260205260409020546001600160a01b031615610eb45760405162461bcd60e51b815260206004820152601c60248201527f4552433732313a20746f6b656e20616c7265616479206d696e7465640000000060448201526064016103b1565b6001600160a01b0382166000908152600360205260408120805460019290610edd9084906112b0565b909155505060008181526002602052604080822080546001600160a01b0319166001600160a01b03861690811790915590518392907fddf252ad1be2c89b69c2b068fc378daa952ba7f163c4a11628f55a4df523b3ef908290a461065d565b80356001600160a01b03811681146102a557600080fd5b600060208284031215610f64578081fd5b61077a82610f3c565b60008060408385031215610f7f578081fd5b610f8883610f3c565b9150610f9660208401610f3c565b90509250929050565b600080600060608486031215610fb3578081fd5b610fbc84610f3c565b9250610fca60208501610f3c565b9150604084013590509250925092565b60008060008060808587031215610fef578081fd5b610ff885610f3c565b935061100660208601610f3c565b925060408501359150606085013567ffffffffffffffff80821115611029578283fd5b818701915087601f83011261103c578283fd5b81358181111561104e5761104e6113b5565b604051601f8201601f19908116603f01168101908382118183101715611076576110766113b5565b816040528281528a602084870101111561108e578586fd5b82602086016020830137918201602001949094529598949750929550505050565b600080604083850312156110c1578182fd5b6110ca83610f3c565b9150602083013580151581146110de578182fd5b809150509250929050565b600080604083850312156110fb578182fd5b61110483610f3c565b946020939093013593505050565b600060208284031215611123578081fd5b813561077a816113cb565b60006020828403121561113f578081fd5b815161077a816113cb565b60006020828403121561115b578081fd5b5035919050565b6000815180845261117a8160208601602086016112f3565b601f01601f19169290920160200192915050565b600083516111a08184602088016112f3565b8351908301906111b48183602088016112f3565b01949350505050565b6001600160a01b03858116825284166020820152604081018390526080606082018190526000906111f090830184611162565b9695505050505050565b60006020825261077a6020830184611162565b60208082526032908201527f4552433732313a207472616e7366657220746f206e6f6e20455243373231526560408201527131b2b4bb32b91034b6b83632b6b2b73a32b960711b606082015260800190565b60208082526031908201527f4552433732313a207472616e736665722063616c6c6572206973206e6f74206f6040820152701ddb995c881b9bdc88185c1c1c9bdd9959607a1b606082015260800190565b600082198211156112c3576112c3611389565b500190565b6000826112d7576112d761139f565b500490565b6000828210156112ee576112ee611389565b500390565b60005b8381101561130e5781810151838201526020016112f6565b838111156106935750506000910152565b600181811c9082168061133357607f821691505b6020821081141561135457634e487b7160e01b600052602260045260246000fd5b50919050565b600060001982141561136e5761136e611389565b5060010190565b6000826113845761138461139f565b500690565b634e487b7160e01b600052601160045260246000fd5b634e487b7160e01b600052601260045260246000fd5b634e487b7160e01b600052604160045260246000fd5b6001600160e01b03198116811461054257600080fdfea2646970667358221220d50efe46080ba752615fc7e5649466ab3bcc8bb9b59293a590fb3f46817fae4c64736f6c63430008030033",
  "linkReferences": {},
  "deployedLinkReferences": {}
}