{
  "_format": "hh-sol-artifact-1",
  "contractName": "TestNFT",
  "sourceName": "contracts/TestNFT.sol",
  "abi": [
    {
      "inputs": [
        {
          "internalType": "string",
          "name": "uri",
          "type": "string"
        }
      ],
      "stateMutability": "nonpayable",
      "type": "constructor"
    },
    {
      "anonymous": false,
      "inputs": [
        {
          "indexed": true,
          "internalType": "address",
          "name": "account",
          "type": "address"
        },
        {
          "indexed": true,
          "internalType": "address",
          "name": "operator",
          "type": "address"
        },
        {
          "indexed": false,
          "internalType": "bool",
          "name": "approved",
          "type": "bool"
        }
      ],
      "name": "ApprovalForAll",
      "type": "event"
    },
    {
      "anonymous": false,
      "inputs": [
        {
          "indexed": true,
          "internalType": "address",
          "name": "operator",
          "type": "address"
        },
        {
          "indexed": true,
          "internalType": "address",
          "name": "from",
          "type": "address"
        },
        {
          "indexed": true,
          "internalType": "address",
          "name": "to",
          "type": "address"
        },
        {
          "indexed": false,
          "internalType": "uint256[]",
          "name": "ids",
          "type": "uint256[]"
        },
        {
          "indexed": false,
          "internalType": "uint256[]",
          "name": "values",
          "type": "uint256[]"
        }
      ],
      "name": "TransferBatch",
      "type": "event"
    },
    {
      "anonymous": false,
      "inputs": [
        {
          "indexed": true,
          "internalType": "address",
          "name": "operator",
          "type": "address"
        },
        {
          "indexed": true,
          "internalType": "address",
          "name": "from",
          "type": "address"
        },
        {
          "indexed": true,
          "internalType": "address",
          "name": "to",
          "type": "address"
        },
        {
          "indexed": false,
          "internalType": "uint256",
          "name": "id",
          "type": "uint256"
        },
        {
          "indexed": false,
          "internalType": "uint256",
          "name": "value",
          "type": "uint256"
        }
      ],
      "name": "TransferSingle",
      "type": "event"
    },
    {
      "anonymous": false,
      "inputs": [
        {
          "indexed": false,
          "internalType": "string",
          "name": "value",
          "type": "string"
        },
        {
          "indexed": true,
          "internalType": "uint256",
          "name": "id",
          "type": "uint256"
        }
      ],
      "name": "URI",
      "type": "event"
    },
    {
      "inputs": [
        {
          "internalType": "address",
          "name": "account",
          "type": "address"
        },
        {
          "internalType": "uint256",
          "name": "id",
          "type": "uint256"
        }
      ],
      "name": "balanceOf",
      "outputs": [
        {
          "internalType": "uint256",
          "name": "",
          "type": "uint256"
        }
      ],
      "stateMutability": "view",
      "type": "function"
    },
    {
      "inputs": [
        {
          "internalType": "address[]",
          "name": "accounts",
          "type": "address[]"
        },
        {
          "internalType": "uint256[]",
          "name": "ids",
          "type": "uint256[]"
        }
      ],
      "name": "balanceOfBatch",
      "outputs": [
        {
          "internalType": "uint256[]",
          "name": "",
          "type": "uint256[]"
        }
      ],
      "stateMutability": "view",
      "type": "function"
    },
    {
      "inputs": [
        {
          "internalType": "uint256",
          "name": "id",
          "type": "uint256"
        },
        {
          "internalType": "uint256",
          "name": "amount",
          "type": "uint256"
        }
      ],
      "name": "faucet",
      "outputs": [],
      "stateMutability": "nonpayable",
      "type": "function"
    },
    {
      "inputs": [
        {
          "internalType": "address",
          "name": "account",
          "type": "address"
        },
        {
          "internalType": "address",
          "name": "operator",
          "type": "address"
        }
      ],
      "name": "isApprovedForAll",
      "outputs": [
        {
          "internalType": "bool",
          "name": "",
          "type": "bool"
        }
      ],
      "stateMutability": "view",
      "type": "function"
    },
    {
      "inputs": [
        {
          "internalType": "address",
          "name": "from",
          "type": "address"
        },
        {
          "internalType": "address",
          "name": "to",
          "type": "address"
        },
        {
          "internalType": "uint256[]",
          "name": "ids",
          "type": "uint256[]"
        },
        {
          "internalType": "uint256[]",
          "name": "amounts",
          "type": "uint256[]"
        },
        {
          "internalType": "bytes",
          "name": "data",
          "type": "bytes"
        }
      ],
      "name": "safeBatchTransferFrom",
      "outputs": [],
      "stateMutability": "nonpayable",
      "type": "function"
    },
    {
      "inputs": [
        {
          "internalType": "address",
          "name": "from",
          "type": "address"
        },
        {
          "internalType": "address",
          "name": "to",
          "type": "address"
        },
        {
          "internalType": "uint256",
          "name": "id",
          "type": "uint256"
        },
        {
          "internalType": "uint256",
          "name": "amount",
          "type": "uint256"
        },
        {
          "internalType": "bytes",
          "name": "data",
          "type": "bytes"
        }
      ],
      "name": "safeTransferFrom",
      "outputs": [],
      "stateMutability": "nonpayable",
      "type": "function"
    },
    {
      "inputs": [
        {
          "internalType": "address",
          "name": "operator",
          "type": "address"
        },
        {
          "internalType": "bool",
          "name": "approved",
          "type": "bool"
        }
      ],
      "name": "setApprovalForAll",
      "outputs": [],
      "stateMutability": "nonpayable",
      "type": "function"
    },
    {
      "inputs": [
        {
          "internalType": "bytes4",
          "name": "interfaceId",
          "type": "bytes4"
        }
      ],
      "name": "supportsInterface",
      "outputs": [
        {
          "internalType": "bool",
          "name": "",
          "type": "bool"
        }
      ],
      "stateMutability": "view",
      "type": "function"
    },
    {
      "inputs": [
        {
          "internalType": "uint256",
          "name": "",
          "type": "uint256"
        }
      ],
      "name": "uri",
      "outputs": [
        {
          "internalType": "string",
          "name": "",
          "type": "string"
        }
      ],
      "stateMutability": "view",
      "type": "function"
    }
  ],
  "bytecode": "0x60806040523480156200001157600080fd5b506040516200181b3803806200181b833981016040819052620000349162000107565b80620000408162000048565b505062000230565b80516200005d90600290602084019062000061565b5050565b8280546200006f90620001dd565b90600052602060002090601f016020900481019282620000935760008555620000de565b82601f10620000ae57805160ff1916838001178555620000de565b82800160010185558215620000de579182015b82811115620000de578251825591602001919060010190620000c1565b50620000ec929150620000f0565b5090565b5b80821115620000ec5760008155600101620000f1565b600060208083850312156200011a578182fd5b82516001600160401b038082111562000131578384fd5b818501915085601f83011262000145578384fd5b8151818111156200015a576200015a6200021a565b604051601f8201601f19908116603f011681019083821181831017156200018557620001856200021a565b8160405282815288868487010111156200019d578687fd5b8693505b82841015620001c05784840186015181850187015292850192620001a1565b82841115620001d157868684830101525b98975050505050505050565b600181811c90821680620001f257607f821691505b602082108114156200021457634e487b7160e01b600052602260045260246000fd5b50919050565b634e487b7160e01b600052604160045260246000fd5b6115db80620002406000396000f3fe608060405234801561001057600080fd5b50600436106100925760003560e01c80634e1273f4116100665780634e1273f414610115578063a22cb46514610135578063e985e9c514610148578063f242432a14610184578063f98137981461019757610092565b8062fdd58e1461009757806301ffc9a7146100bd5780630e89341c146100e05780632eb2c2d614610100575b600080fd5b6100aa6100a5366004611039565b6101aa565b6040519081526020015b60405180910390f35b6100d06100cb36600461112d565b610241565b60405190151581526020016100b4565b6100f36100ee36600461116c565b610295565b6040516100b4919061130e565b61011361010e366004610ef6565b610329565b005b610128610123366004611062565b6103d2565b6040516100b491906112cd565b610113610143366004610fff565b610534565b6100d0610156366004610ec4565b6001600160a01b03918216600090815260016020908152604080832093909416825291909152205460ff1690565b610113610192366004610f9c565b61054a565b6101136101a5366004611184565b6105e3565b60006001600160a01b03831661021b5760405162461bcd60e51b815260206004820152602b60248201527f455243313135353a2062616c616e636520717565727920666f7220746865207a60448201526a65726f206164647265737360a81b60648201526084015b60405180910390fd5b506000908152602081815260408083206001600160a01b03949094168352929052205490565b60006001600160e01b03198216636cdb3d1360e11b148061027257506001600160e01b031982166303a24d0760e21b145b8061028d57506301ffc9a760e01b6001600160e01b03198316145b90505b919050565b6060600280546102a490611434565b80601f01602080910402602001604051908101604052809291908181526020018280546102d090611434565b801561031d5780601f106102f25761010080835404028352916020019161031d565b820191906000526020600020905b81548152906001019060200180831161030057829003601f168201915b50505050509050919050565b6103316105fe565b6001600160a01b0316856001600160a01b031614806103575750610357856101566105fe565b6103be5760405162461bcd60e51b815260206004820152603260248201527f455243313135353a207472616e736665722063616c6c6572206973206e6f74206044820152711bdddb995c881b9bdc88185c1c1c9bdd995960721b6064820152608401610212565b6103cb8585858585610603565b5050505050565b606081518351146104375760405162461bcd60e51b815260206004820152602960248201527f455243313135353a206163636f756e747320616e6420696473206c656e677468604482015268040dad2e6dac2e8c6d60bb1b6064820152608401610212565b6000835167ffffffffffffffff81111561046157634e487b7160e01b600052604160045260246000fd5b60405190808252806020026020018201604052801561048a578160200160208202803683370190505b50905060005b845181101561052c576104f18582815181106104bc57634e487b7160e01b600052603260045260246000fd5b60200260200101518583815181106104e457634e487b7160e01b600052603260045260246000fd5b60200260200101516101aa565b82828151811061051157634e487b7160e01b600052603260045260246000fd5b60209081029190910101526105258161149c565b9050610490565b509392505050565b61054661053f6105fe565b8383610807565b5050565b6105526105fe565b6001600160a01b0316856001600160a01b031614806105785750610578856101566105fe565b6105d65760405162461bcd60e51b815260206004820152602960248201527f455243313135353a2063616c6c6572206973206e6f74206f776e6572206e6f7260448201526808185c1c1c9bdd995960ba1b6064820152608401610212565b6103cb85858585856108e8565b61054633838360405180602001604052806000815250610a1d565b335b90565b81518351146106655760405162461bcd60e51b815260206004820152602860248201527f455243313135353a2069647320616e6420616d6f756e7473206c656e677468206044820152670dad2e6dac2e8c6d60c31b6064820152608401610212565b6001600160a01b03841661068b5760405162461bcd60e51b815260040161021290611369565b60006106956105fe565b905060005b84518110156107995760008582815181106106c557634e487b7160e01b600052603260045260246000fd5b6020026020010151905060008583815181106106f157634e487b7160e01b600052603260045260246000fd5b602090810291909101810151600084815280835260408082206001600160a01b038e1683529093529190912054909150818110156107415760405162461bcd60e51b8152600401610212906113ae565b6000838152602081815260408083206001600160a01b038e8116855292528083208585039055908b1682528120805484929061077e90849061141c565b92505081905550505050806107929061149c565b905061069a565b50846001600160a01b0316866001600160a01b0316826001600160a01b03167f4a39dc06d4c0dbc64b70af90fd698a233a518aa5d07e595d983b8c0526c8f7fb87876040516107e99291906112e0565b60405180910390a46107ff818787878787610b3c565b505050505050565b816001600160a01b0316836001600160a01b0316141561087b5760405162461bcd60e51b815260206004820152602960248201527f455243313135353a2073657474696e6720617070726f76616c20737461747573604482015268103337b91039b2b63360b91b6064820152608401610212565b6001600160a01b03838116600081815260016020908152604080832094871680845294825291829020805460ff191686151590811790915591519182527f17307eab39ab6107e8899845ad3d59bd9653f200f220920489ca2b5937696c31910160405180910390a3505050565b6001600160a01b03841661090e5760405162461bcd60e51b815260040161021290611369565b60006109186105fe565b9050600061092585610ca7565b9050600061093285610ca7565b90506000868152602081815260408083206001600160a01b038c168452909152902054858110156109755760405162461bcd60e51b8152600401610212906113ae565b6000878152602081815260408083206001600160a01b038d8116855292528083208985039055908a168252812080548892906109b290849061141c565b909155505060408051888152602081018890526001600160a01b03808b16928c821692918816917fc3d58168c5ae7397731d063d5bbf3d657854427343f4c083240f7aacaa2d0f62910160405180910390a4610a12848a8a8a8a8a610d00565b505050505050505050565b6001600160a01b038416610a7d5760405162461bcd60e51b815260206004820152602160248201527f455243313135353a206d696e7420746f20746865207a65726f206164647265736044820152607360f81b6064820152608401610212565b6000610a876105fe565b90506000610a9485610ca7565b90506000610aa185610ca7565b90506000868152602081815260408083206001600160a01b038b16845290915281208054879290610ad390849061141c565b909155505060408051878152602081018790526001600160a01b03808a1692600092918716917fc3d58168c5ae7397731d063d5bbf3d657854427343f4c083240f7aacaa2d0f62910160405180910390a4610b3383600089898989610d00565b50505050505050565b6001600160a01b0384163b156107ff5760405163bc197c8160e01b81526001600160a01b0385169063bc197c8190610b80908990899088908890889060040161122a565b602060405180830381600087803b158015610b9a57600080fd5b505af1925050508015610bca575060408051601f3d908101601f19168201909252610bc791810190611150565b60015b610c7757610bd66114e3565b806308c379a01415610c105750610beb6114fa565b80610bf65750610c12565b8060405162461bcd60e51b8152600401610212919061130e565b505b60405162461bcd60e51b815260206004820152603460248201527f455243313135353a207472616e7366657220746f206e6f6e20455243313135356044820152732932b1b2b4bb32b91034b6b83632b6b2b73a32b960611b6064820152608401610212565b6001600160e01b0319811663bc197c8160e01b14610b335760405162461bcd60e51b815260040161021290611321565b60408051600180825281830190925260609160009190602080830190803683370190505090508281600081518110610cef57634e487b7160e01b600052603260045260246000fd5b602090810291909101015292915050565b6001600160a01b0384163b156107ff5760405163f23a6e6160e01b81526001600160a01b0385169063f23a6e6190610d449089908990889088908890600401611288565b602060405180830381600087803b158015610d5e57600080fd5b505af1925050508015610d8e575060408051601f3d908101601f19168201909252610d8b91810190611150565b60015b610d9a57610bd66114e3565b6001600160e01b0319811663f23a6e6160e01b14610b335760405162461bcd60e51b815260040161021290611321565b80356001600160a01b038116811461029057600080fd5b600082601f830112610df1578081fd5b81356020610dfe826113f8565b604051610e0b828261146f565b8381528281019150858301600585901b87018401881015610e2a578586fd5b855b85811015610e4857813584529284019290840190600101610e2c565b5090979650505050505050565b600082601f830112610e65578081fd5b813567ffffffffffffffff811115610e7f57610e7f6114cd565b604051610e96601f8301601f19166020018261146f565b818152846020838601011115610eaa578283fd5b816020850160208301379081016020019190915292915050565b60008060408385031215610ed6578182fd5b610edf83610dca565b9150610eed60208401610dca565b90509250929050565b600080600080600060a08688031215610f0d578081fd5b610f1686610dca565b9450610f2460208701610dca565b9350604086013567ffffffffffffffff80821115610f40578283fd5b610f4c89838a01610de1565b94506060880135915080821115610f61578283fd5b610f6d89838a01610de1565b93506080880135915080821115610f82578283fd5b50610f8f88828901610e55565b9150509295509295909350565b600080600080600060a08688031215610fb3578081fd5b610fbc86610dca565b9450610fca60208701610dca565b93506040860135925060608601359150608086013567ffffffffffffffff811115610ff3578182fd5b610f8f88828901610e55565b60008060408385031215611011578182fd5b61101a83610dca565b91506020830135801515811461102e578182fd5b809150509250929050565b6000806040838503121561104b578182fd5b61105483610dca565b946020939093013593505050565b60008060408385031215611074578182fd5b823567ffffffffffffffff8082111561108b578384fd5b818501915085601f83011261109e578384fd5b813560206110ab826113f8565b6040516110b8828261146f565b8381528281019150858301600585901b870184018b10156110d7578889fd5b8896505b84871015611100576110ec81610dca565b8352600196909601959183019183016110db565b5096505086013592505080821115611116578283fd5b5061112385828601610de1565b9150509250929050565b60006020828403121561113e578081fd5b81356111498161158c565b9392505050565b600060208284031215611161578081fd5b81516111498161158c565b60006020828403121561117d578081fd5b5035919050565b60008060408385031215611196578182fd5b50508035926020909101359150565b6000815180845260208085019450808401835b838110156111d4578151875295820195908201906001016111b8565b509495945050505050565b60008151808452815b81811015611204576020818501810151868301820152016111e8565b818111156112155782602083870101525b50601f01601f19169290920160200192915050565b6001600160a01b0386811682528516602082015260a060408201819052600090611256908301866111a5565b828103606084015261126881866111a5565b9050828103608084015261127c81856111df565b98975050505050505050565b6001600160a01b03868116825285166020820152604081018490526060810183905260a0608082018190526000906112c2908301846111df565b979650505050505050565b60006020825261114960208301846111a5565b6000604082526112f360408301856111a5565b828103602084015261130581856111a5565b95945050505050565b60006020825261114960208301846111df565b60208082526028908201527f455243313135353a204552433131353552656365697665722072656a656374656040820152676420746f6b656e7360c01b606082015260800190565b60208082526025908201527f455243313135353a207472616e7366657220746f20746865207a65726f206164604082015264647265737360d81b606082015260800190565b6020808252602a908201527f455243313135353a20696e73756666696369656e742062616c616e636520666f60408201526939103a3930b739b332b960b11b606082015260800190565b600067ffffffffffffffff821115611412576114126114cd565b5060051b60200190565b6000821982111561142f5761142f6114b7565b500190565b600181811c9082168061144857607f821691505b6020821081141561146957634e487b7160e01b600052602260045260246000fd5b50919050565b601f8201601f1916810167ffffffffffffffff81118282101715611495576114956114cd565b6040525050565b60006000198214156114b0576114b06114b7565b5060010190565b634e487b7160e01b600052601160045260246000fd5b634e487b7160e01b600052604160045260246000fd5b600060033d111561060057600481823e5160e01c90565b600060443d101561150a57610600565b6040516003193d81016004833e81513d67ffffffffffffffff816024840111818411171561153c575050505050610600565b828501915081518181111561155657505050505050610600565b843d870101602082850101111561157257505050505050610600565b6115816020828601018761146f565b509094505050505090565b6001600160e01b0319811681146115a257600080fd5b5056fea2646970667358221220d6f7c20b46aa252a8038dfaba6026a4b4827123ff07ddb8f638d249ea822405364736f6c63430008030033",
  "linkReferences": {},
  "deployedLinkReferences": {}
}