{
  "_format": "hh-sol-artifact-1",
  "contractName": "Marketplace",
  "sourceName": "contracts/Marketplace.sol",
  "abi": [
    {
      "inputs": [
        {
          "internalType": "contract IERC721",
          "name": "nft_",
          "type": "address"
        },
        {
          "internalType": "uint256",
          "name": "feePercent_",
          "type": "uint256"
        }
      ],
      "stateMutability": "nonpayable",
      "type": "constructor"
    },
    {
      "anonymous": false,
      "inputs": [
        {
          "indexed": false,
          "internalType": "uint256",
          "name": "listingId",
          "type": "uint256"
        },
        {
          "indexed": false,
          "internalType": "enum Marketplace.ListingState",
          "name": "state",
          "type": "uint8"
        }
      ],
      "name": "ListingChange",
      "type": "event"
    },
    {
      "anonymous": false,
      "inputs": [
        {
          "indexed": false,
          "internalType": "uint256",
          "name": "listingId",
          "type": "uint256"
        },
        {
          "indexed": false,
          "internalType": "uint256",
          "name": "tokenId",
          "type": "uint256"
        },
        {
          "indexed": false,
          "internalType": "address",
          "name": "seller",
          "type": "address"
        },
        {
          "indexed": false,
          "internalType": "uint256",
          "name": "price",
          "type": "uint256"
        },
        {
          "indexed": false,
          "internalType": "enum Marketplace.ListingState",
          "name": "state",
          "type": "uint8"
        }
      ],
      "name": "NewListing",
      "type": "event"
    },
    {
      "anonymous": false,
      "inputs": [
        {
          "indexed": true,
          "internalType": "address",
          "name": "previousOwner",
          "type": "address"
        },
        {
          "indexed": true,
          "internalType": "address",
          "name": "newOwner",
          "type": "address"
        }
      ],
      "name": "OwnershipTransferred",
      "type": "event"
    },
    {
      "inputs": [
        {
          "internalType": "uint256",
          "name": "listingId",
          "type": "uint256"
        }
      ],
      "name": "buy",
      "outputs": [],
      "stateMutability": "payable",
      "type": "function"
    },
    {
      "inputs": [
        {
          "internalType": "uint256",
          "name": "listingId",
          "type": "uint256"
        }
      ],
      "name": "cancel",
      "outputs": [],
      "stateMutability": "nonpayable",
      "type": "function"
    },
    {
      "inputs": [
        {
          "internalType": "uint256",
          "name": "listingId",
          "type": "uint256"
        },
        {
          "internalType": "uint256",
          "name": "gasLimit",
          "type": "uint256"
        }
      ],
      "name": "collect",
      "outputs": [],
      "stateMutability": "nonpayable",
      "type": "function"
    },
    {
      "inputs": [
        {
          "internalType": "uint256",
          "name": "gasLimit",
          "type": "uint256"
        }
      ],
      "name": "collectFees",
      "outputs": [],
      "stateMutability": "nonpayable",
      "type": "function"
    },
    {
      "inputs": [],
      "name": "collectableFees",
      "outputs": [
        {
          "internalType": "uint256",
          "name": "",
          "type": "uint256"
        }
      ],
      "stateMutability": "view",
      "type": "function"
    },
    {
      "inputs": [],
      "name": "feePercent",
      "outputs": [
        {
          "internalType": "uint256",
          "name": "",
          "type": "uint256"
        }
      ],
      "stateMutability": "view",
      "type": "function"
    },
    {
      "inputs": [
        {
          "internalType": "uint256",
          "name": "start",
          "type": "uint256"
        },
        {
          "internalType": "uint256",
          "name": "length",
          "type": "uint256"
        }
      ],
      "name": "getListings",
      "outputs": [
        {
          "components": [
            {
              "internalType": "uint256",
              "name": "tokenId",
              "type": "uint256"
            },
            {
              "internalType": "address payable",
              "name": "seller",
              "type": "address"
            },
            {
              "internalType": "uint256",
              "name": "price",
              "type": "uint256"
            },
            {
              "internalType": "enum Marketplace.ListingState",
              "name": "state",
              "type": "uint8"
            }
          ],
          "internalType": "struct Marketplace.Listing[]",
          "name": "list",
          "type": "tuple[]"
        }
      ],
      "stateMutability": "view",
      "type": "function"
    },
    {
      "inputs": [],
      "name": "nft",
      "outputs": [
        {
          "internalType": "contract IERC721",
          "name": "",
          "type": "address"
        }
      ],
      "stateMutability": "view",
      "type": "function"
    },
    {
      "inputs": [],
      "name": "owner",
      "outputs": [
        {
          "internalType": "address",
          "name": "",
          "type": "address"
        }
      ],
      "stateMutability": "view",
      "type": "function"
    },
    {
      "inputs": [
        {
          "internalType": "uint256",
          "name": "listingId",
          "type": "uint256"
        }
      ],
      "name": "pause",
      "outputs": [],
      "stateMutability": "nonpayable",
      "type": "function"
    },
    {
      "inputs": [
        {
          "internalType": "uint256",
          "name": "tokenId",
          "type": "uint256"
        },
        {
          "internalType": "uint256",
          "name": "price",
          "type": "uint256"
        },
        {
          "internalType": "bool",
          "name": "ready",
          "type": "bool"
        }
      ],
      "name": "post",
      "outputs": [],
      "stateMutability": "nonpayable",
      "type": "function"
    },
    {
      "inputs": [],
      "name": "renounceOwnership",
      "outputs": [],
      "stateMutability": "nonpayable",
      "type": "function"
    },
    {
      "inputs": [
        {
          "internalType": "address",
          "name": "newOwner",
          "type": "address"
        }
      ],
      "name": "transferOwnership",
      "outputs": [],
      "stateMutability": "nonpayable",
      "type": "function"
    },
    {
      "inputs": [
        {
          "internalType": "uint256",
          "name": "listingId",
          "type": "uint256"
        }
      ],
      "name": "unPause",
      "outputs": [],
      "stateMutability": "nonpayable",
      "type": "function"
    }
  ],
  "bytecode": "0x608060405234801561001057600080fd5b506040516115f93803806115f983398101604081905261002f916101ca565b6100383361017a565b6001808055600280546001600160a01b038581166001600160a01b0319928316179092556003849055604080516080810182526000808252602082018181529282018181526060830182815260058054808a01825593819052845160049094027f036b6384b5eca791c62761152d0c79bb0604c104a5fb6f4eb0703f3154bb3db0810194855595517f036b6384b5eca791c62761152d0c79bb0604c104a5fb6f4eb0703f3154bb3db18701805491909916971696909617909655517f036b6384b5eca791c62761152d0c79bb0604c104a5fb6f4eb0703f3154bb3db284015593517f036b6384b5eca791c62761152d0c79bb0604c104a5fb6f4eb0703f3154bb3db3909201805491959293909260ff199092169190849081111561016c57634e487b7160e01b600052602160045260246000fd5b021790555050505050610202565b600080546001600160a01b038381166001600160a01b0319831681178455604051919092169283917f8be0079c531659141344cd1fd0a4f28419497f9722a3daafe3b4186f6b6457e09190a35050565b600080604083850312156101dc578182fd5b82516001600160a01b03811681146101f2578283fd5b6020939093015192949293505050565b6113e8806102116000396000f3fe6080604052600436106100dd5760003560e01c8063939356c51161007f578063cfa6f82711610059578063cfa6f8271461023b578063d96a094a1461025b578063f2fde38b1461026e578063f89f622e1461028e57600080fd5b8063939356c5146101ce578063b17acdcd146101ee578063c4b045181461020e57600080fd5b80635e9ceb5e116100bb5780635e9ceb5e14610161578063715018a6146101855780637fd6f15c1461019a5780638da5cb5b146101b057600080fd5b8063136439dd146100e257806340e58ee51461010457806347ccca0214610124575b600080fd5b3480156100ee57600080fd5b506101026100fd366004611138565b6102ae565b005b34801561011057600080fd5b5061010261011f366004611138565b6103e0565b34801561013057600080fd5b50600254610144906001600160a01b031681565b6040516001600160a01b0390911681526020015b60405180910390f35b34801561016d57600080fd5b5061017760045481565b604051908152602001610158565b34801561019157600080fd5b50610102610500565b3480156101a657600080fd5b5061017760035481565b3480156101bc57600080fd5b506000546001600160a01b0316610144565b3480156101da57600080fd5b506101026101e9366004611171565b610536565b3480156101fa57600080fd5b50610102610209366004611138565b6107f6565b34801561021a57600080fd5b5061022e610229366004611150565b6108db565b60405161015891906111cb565b34801561024757600080fd5b50610102610256366004611150565b610b00565b610102610269366004611138565b610cb9565b34801561027a57600080fd5b506101026102893660046110dd565b610f0e565b34801561029a57600080fd5b506101026102a9366004611138565b610fa9565b6000600582815481106102d157634e487b7160e01b600052603260045260246000fd5b600091825260209091206001600490920201908101549091506001600160a01b0316331461031a5760405162461bcd60e51b815260040161031190611244565b60405180910390fd5b6002600382015460ff16600581111561034357634e487b7160e01b600052602160045260246000fd5b146103855760405162461bcd60e51b81526020600482015260126024820152716c697374696e67206e6f742041637469766560701b6044820152606401610311565b6003810180546001919060ff191682805b021790555060038101546040517fc6218af1a3439313d3ed40484cf1733dedfcb2c5d777a26920f5186dc263aae1916103d491859160ff16906112a1565b60405180910390a15050565b60006005828154811061040357634e487b7160e01b600052603260045260246000fd5b600091825260209091206001600490920201908101549091506001600160a01b031633146104435760405162461bcd60e51b815260040161031190611244565b6002600382015460ff16600581111561046c57634e487b7160e01b600052602160045260246000fd5b148061049e57506001600382015460ff16600581111561049c57634e487b7160e01b600052602160045260246000fd5b145b6104ea5760405162461bcd60e51b815260206004820152601c60248201527f6c697374696e67206e6f7420416374697665206f7220506175736564000000006044820152606401610311565b6003810180546005919060ff1916600183610396565b6000546001600160a01b0316331461052a5760405162461bcd60e51b81526004016103119061126c565b610534600061108d565b565b60025460405163e985e9c560e01b81523360048201523060248201526001600160a01b039091169063e985e9c59060440160206040518083038186803b15801561057f57600080fd5b505afa158015610593573d6000803e3d6000fd5b505050506040513d601f19601f820116820180604052508101906105b7919061111c565b6105fa5760405162461bcd60e51b8152602060048201526014602482015273185c1c1c9bdd99481391950818dbdb9d1c9858dd60621b6044820152606401610311565b6002546040516331a9108f60e11b81526004810185905233916001600160a01b031690636352211e9060240160206040518083038186803b15801561063e57600080fd5b505afa158015610652573d6000803e3d6000fd5b505050506040513d601f19601f820116820180604052508101906106769190611100565b6001600160a01b0316146106cc5760405162461bcd60e51b815260206004820152601760248201527f6f6e6c79204e4654206f776e6572206d617920706f73740000000000000000006044820152606401610311565b600181156106d8575060025b60056040518060800160405280868152602001336001600160a01b0316815260200185815260200183600581111561072057634e487b7160e01b600052602160045260246000fd5b9052815460018082018455600093845260209384902083516004909302019182559282015181840180546001600160a01b0319166001600160a01b03909216919091179055604082015160028201556060820151600382018054939492939192909160ff1916908360058111156107a757634e487b7160e01b600052602160045260246000fd5b0217905550506005546040517facd61a98fd20ecfae14e3f0d513d1e1e6c6bf0ac58c6a855c56d1723c5a3d7e892506107e8919087903390889087906112b5565b60405180910390a150505050565b6000546001600160a01b031633146108205760405162461bcd60e51b81526004016103119061126c565b600480546000918290559061083d6000546001600160a01b031690565b6001600160a01b0316828490604051600060405180830381858888f193505050503d806000811461088a576040519150601f19603f3d011682016040523d82523d6000602084013e61088f565b606091505b50509050806108d65760405162461bcd60e51b81526020600482015260136024820152726661696c656420746f2073656e64206665657360681b6044820152606401610311565b505050565b6005546060908310610940576040805160008082526020820190925290610938565b6109256040805160808101825260008082526020820181905291810182905290606082015290565b8152602001906001900390816108fd5790505b509050610afa565b60055461094d83856112f0565b111561097157600554600190610964908590611347565b61096e9190611347565b91505b8167ffffffffffffffff81111561099857634e487b7160e01b600052604160045260246000fd5b6040519080825280602002602001820160405280156109f157816020015b6109de6040805160808101825260008082526020820181905291810182905290606082015290565b8152602001906001900390816109b65790505b50905060005b82811015610af8576005610a0b82866112f0565b81548110610a2957634e487b7160e01b600052603260045260246000fd5b60009182526020918290206040805160808101825260049093029091018054835260018101546001600160a01b0316938301939093526002830154908201526003820154909190606083019060ff166005811115610a9757634e487b7160e01b600052602160045260246000fd5b6005811115610ab657634e487b7160e01b600052602160045260246000fd5b81525050828281518110610ada57634e487b7160e01b600052603260045260246000fd5b60200260200101819052508080610af09061135e565b9150506109f7565b505b92915050565b600060058381548110610b2357634e487b7160e01b600052603260045260246000fd5b600091825260209091206001600490920201908101549091506001600160a01b03163314610b635760405162461bcd60e51b815260040161031190611244565b60038082015460ff166005811115610b8b57634e487b7160e01b600052602160045260246000fd5b14610bcb5760405162461bcd60e51b815260206004820152601060248201526f1b1a5cdd1a5b99c81b9bdd0814dbdb1960821b6044820152606401610311565b6003818101805460ff1916600417905554600090606490610bec9082611347565b8360020154610bfb9190611328565b610c059190611308565b60018301546040519192506000916001600160a01b03909116908590849084818181858888f193505050503d8060008114610c5c576040519150601f19603f3d011682016040523d82523d6000602084013e610c61565b606091505b5050905080610cb25760405162461bcd60e51b815260206004820152601f60248201527f6661696c656420746f20636f6c6c656374206c697374696e672073616c6573006044820152606401610311565b5050505050565b60026001541415610d0c5760405162461bcd60e51b815260206004820152601f60248201527f5265656e7472616e637947756172643a207265656e7472616e742063616c6c006044820152606401610311565b6002600181905550600060058281548110610d3757634e487b7160e01b600052603260045260246000fd5b6000918252602090912060049091020190506002600382015460ff166005811115610d7257634e487b7160e01b600052602160045260246000fd5b14610db45760405162461bcd60e51b81526020600482015260126024820152716c697374696e67206e6f742061637469766560701b6044820152606401610311565b80600201543414610dfe5760405162461bcd60e51b81526020600482015260146024820152731ddc9bdb99c81c185e5b595b9d08185b5bdd5b9d60621b6044820152606401610311565b6003818101805460ff1916909117905560025460018201548254604051635c46a7ef60e11b81526001600160a01b0392831660048201523360248201526044810191909152608060648201526000608482015291169063b88d4fde9060a401600060405180830381600087803b158015610e7757600080fd5b505af1158015610e8b573d6000803e3d6000fd5b505050506000606460035434610ea19190611328565b610eab9190611308565b90508060046000828254610ebf91906112f0565b909155505060038201546040517fc6218af1a3439313d3ed40484cf1733dedfcb2c5d777a26920f5186dc263aae191610efd91869160ff16906112a1565b60405180910390a150506001805550565b6000546001600160a01b03163314610f385760405162461bcd60e51b81526004016103119061126c565b6001600160a01b038116610f9d5760405162461bcd60e51b815260206004820152602660248201527f4f776e61626c653a206e6577206f776e657220697320746865207a65726f206160448201526564647265737360d01b6064820152608401610311565b610fa68161108d565b50565b600060058281548110610fcc57634e487b7160e01b600052603260045260246000fd5b600091825260209091206001600490920201908101549091506001600160a01b0316331461100c5760405162461bcd60e51b815260040161031190611244565b6001600382015460ff16600581111561103557634e487b7160e01b600052602160045260246000fd5b146110775760405162461bcd60e51b81526020600482015260126024820152711b1a5cdd1a5b99c81b9bdd0814185d5cd95960721b6044820152606401610311565b6003810180546002919060ff1916600183610396565b600080546001600160a01b038381166001600160a01b0319831681178455604051919092169283917f8be0079c531659141344cd1fd0a4f28419497f9722a3daafe3b4186f6b6457e09190a35050565b6000602082840312156110ee578081fd5b81356110f98161138f565b9392505050565b600060208284031215611111578081fd5b81516110f98161138f565b60006020828403121561112d578081fd5b81516110f9816113a4565b600060208284031215611149578081fd5b5035919050565b60008060408385031215611162578081fd5b50508035926020909101359150565b600080600060608486031215611185578081fd5b8335925060208401359150604084013561119e816113a4565b809150509250925092565b600681106111c757634e487b7160e01b600052602160045260246000fd5b9052565b602080825282518282018190526000919060409081850190868401855b8281101561123757815180518552868101516001600160a01b031687860152858101518686015260609081015190611222818701836111a9565b505060809390930192908501906001016111e8565b5091979650505050505050565b6020808252600e908201526d36bab9ba1031329039b2b63632b960911b604082015260600190565b6020808252818101527f4f776e61626c653a2063616c6c6572206973206e6f7420746865206f776e6572604082015260600190565b828152604081016110f960208301846111a9565b858152602081018590526001600160a01b03841660408201526060810183905260a081016112e660808301846111a9565b9695505050505050565b6000821982111561130357611303611379565b500190565b60008261132357634e487b7160e01b81526012600452602481fd5b500490565b600081600019048311821515161561134257611342611379565b500290565b60008282101561135957611359611379565b500390565b600060001982141561137257611372611379565b5060010190565b634e487b7160e01b600052601160045260246000fd5b6001600160a01b0381168114610fa657600080fd5b8015158114610fa657600080fdfea264697066735822122075b27eee1e74f24c3a75e58e143f38417f018879a5b0be5de6c5e2e0705ef8c664736f6c63430008040033",
  "linkReferences": {},
  "deployedLinkReferences": {}
}