{
  "address": "0x58F5d73226F940E2543b9f4A70f4Bbf5B027b0aC",
  "abi": [
    {
      "inputs": [
        {
          "internalType": "address",
          "name": "oracle",
          "type": "address"
        },
        {
          "internalType": "address",
          "name": "chainlinkToken",
          "type": "address"
        },
        {
          "internalType": "string",
          "name": "titleSearchUri_",
          "type": "string"
        }
      ],
      "stateMutability": "nonpayable",
      "type": "constructor"
    },
    {
      "anonymous": false,
      "inputs": [
        {
          "indexed": true,
          "internalType": "address",
          "name": "owner",
          "type": "address"
        },
        {
          "indexed": true,
          "internalType": "address",
          "name": "approved",
          "type": "address"
        },
        {
          "indexed": true,
          "internalType": "uint256",
          "name": "tokenId",
          "type": "uint256"
        }
      ],
      "name": "Approval",
      "type": "event"
    },
    {
      "anonymous": false,
      "inputs": [
        {
          "indexed": true,
          "internalType": "address",
          "name": "owner",
          "type": "address"
        },
        {
          "indexed": true,
          "internalType": "address",
          "name": "operator",
          "type": "address"
        },
        {
          "indexed": false,
          "internalType": "bool",
          "name": "approved",
          "type": "bool"
        }
      ],
      "name": "ApprovalForAll",
      "type": "event"
    },
    {
      "anonymous": false,
      "inputs": [
        {
          "indexed": true,
          "internalType": "bytes32",
          "name": "id",
          "type": "bytes32"
        }
      ],
      "name": "ChainlinkCancelled",
      "type": "event"
    },
    {
      "anonymous": false,
      "inputs": [
        {
          "indexed": true,
          "internalType": "bytes32",
          "name": "id",
          "type": "bytes32"
        }
      ],
      "name": "ChainlinkFulfilled",
      "type": "event"
    },
    {
      "anonymous": false,
      "inputs": [
        {
          "indexed": true,
          "internalType": "bytes32",
          "name": "id",
          "type": "bytes32"
        }
      ],
      "name": "ChainlinkRequested",
      "type": "event"
    },
    {
      "anonymous": false,
      "inputs": [
        {
          "indexed": true,
          "internalType": "address",
          "name": "titleOwner",
          "type": "address"
        },
        {
          "indexed": false,
          "internalType": "bytes32",
          "name": "titleId",
          "type": "bytes32"
        },
        {
          "indexed": false,
          "internalType": "uint256",
          "name": "deedId",
          "type": "uint256"
        }
      ],
      "name": "DeedMinted",
      "type": "event"
    },
    {
      "anonymous": false,
      "inputs": [
        {
          "indexed": true,
          "internalType": "address",
          "name": "from",
          "type": "address"
        },
        {
          "indexed": true,
          "internalType": "address",
          "name": "to",
          "type": "address"
        }
      ],
      "name": "OwnershipTransferRequested",
      "type": "event"
    },
    {
      "anonymous": false,
      "inputs": [
        {
          "indexed": true,
          "internalType": "address",
          "name": "from",
          "type": "address"
        },
        {
          "indexed": true,
          "internalType": "address",
          "name": "to",
          "type": "address"
        }
      ],
      "name": "OwnershipTransferred",
      "type": "event"
    },
    {
      "anonymous": false,
      "inputs": [
        {
          "indexed": false,
          "internalType": "address",
          "name": "account",
          "type": "address"
        }
      ],
      "name": "Paused",
      "type": "event"
    },
    {
      "anonymous": false,
      "inputs": [
        {
          "indexed": false,
          "internalType": "bytes32",
          "name": "titleId",
          "type": "bytes32"
        }
      ],
      "name": "TitleRejected",
      "type": "event"
    },
    {
      "anonymous": false,
      "inputs": [
        {
          "indexed": false,
          "internalType": "bytes32",
          "name": "titleId",
          "type": "bytes32"
        }
      ],
      "name": "TitleVerified",
      "type": "event"
    },
    {
      "anonymous": false,
      "inputs": [
        {
          "indexed": true,
          "internalType": "address",
          "name": "from",
          "type": "address"
        },
        {
          "indexed": true,
          "internalType": "address",
          "name": "to",
          "type": "address"
        },
        {
          "indexed": true,
          "internalType": "uint256",
          "name": "tokenId",
          "type": "uint256"
        }
      ],
      "name": "Transfer",
      "type": "event"
    },
    {
      "anonymous": false,
      "inputs": [
        {
          "indexed": false,
          "internalType": "address",
          "name": "account",
          "type": "address"
        }
      ],
      "name": "Unpaused",
      "type": "event"
    },
    {
      "inputs": [],
      "name": "acceptOwnership",
      "outputs": [],
      "stateMutability": "nonpayable",
      "type": "function"
    },
    {
      "inputs": [
        {
          "internalType": "address",
          "name": "to",
          "type": "address"
        },
        {
          "internalType": "uint256",
          "name": "tokenId",
          "type": "uint256"
        }
      ],
      "name": "approve",
      "outputs": [],
      "stateMutability": "nonpayable",
      "type": "function"
    },
    {
      "inputs": [
        {
          "internalType": "address",
          "name": "_wallet",
          "type": "address"
        }
      ],
      "name": "authorizeWallet",
      "outputs": [],
      "stateMutability": "nonpayable",
      "type": "function"
    },
    {
      "inputs": [
        {
          "internalType": "address",
          "name": "owner",
          "type": "address"
        }
      ],
      "name": "balanceOf",
      "outputs": [
        {
          "internalType": "uint256",
          "name": "",
          "type": "uint256"
        }
      ],
      "stateMutability": "view",
      "type": "function"
    },
    {
      "inputs": [
        {
          "internalType": "bytes32",
          "name": "_bytes32",
          "type": "bytes32"
        }
      ],
      "name": "bytes32ToString",
      "outputs": [
        {
          "internalType": "string",
          "name": "",
          "type": "string"
        }
      ],
      "stateMutability": "pure",
      "type": "function"
    },
    {
      "inputs": [
        {
          "internalType": "address",
          "name": "_wallet",
          "type": "address"
        }
      ],
      "name": "deauthorizeWallet",
      "outputs": [],
      "stateMutability": "nonpayable",
      "type": "function"
    },
    {
      "inputs": [
        {
          "internalType": "uint256",
          "name": "deedId",
          "type": "uint256"
        }
      ],
      "name": "exists",
      "outputs": [
        {
          "internalType": "bool",
          "name": "",
          "type": "bool"
        }
      ],
      "stateMutability": "view",
      "type": "function"
    },
    {
      "inputs": [
        {
          "internalType": "bytes32",
          "name": "requestId",
          "type": "bytes32"
        },
        {
          "internalType": "address",
          "name": "_owner",
          "type": "address"
        },
        {
          "internalType": "uint8",
          "name": "_fractionalization",
          "type": "uint8"
        },
        {
          "internalType": "bool",
          "name": "_verified",
          "type": "bool"
        }
      ],
      "name": "fulfillTitleOwnershipVerification",
      "outputs": [],
      "stateMutability": "nonpayable",
      "type": "function"
    },
    {
      "inputs": [
        {
          "internalType": "uint256",
          "name": "tokenId",
          "type": "uint256"
        }
      ],
      "name": "getApproved",
      "outputs": [
        {
          "internalType": "address",
          "name": "",
          "type": "address"
        }
      ],
      "stateMutability": "view",
      "type": "function"
    },
    {
      "inputs": [
        {
          "internalType": "bytes32",
          "name": "titleId",
          "type": "bytes32"
        }
      ],
      "name": "getTitle",
      "outputs": [
        {
          "internalType": "address",
          "name": "owner",
          "type": "address"
        },
        {
          "internalType": "uint8",
          "name": "deedsLeftToMint_",
          "type": "uint8"
        },
        {
          "internalType": "uint256[]",
          "name": "deeds",
          "type": "uint256[]"
        }
      ],
      "stateMutability": "view",
      "type": "function"
    },
    {
      "inputs": [
        {
          "internalType": "address",
          "name": "owner",
          "type": "address"
        },
        {
          "internalType": "address",
          "name": "operator",
          "type": "address"
        }
      ],
      "name": "isApprovedForAll",
      "outputs": [
        {
          "internalType": "bool",
          "name": "",
          "type": "bool"
        }
      ],
      "stateMutability": "view",
      "type": "function"
    },
    {
      "inputs": [
        {
          "internalType": "bytes32",
          "name": "titleId",
          "type": "bytes32"
        },
        {
          "internalType": "uint8",
          "name": "howMany",
          "type": "uint8"
        }
      ],
      "name": "mintDeeds",
      "outputs": [],
      "stateMutability": "nonpayable",
      "type": "function"
    },
    {
      "inputs": [],
      "name": "name",
      "outputs": [
        {
          "internalType": "string",
          "name": "",
          "type": "string"
        }
      ],
      "stateMutability": "view",
      "type": "function"
    },
    {
      "inputs": [],
      "name": "owner",
      "outputs": [
        {
          "internalType": "address",
          "name": "",
          "type": "address"
        }
      ],
      "stateMutability": "view",
      "type": "function"
    },
    {
      "inputs": [
        {
          "internalType": "uint256",
          "name": "tokenId",
          "type": "uint256"
        }
      ],
      "name": "ownerOf",
      "outputs": [
        {
          "internalType": "address",
          "name": "",
          "type": "address"
        }
      ],
      "stateMutability": "view",
      "type": "function"
    },
    {
      "inputs": [],
      "name": "pause",
      "outputs": [],
      "stateMutability": "nonpayable",
      "type": "function"
    },
    {
      "inputs": [],
      "name": "paused",
      "outputs": [
        {
          "internalType": "bool",
          "name": "",
          "type": "bool"
        }
      ],
      "stateMutability": "view",
      "type": "function"
    },
    {
      "inputs": [
        {
          "internalType": "address",
          "name": "from",
          "type": "address"
        },
        {
          "internalType": "address",
          "name": "to",
          "type": "address"
        },
        {
          "internalType": "uint256",
          "name": "tokenId",
          "type": "uint256"
        }
      ],
      "name": "safeTransferFrom",
      "outputs": [],
      "stateMutability": "nonpayable",
      "type": "function"
    },
    {
      "inputs": [
        {
          "internalType": "address",
          "name": "from",
          "type": "address"
        },
        {
          "internalType": "address",
          "name": "to",
          "type": "address"
        },
        {
          "internalType": "uint256",
          "name": "deedId",
          "type": "uint256"
        },
        {
          "internalType": "bytes",
          "name": "data",
          "type": "bytes"
        }
      ],
      "name": "safeTransferFrom",
      "outputs": [],
      "stateMutability": "nonpayable",
      "type": "function"
    },
    {
      "inputs": [
        {
          "internalType": "address",
          "name": "operator",
          "type": "address"
        },
        {
          "internalType": "bool",
          "name": "approved",
          "type": "bool"
        }
      ],
      "name": "setApprovalForAll",
      "outputs": [],
      "stateMutability": "nonpayable",
      "type": "function"
    },
    {
      "inputs": [
        {
          "internalType": "bytes32",
          "name": "newJobId",
          "type": "bytes32"
        }
      ],
      "name": "setJobId",
      "outputs": [],
      "stateMutability": "nonpayable",
      "type": "function"
    },
    {
      "inputs": [
        {
          "internalType": "address",
          "name": "newMarketplaceContract",
          "type": "address"
        }
      ],
      "name": "setMarketplaceContract",
      "outputs": [],
      "stateMutability": "nonpayable",
      "type": "function"
    },
    {
      "inputs": [
        {
          "internalType": "string",
          "name": "newURI",
          "type": "string"
        }
      ],
      "name": "setTitleSearchURI",
      "outputs": [],
      "stateMutability": "nonpayable",
      "type": "function"
    },
    {
      "inputs": [
        {
          "internalType": "string",
          "name": "newURI",
          "type": "string"
        }
      ],
      "name": "setTokenURI",
      "outputs": [],
      "stateMutability": "nonpayable",
      "type": "function"
    },
    {
      "inputs": [
        {
          "internalType": "bytes4",
          "name": "interfaceId",
          "type": "bytes4"
        }
      ],
      "name": "supportsInterface",
      "outputs": [
        {
          "internalType": "bool",
          "name": "",
          "type": "bool"
        }
      ],
      "stateMutability": "view",
      "type": "function"
    },
    {
      "inputs": [],
      "name": "symbol",
      "outputs": [
        {
          "internalType": "string",
          "name": "",
          "type": "string"
        }
      ],
      "stateMutability": "view",
      "type": "function"
    },
    {
      "inputs": [
        {
          "internalType": "uint256",
          "name": "tokenId",
          "type": "uint256"
        }
      ],
      "name": "tokenURI",
      "outputs": [
        {
          "internalType": "string",
          "name": "",
          "type": "string"
        }
      ],
      "stateMutability": "view",
      "type": "function"
    },
    {
      "inputs": [
        {
          "internalType": "address",
          "name": "from",
          "type": "address"
        },
        {
          "internalType": "address",
          "name": "to",
          "type": "address"
        },
        {
          "internalType": "uint256",
          "name": "tokenId",
          "type": "uint256"
        }
      ],
      "name": "transferFrom",
      "outputs": [],
      "stateMutability": "nonpayable",
      "type": "function"
    },
    {
      "inputs": [
        {
          "internalType": "address",
          "name": "to",
          "type": "address"
        }
      ],
      "name": "transferOwnership",
      "outputs": [],
      "stateMutability": "nonpayable",
      "type": "function"
    },
    {
      "inputs": [],
      "name": "unpause",
      "outputs": [],
      "stateMutability": "nonpayable",
      "type": "function"
    },
    {
      "inputs": [
        {
          "internalType": "uint256",
          "name": "deedId",
          "type": "uint256"
        }
      ],
      "name": "uri",
      "outputs": [
        {
          "internalType": "string",
          "name": "",
          "type": "string"
        }
      ],
      "stateMutability": "view",
      "type": "function"
    },
    {
      "inputs": [
        {
          "internalType": "bytes32",
          "name": "titleId",
          "type": "bytes32"
        }
      ],
      "name": "verifyTitleOwnership",
      "outputs": [
        {
          "internalType": "bytes32",
          "name": "requestId",
          "type": "bytes32"
        }
      ],
      "stateMutability": "nonpayable",
      "type": "function"
    },
    {
      "inputs": [],
      "name": "withdrawLink",
      "outputs": [],
      "stateMutability": "nonpayable",
      "type": "function"
    }
  ],
  "transactionHash": "0x2a478793023e847aa6cf875eb75b3a00f1cfcb2e42f6e749ce3651b64cd0cf4f",
  "args": [
    "0x094C858cF9428a4c18023AA714d3e205b6Db6354",
    "0xa36085F69e2889c224210F603D836748e7dC0088",
    "https://bafybeihuftdtf5rjkep52k5afrydtlo4mvznafhtmrsqaunaninykew3qe.ipfs.dweb.link/"
  ],
  "numDeployments": 3,
  "solcInputHash": "070e050eb7b2cb9e03be51be9f06bb79",
  "bytecode": "0x60806040526001600a553480156200001657600080fd5b506040516200378b3803806200378b8339810160408190526200003991620003fe565b604080518082018252600a8152694e6f6d6164486f75736560b01b60208083019182528351808501909452600384526209c9a960eb1b9084015281513393849360009390926200008b9185916200033b565b508051620000a19060019060208401906200033b565b50506006805460ff19169055506001600160a01b0382166200010a5760405162461bcd60e51b815260206004820152601860248201527f43616e6e6f7420736574206f776e657220746f207a65726f000000000000000060448201526064015b60405180910390fd5b600c80546001600160a01b0319166001600160a01b03848116919091179091558116156200013d576200013d81620001d1565b50505062000151836200027e60201b60201c565b600880546001600160a01b0319166001600160a01b0384161790558051620001819060179060208401906200033b565b507f623130373530366262313532343032646163303034343461366461373964343460145567016345785d8a0000601555601280546001018155600052620001c8620002a0565b5050506200054f565b6001600160a01b0381163314156200022c5760405162461bcd60e51b815260206004820152601760248201527f43616e6e6f74207472616e7366657220746f2073656c66000000000000000000604482015260640162000101565b600d80546001600160a01b0319166001600160a01b03838116918217909255600c54604051919216907fed8889f560326eb138920d842192f0eb3dd22b4f139c87a2c57538e05bae127890600090a350565b600980546001600160a01b0319166001600160a01b0392909216919091179055565b60065460ff1615620002e85760405162461bcd60e51b815260206004820152601060248201526f14185d5cd8589b194e881c185d5cd95960821b604482015260640162000101565b6006805460ff191660011790557f62e78cea01bee320cd4e420270b5ea74000d11b0c9f74754ebdbfc544b05a2586200031e3390565b6040516001600160a01b03909116815260200160405180910390a1565b8280546200034990620004fc565b90600052602060002090601f0160209004810192826200036d5760008555620003b8565b82601f106200038857805160ff1916838001178555620003b8565b82800160010185558215620003b8579182015b82811115620003b85782518255916020019190600101906200039b565b50620003c6929150620003ca565b5090565b5b80821115620003c65760008155600101620003cb565b80516001600160a01b0381168114620003f957600080fd5b919050565b60008060006060848603121562000413578283fd5b6200041e84620003e1565b925060206200042f818601620003e1565b60408601519093506001600160401b03808211156200044c578384fd5b818701915087601f83011262000460578384fd5b81518181111562000475576200047562000539565b604051601f8201601f19908116603f01168101908382118183101715620004a057620004a062000539565b816040528281528a86848701011115620004b8578687fd5b8693505b82841015620004db5784840186015181850187015292850192620004bc565b82841115620004ec57868684830101525b8096505050505050509250925092565b600181811c908216806200051157607f821691505b602082108114156200053357634e487b7160e01b600052602260045260246000fd5b50919050565b634e487b7160e01b600052604160045260246000fd5b61322c806200055f6000396000f3fe608060405234801561001057600080fd5b50600436106101fb5760003560e01c80636b0275361161011a57806395d89b41116100ad578063c87b56dd1161007c578063c87b56dd14610421578063e0df5b6f14610434578063e985e9c514610447578063f2fde38b1461045a578063fbeaa8b11461046d57600080fd5b806395d89b41146103e0578063a22cb465146103e8578063b88d4fde146103fb578063bdcf3db91461040e57600080fd5b80638a2a8e30116100e95780638a2a8e30146103a15780638da5cb5b146103b45780638dc654a2146103c55780639201de55146103cd57600080fd5b80636b0275361461036b57806370a082311461037e57806379ba5097146103915780638456cb591461039957600080fd5b80633f4ba83a11610192578063508954f811610161578063508954f81461032757806351790a051461033a5780635c975abb1461034d5780636352211e1461035857600080fd5b80633f4ba83a146102d8578063420fd265146102e057806342842e0e146103015780634f558e791461031457600080fd5b80630e89341c116101ce5780630e89341c1461027d5780631102610e146102905780631a3e91b9146102a357806323b872dd146102c557600080fd5b806301ffc9a71461020057806306fdde0314610228578063081812fc1461023d578063095ea7b314610268575b600080fd5b61021361020e366004612b70565b610480565b60405190151581526020015b60405180910390f35b6102306104d2565b60405161021f9190612e90565b61025061024b366004612ae8565b610564565b6040516001600160a01b03909116815260200161021f565b61027b610276366004612aa3565b6105f1565b005b61023061028b366004612ae8565b610707565b61027b61029e36600461296e565b61078c565b6102b66102b1366004612ae8565b6107b6565b60405161021f93929190612e2e565b61027b6102d33660046129ba565b6108d5565b61027b610906565b6102f36102ee366004612ae8565b610918565b60405190815260200161021f565b61027b61030f3660046129ba565b610a84565b610213610322366004612ae8565b610a9f565b61027b610335366004612ae8565b610aaa565b61027b610348366004612b00565b610ab7565b60065460ff16610213565b610250610366366004612ae8565b610d90565b61027b610379366004612ba8565b610e07565b6102f361038c36600461296e565b610e26565b61027b610ead565b61027b610f5b565b61027b6103af366004612b4e565b610f6b565b600c546001600160a01b0316610250565b61027b611112565b6102306103db366004612ae8565b611274565b6102306113f0565b61027b6103f6366004612a6d565b6113ff565b61027b6104093660046129f5565b61140a565b61027b61041c36600461296e565b611529565b61023061042f366004612ae8565b6115a8565b61027b610442366004612ba8565b611672565b610213610455366004612988565b61168d565b61027b61046836600461296e565b6116bb565b61027b61047b36600461296e565b6116cc565b60006001600160e01b031982166380ac58cd60e01b14806104b157506001600160e01b03198216635b5e139f60e01b145b806104cc57506301ffc9a760e01b6001600160e01b03198316145b92915050565b6060600080546104e19061310c565b80601f016020809104026020016040519081016040528092919081815260200182805461050d9061310c565b801561055a5780601f1061052f5761010080835404028352916020019161055a565b820191906000526020600020905b81548152906001019060200180831161053d57829003601f168201915b5050505050905090565b600061056f8261175c565b6105d55760405162461bcd60e51b815260206004820152602c60248201527f4552433732313a20617070726f76656420717565727920666f72206e6f6e657860448201526b34b9ba32b73a103a37b5b2b760a11b60648201526084015b60405180910390fd5b506000908152600460205260409020546001600160a01b031690565b60006105fc82610d90565b9050806001600160a01b0316836001600160a01b0316141561066a5760405162461bcd60e51b815260206004820152602160248201527f4552433732313a20617070726f76616c20746f2063757272656e74206f776e656044820152603960f91b60648201526084016105cc565b336001600160a01b03821614806106865750610686813361168d565b6106f85760405162461bcd60e51b815260206004820152603860248201527f4552433732313a20617070726f76652063616c6c6572206973206e6f74206f7760448201527f6e6572206e6f7220617070726f76656420666f7220616c6c000000000000000060648201526084016105cc565b6107028383611779565b505050565b60606107128261175c565b6107545760405162461bcd60e51b81526020600482015260136024820152721119595908191bd95cc81b9bdd08195e1a5cdd606a1b60448201526064016105cc565b61075c6117e7565b610765836117f6565b604051602001610776929190612c7c565b6040516020818303038152906040529050919050565b610794611917565b601880546001600160a01b0319166001600160a01b0392909216919091179055565b6000818152600f6020908152604080832054601083528184205460119093529220546001600160a01b039092169160ff909116906060906001600160401b0381111561081257634e487b7160e01b600052604160045260246000fd5b60405190808252806020026020018201604052801561083b578160200160208202803683370190505b50905060005b6000858152601160205260409020548110156108cd57600085815260116020526040902080548290811061088557634e487b7160e01b600052603260045260246000fd5b90600052602060002001548282815181106108b057634e487b7160e01b600052603260045260246000fd5b6020908102919091010152806108c581613141565b915050610841565b509193909250565b6108df338261196a565b6108fb5760405162461bcd60e51b81526004016105cc90612f1f565b610702838383611a33565b61090e611917565b610916611bcf565b565b600061092660065460ff1690565b156109435760405162461bcd60e51b81526004016105cc90612ef5565b6000828152600f60205260409020546001600160a01b0316156109a15760405162461bcd60e51b81526020600482015260166024820152751d1a5d1b1948185b1c9958591e481d995c9a599a595960521b60448201526064016105cc565b60006109b7601454306351790a0560e01b611c62565b9050610a0c6040518060400160405280600381526020016219d95d60ea1b81525060176109e386611274565b6040516020016109f4929190612cbb565b60408051601f19818403018152919052839190611c87565b610a1881601554611ca5565b6000818152600e602052604090205490925015610a6e5760405162461bcd60e51b81526020600482015260146024820152731c995c5d595cdd08185b1c9958591e481cd95b9d60621b60448201526064016105cc565b506000818152600e602052604090209190915590565b6107028383836040518060200160405280600081525061140a565b60006104cc8261175c565b610ab2611917565b601455565b60065460ff1615610ada5760405162461bcd60e51b81526004016105cc90612ef5565b6000848152600b602052604090205484906001600160a01b03163314610b535760405162461bcd60e51b815260206004820152602860248201527f536f75726365206d75737420626520746865206f7261636c65206f6620746865604482015267081c995c5d595cdd60c21b60648201526084016105cc565b6000818152600b602052604080822080546001600160a01b03191690555182917f7cc135e0cebb02c3480ae5d74d377283180a2601f8f644edf7987b009316c63a91a26000858152600e60209081526040808320805490849055808452600f909252909120546001600160a01b031615610c085760405162461bcd60e51b81526020600482015260166024820152751d1a5d1b1948185b1c9958591e481d995c9a599a595960521b60448201526064016105cc565b60348460ff161115610c825760405162461bcd60e51b815260206004820152603a60248201527f44656564732063616e6e6f74206265206672616374696f6e616c697a6564206960448201527f6e746f206d6f7265207468616e203532206672616374696f6e7300000000000060648201526084016105cc565b82610cc0576040518181527f6d5dc5a890300459588342edd2ed87fbde40cc2f033b6f7e985cbaca45eb62399060200160405180910390a150610d89565b6000818152600f6020908152604080832080546001600160a01b0319166001600160a01b038a1617905560108252808320805460ff191660ff89161790558051838152808301808352858552601190935292209151879287928792610d269291906127be565b506001600160a01b03831660009081526013602052604090819020805460ff19166001179055517f7902501974c6ed9fa074d8a846b5382531cdff9d755f2bc80acff802f0266c8990610d7c9086815260200190565b60405180910390a1505050505b5050505050565b6000818152600260205260408120546001600160a01b0316806104cc5760405162461bcd60e51b815260206004820152602960248201527f4552433732313a206f776e657220717565727920666f72206e6f6e657869737460448201526832b73a103a37b5b2b760b91b60648201526084016105cc565b610e0f611917565b8051610e22906017906020840190612809565b5050565b60006001600160a01b038216610e915760405162461bcd60e51b815260206004820152602a60248201527f4552433732313a2062616c616e636520717565727920666f7220746865207a65604482015269726f206164647265737360b01b60648201526084016105cc565b506001600160a01b031660009081526003602052604090205490565b600d546001600160a01b03163314610f005760405162461bcd60e51b815260206004820152601660248201527526bab9ba10313290383937b837b9b2b21037bbb732b960511b60448201526064016105cc565b600c80546001600160a01b031980821633908117909355600d805490911690556040516001600160a01b03909116919082907f8be0079c531659141344cd1fd0a4f28419497f9722a3daafe3b4186f6b6457e090600090a350565b610f63611917565b610916611cbf565b60065460ff1615610f8e5760405162461bcd60e51b81526004016105cc90612ef5565b6000828152600f602052604090205482906001600160a01b03163314610ff65760405162461bcd60e51b815260206004820152601d60248201527f6d73672e73656e646572206973206e6f74207469746c65206f776e657200000060448201526064016105cc565b60008381526010602052604090205461101390839060ff16611d17565b60008481526010602052604081208054929450849290919061103990849060ff166130bd565b92506101000a81548160ff021916908360ff16021790555060005b8260ff1681101561110c5760125461106c3382611d34565b6012805460018082019092557fbb8a6a4669ba250d26cd7a459eca9d215f8307e33aebe50379bc5a3617ec344401869055600086815260116020908152604080832080549485018155835291819020909201839055805187815291820183905233917fbdb24c7cfe050b0ab3bbd01b4a08f32542b455a89ea559cad19322f4413ec0de910160405180910390a2508061110481613141565b915050611054565b50505050565b61111a611917565b600061112e6008546001600160a01b031690565b6040516370a0823160e01b81523060048201529091506001600160a01b0382169063a9059cbb90339083906370a082319060240160206040518083038186803b15801561117a57600080fd5b505afa15801561118e573d6000803e3d6000fd5b505050506040513d601f19601f820116820180604052508101906111b29190612bed565b6040516001600160e01b031960e085901b1681526001600160a01b0390921660048301526024820152604401602060405180830381600087803b1580156111f857600080fd5b505af115801561120c573d6000803e3d6000fd5b505050506040513d601f19601f820116820180604052508101906112309190612acc565b6112715760405162461bcd60e51b81526020600482015260126024820152712ab730b13632903a37903a3930b739b332b960711b60448201526064016105cc565b50565b606060005b60208160ff161080156112bb5750828160ff16602081106112aa57634e487b7160e01b600052603260045260246000fd5b1a60f81b6001600160f81b03191615155b156112d257806112ca8161315c565b915050611279565b60008160ff166001600160401b038111156112fd57634e487b7160e01b600052604160045260246000fd5b6040519080825280601f01601f191660200182016040528015611327576020820181803683370190505b509050600091505b60208260ff161080156113715750838260ff166020811061136057634e487b7160e01b600052603260045260246000fd5b1a60f81b6001600160f81b03191615155b156113e957838260ff166020811061139957634e487b7160e01b600052603260045260246000fd5b1a60f81b818360ff16815181106113c057634e487b7160e01b600052603260045260246000fd5b60200101906001600160f81b031916908160001a905350816113e18161315c565b92505061132f565b9392505050565b6060600180546104e19061310c565b610e22338383611d4e565b60065460ff161561142d5760405162461bcd60e51b81526004016105cc90612ef5565b6001600160a01b038316600090815260136020526040902054839060ff1615156001146114a85760405162461bcd60e51b8152602060048201526024808201527f41646472657373206d757374206265207665726966696564207468726f756768604482015263204b594360e01b60648201526084016105cc565b6018546001600160a01b0316331461151d5760405162461bcd60e51b815260206004820152603260248201527f46756e6374696f6e206973207265737472696374656420746f20746865206d616044820152711c9ad95d1c1b1858d94818dbdb9d1c9858dd60721b60648201526084016105cc565b610d8985858585611e1d565b611531611917565b6001600160a01b0381166115875760405162461bcd60e51b815260206004820152601b60248201527f57616c6c657420616464726573732063616e6e6f7420656d707479000000000060448201526064016105cc565b6001600160a01b03166000908152601360205260409020805460ff19169055565b60606115b38261175c565b6116175760405162461bcd60e51b815260206004820152602f60248201527f4552433732314d657461646174613a2055524920717565727920666f72206e6f60448201526e3732bc34b9ba32b73a103a37b5b2b760891b60648201526084016105cc565b60006116216117e7565b9050600081511161164157604051806020016040528060008152506113e9565b8061164b846117f6565b60405160200161165c929190612c4d565b6040516020818303038152906040529392505050565b61167a611917565b8051610e22906016906020840190612809565b6001600160a01b03918216600090815260056020908152604080832093909416825291909152205460ff1690565b6116c3611917565b61127181611e4f565b6116d4611917565b6001600160a01b0381166117385760405162461bcd60e51b815260206004820152602560248201527f57616c6c657420616464726573732063616e6e6f74206265207a65726f206164604482015264647265737360d81b60648201526084016105cc565b6001600160a01b03166000908152601360205260409020805460ff19166001179055565b6000908152600260205260409020546001600160a01b0316151590565b600081815260046020526040902080546001600160a01b0319166001600160a01b03841690811790915581906117ae82610d90565b6001600160a01b03167f8c5be1e5ebec7d5bd14f71427d1e84f3dd0314c0f7b2291e5b200ac8c7c3b92560405160405180910390a45050565b6060601680546104e19061310c565b60608161181a5750506040805180820190915260018152600360fc1b602082015290565b8160005b8115611844578061182e81613141565b915061183d9050600a83612f88565b915061181e565b6000816001600160401b0381111561186c57634e487b7160e01b600052604160045260246000fd5b6040519080825280601f01601f191660200182016040528015611896576020820181803683370190505b5090505b841561190f576118ab6001836130a6565b91506118b8600a8661317c565b6118c3906030612f70565b60f81b8183815181106118e657634e487b7160e01b600052603260045260246000fd5b60200101906001600160f81b031916908160001a905350611908600a86612f88565b945061189a565b949350505050565b600c546001600160a01b031633146109165760405162461bcd60e51b815260206004820152601660248201527527b7363c9031b0b63630b1363290313c9037bbb732b960511b60448201526064016105cc565b60006119758261175c565b6119d65760405162461bcd60e51b815260206004820152602c60248201527f4552433732313a206f70657261746f7220717565727920666f72206e6f6e657860448201526b34b9ba32b73a103a37b5b2b760a11b60648201526084016105cc565b60006119e183610d90565b9050806001600160a01b0316846001600160a01b03161480611a085750611a08818561168d565b8061190f5750836001600160a01b0316611a2184610564565b6001600160a01b031614949350505050565b826001600160a01b0316611a4682610d90565b6001600160a01b031614611aaa5760405162461bcd60e51b815260206004820152602560248201527f4552433732313a207472616e736665722066726f6d20696e636f72726563742060448201526437bbb732b960d91b60648201526084016105cc565b6001600160a01b038216611b0c5760405162461bcd60e51b8152602060048201526024808201527f4552433732313a207472616e7366657220746f20746865207a65726f206164646044820152637265737360e01b60648201526084016105cc565b611b17600082611779565b6001600160a01b0383166000908152600360205260408120805460019290611b409084906130a6565b90915550506001600160a01b0382166000908152600360205260408120805460019290611b6e908490612f70565b909155505060008181526002602052604080822080546001600160a01b0319166001600160a01b0386811691821790925591518493918716917fddf252ad1be2c89b69c2b068fc378daa952ba7f163c4a11628f55a4df523b3ef91a4505050565b60065460ff16611c185760405162461bcd60e51b815260206004820152601460248201527314185d5cd8589b194e881b9bdd081c185d5cd95960621b60448201526064016105cc565b6006805460ff191690557f5db9ee0a495bf2e6ff9c91a7834c1ba4fdd244a5e8aa4e537bd38aeae4b073aa335b6040516001600160a01b03909116815260200160405180910390a1565b611c6a61287c565b611c7261287c565b611c7e81868686611efa565b95945050505050565b6080830151611c969083611f37565b60808301516107029082611f37565b6009546000906113e9906001600160a01b03168484611f4e565b60065460ff1615611ce25760405162461bcd60e51b81526004016105cc90612ef5565b6006805460ff191660011790557f62e78cea01bee320cd4e420270b5ea74000d11b0c9f74754ebdbfc544b05a258611c453390565b60008160ff168360ff161015611d2e5750816104cc565b50919050565b610e22828260405180602001604052806000815250611fe1565b816001600160a01b0316836001600160a01b03161415611db05760405162461bcd60e51b815260206004820152601960248201527f4552433732313a20617070726f766520746f2063616c6c65720000000000000060448201526064016105cc565b6001600160a01b03838116600081815260056020908152604080832094871680845294825291829020805460ff191686151590811790915591519182527f17307eab39ab6107e8899845ad3d59bd9653f200f220920489ca2b5937696c31910160405180910390a3505050565b611e27338361196a565b611e435760405162461bcd60e51b81526004016105cc90612f1f565b61110c84848484612014565b6001600160a01b038116331415611ea85760405162461bcd60e51b815260206004820152601760248201527f43616e6e6f74207472616e7366657220746f2073656c6600000000000000000060448201526064016105cc565b600d80546001600160a01b0319166001600160a01b03838116918217909255600c54604051919216907fed8889f560326eb138920d842192f0eb3dd22b4f139c87a2c57538e05bae127890600090a350565b611f0261287c565b611f128560800151610100612047565b50509183526001600160a01b031660208301526001600160e01b031916604082015290565b611f4482600383516120ac565b61070282826121b3565b600a54600090611f5f816001612f70565b600a55835160408086015160808701515191516000936320214ca360e11b93611f979386938493923092918a91600191602401612d9f565b60408051601f198184030181529190526020810180516001600160e01b03166001600160e01b0319909316929092179091529050611fd7868386846121da565b9695505050505050565b611feb8383612347565b611ff8600084848461247a565b6107025760405162461bcd60e51b81526004016105cc90612ea3565b61201f848484611a33565b61202b8484848461247a565b61110c5760405162461bcd60e51b81526004016105cc90612ea3565b60408051808201909152606081526000602082015261206760208361317c565b1561208f5761207760208361317c565b6120829060206130a6565b61208c9083612f70565b91505b506020828101829052604080518085526000815290920101905290565b6017816001600160401b0316116120d05761110c8360e0600585901b168317612584565b60ff816001600160401b03161161210c576120f6836018611fe0600586901b1617612584565b5061110c836001600160401b03831660016125a9565b61ffff816001600160401b03161161214957612133836019611fe0600586901b1617612584565b5061110c836001600160401b03831660026125a9565b63ffffffff816001600160401b0316116121885761217283601a611fe0600586901b1617612584565b5061110c836001600160401b03831660046125a9565b61219d83601b611fe0600586901b1617612584565b5061110c836001600160401b03831660086125a9565b6040805180820190915260608152600060208201526113e9838460000151518485516125cf565b6040516bffffffffffffffffffffffff193060601b1660208201526034810184905260009060540160408051808303601f1901815282825280516020918201206000818152600b90925291812080546001600160a01b0319166001600160a01b038a1617905590925082917fb5e6e01e79f91267dc17b4e6314d5d4d03593d2ceee0fbb452b750bd70ea5af99190a2600854604051630200057560e51b81526001600160a01b0390911690634000aea09061229d90889087908790600401612e07565b602060405180830381600087803b1580156122b757600080fd5b505af11580156122cb573d6000803e3d6000fd5b505050506040513d601f19601f820116820180604052508101906122ef9190612acc565b61190f5760405162461bcd60e51b815260206004820152602360248201527f756e61626c6520746f207472616e73666572416e6443616c6c20746f206f7261604482015262636c6560e81b60648201526084016105cc565b6001600160a01b03821661239d5760405162461bcd60e51b815260206004820181905260248201527f4552433732313a206d696e7420746f20746865207a65726f206164647265737360448201526064016105cc565b6123a68161175c565b156123f35760405162461bcd60e51b815260206004820152601c60248201527f4552433732313a20746f6b656e20616c7265616479206d696e7465640000000060448201526064016105cc565b6001600160a01b038216600090815260036020526040812080546001929061241c908490612f70565b909155505060008181526002602052604080822080546001600160a01b0319166001600160a01b03861690811790915590518392907fddf252ad1be2c89b69c2b068fc378daa952ba7f163c4a11628f55a4df523b3ef908290a45050565b60006001600160a01b0384163b1561257c57604051630a85bd0160e11b81526001600160a01b0385169063150b7a02906124be903390899088908890600401612d6c565b602060405180830381600087803b1580156124d857600080fd5b505af1925050508015612508575060408051601f3d908101601f1916820190925261250591810190612b8c565b60015b612562573d808015612536576040519150601f19603f3d011682016040523d82523d6000602084013e61253b565b606091505b50805161255a5760405162461bcd60e51b81526004016105cc90612ea3565b805181602001fd5b6001600160e01b031916630a85bd0160e11b14905061190f565b50600161190f565b6040805180820190915260608152600060208201526113e983846000015151846126b9565b60408051808201909152606081526000602082015261190f848560000151518585612715565b60408051808201909152606081526000602082015282518211156125f257600080fd5b60208501516126018386612f70565b111561263457612634856126248760200151878661261f9190612f70565b612796565b61262f906002613087565b6127a7565b6000808651805187602083010193508088870111156126535787860182525b505050602084015b602084106126935780518252612672602083612f70565b915061267f602082612f70565b905061268c6020856130a6565b935061265b565b51815160001960208690036101000a019081169019919091161790525083949350505050565b604080518082019091526060815260006020820152836020015183106126ee576126ee848560200151600261262f9190613087565b83518051602085830101848153508085141561270b576001810182525b5093949350505050565b60408051808201909152606081526000602082015260208501516127398584612f70565b111561274d5761274d856126248685612f70565b6000600161275d84610100612fdf565b61276791906130a6565b905085518386820101858319825116178152508051848701111561278b5783860181525b509495945050505050565b600081831115611d2e5750816104cc565b81516127b38383612047565b5061110c83826121b3565b8280548282559060005260206000209081019282156127f9579160200282015b828111156127f95782518255916020019190600101906127de565b506128059291506128b7565b5090565b8280546128159061310c565b90600052602060002090601f01602090048101928261283757600085556127f9565b82601f1061285057805160ff19168380011785556127f9565b828001600101855582156127f957918201828111156127f95782518255916020019190600101906127de565b6040805160a0810182526000808252602080830182905282840182905260608084018390528451808601909552845283015290608082015290565b5b8082111561280557600081556001016128b8565b60006001600160401b03808411156128e6576128e66131bc565b604051601f8501601f19908116603f0116810190828211818310171561290e5761290e6131bc565b8160405280935085815286868601111561292757600080fd5b858560208301376000602087830101525050509392505050565b80356001600160a01b038116811461295857600080fd5b919050565b803560ff8116811461295857600080fd5b60006020828403121561297f578081fd5b6113e982612941565b6000806040838503121561299a578081fd5b6129a383612941565b91506129b160208401612941565b90509250929050565b6000806000606084860312156129ce578081fd5b6129d784612941565b92506129e560208501612941565b9150604084013590509250925092565b60008060008060808587031215612a0a578081fd5b612a1385612941565b9350612a2160208601612941565b92506040850135915060608501356001600160401b03811115612a42578182fd5b8501601f81018713612a52578182fd5b612a61878235602084016128cc565b91505092959194509250565b60008060408385031215612a7f578182fd5b612a8883612941565b91506020830135612a98816131d2565b809150509250929050565b60008060408385031215612ab5578182fd5b612abe83612941565b946020939093013593505050565b600060208284031215612add578081fd5b81516113e9816131d2565b600060208284031215612af9578081fd5b5035919050565b60008060008060808587031215612b15578384fd5b84359350612b2560208601612941565b9250612b336040860161295d565b91506060850135612b43816131d2565b939692955090935050565b60008060408385031215612b60578182fd5b823591506129b16020840161295d565b600060208284031215612b81578081fd5b81356113e9816131e0565b600060208284031215612b9d578081fd5b81516113e9816131e0565b600060208284031215612bb9578081fd5b81356001600160401b03811115612bce578182fd5b8201601f81018413612bde578182fd5b61190f848235602084016128cc565b600060208284031215612bfe578081fd5b5051919050565b60008151808452612c1d8160208601602086016130e0565b601f01601f19169290920160200192915050565b60008151612c438185602086016130e0565b9290920192915050565b60008351612c5f8184602088016130e0565b835190830190612c738183602088016130e0565b01949350505050565b60008351612c8e8184602088016130e0565b835190830190612ca28183602088016130e0565b64173539b7b760d91b9101908152600501949350505050565b600080845482600182811c915080831680612cd757607f831692505b6020808410821415612cf757634e487b7160e01b87526022600452602487fd5b818015612d0b5760018114612d1c57612d48565b60ff19861689528489019650612d48565b60008b815260209020885b86811015612d405781548b820152908501908301612d27565b505084890196505b505050505050611c7e612d5b8286612c31565b64173539b7b760d91b815260050190565b6001600160a01b0385811682528416602082015260408101839052608060608201819052600090611fd790830184612c05565b6001600160a01b0389811682526020820189905260408201889052861660608201526001600160e01b03198516608082015260a0810184905260c0810183905261010060e08201819052600090612df883820185612c05565b9b9a5050505050505050505050565b60018060a01b0384168152826020820152606060408201526000611c7e6060830184612c05565b6001600160a01b038416815260ff83166020808301919091526060604083018190528351908301819052600091848101916080850190845b81811015612e8257845183529383019391830191600101612e66565b509098975050505050505050565b6020815260006113e96020830184612c05565b60208082526032908201527f4552433732313a207472616e7366657220746f206e6f6e20455243373231526560408201527131b2b4bb32b91034b6b83632b6b2b73a32b960711b606082015260800190565b60208082526010908201526f14185d5cd8589b194e881c185d5cd95960821b604082015260600190565b60208082526031908201527f4552433732313a207472616e736665722063616c6c6572206973206e6f74206f6040820152701ddb995c881b9bdc88185c1c1c9bdd9959607a1b606082015260800190565b60008219821115612f8357612f83613190565b500190565b600082612f9757612f976131a6565b500490565b600181815b80851115612fd7578160001904821115612fbd57612fbd613190565b80851615612fca57918102915b93841c9390800290612fa1565b509250929050565b60006113e98383600082612ff5575060016104cc565b81613002575060006104cc565b816001811461301857600281146130225761303e565b60019150506104cc565b60ff84111561303357613033613190565b50506001821b6104cc565b5060208310610133831016604e8410600b8410161715613061575081810a6104cc565b61306b8383612f9c565b806000190482111561307f5761307f613190565b029392505050565b60008160001904831182151516156130a1576130a1613190565b500290565b6000828210156130b8576130b8613190565b500390565b600060ff821660ff8416808210156130d7576130d7613190565b90039392505050565b60005b838110156130fb5781810151838201526020016130e3565b8381111561110c5750506000910152565b600181811c9082168061312057607f821691505b60208210811415611d2e57634e487b7160e01b600052602260045260246000fd5b600060001982141561315557613155613190565b5060010190565b600060ff821660ff81141561317357613173613190565b60010192915050565b60008261318b5761318b6131a6565b500690565b634e487b7160e01b600052601160045260246000fd5b634e487b7160e01b600052601260045260246000fd5b634e487b7160e01b600052604160045260246000fd5b801515811461127157600080fd5b6001600160e01b03198116811461127157600080fdfea264697066735822122065a2a0b05284cc0cceb9113b5db9cf354dcf241b7f56c83438d38d303b9b23d964736f6c63430008040033",
  "devdoc": {
    "events": {
      "DeedMinted(address,bytes32,uint256)": {
        "details": "Event for deed mint logging",
        "params": {
          "deedId": "id of the deed purchased",
          "titleId": "id of the title of which the deed is a fraction",
          "titleOwner": "owner/minter of deed"
        }
      }
    },
    "kind": "dev",
    "methods": {
      "approve(address,uint256)": {
        "details": "See {IERC721-approve}."
      },
      "authorizeWallet(address)": {
        "details": "add recipient addresses to the authorized wallets list and grant them the ability to mint"
      },
      "balanceOf(address)": {
        "details": "See {IERC721-balanceOf}."
      },
      "deauthorizeWallet(address)": {
        "details": "remove recipient addresses to the authorized wallets list and revoke their ability to mint"
      },
      "exists(uint256)": {
        "details": "returns true or false if the deed exists in the contract",
        "params": {
          "deedId": "deed token id to check for"
        }
      },
      "fulfillTitleOwnershipVerification(bytes32,address,uint8,bool)": {
        "details": "Receive the response and store it in a mapping to track verified titles",
        "params": {
          "_fractionalization": "amount of fractions allowed to mint (Max 52)",
          "_owner": "address of the title owner",
          "_verified": "boolean which determines whether the title has been verified by external sources",
          "requestId": "identifier of original request; used for finding titleId"
        }
      },
      "getApproved(uint256)": {
        "details": "See {IERC721-getApproved}."
      },
      "isApprovedForAll(address,address)": {
        "details": "See {IERC721-isApprovedForAll}."
      },
      "name()": {
        "details": "See {IERC721Metadata-name}."
      },
      "ownerOf(uint256)": {
        "details": "See {IERC721-ownerOf}."
      },
      "paused()": {
        "details": "Returns true if the contract is paused, and false otherwise."
      },
      "safeTransferFrom(address,address,uint256)": {
        "details": "See {IERC721-safeTransferFrom}."
      },
      "safeTransferFrom(address,address,uint256,bytes)": {
        "details": "transfer function (Individual)",
        "params": {
          "data": "additional data in case the minter is a contract*",
          "deedId": "deed token id to transfer",
          "from": "address string to send the tokens from",
          "to": "address string to send the tokens to"
        }
      },
      "setApprovalForAll(address,bool)": {
        "details": "See {IERC721-setApprovalForAll}."
      },
      "setJobId(bytes32)": {
        "details": "sets new chainlink Job Id "
      },
      "setMarketplaceContract(address)": {
        "details": "sets marketplace smart contract address to restrict functions to this contract only"
      },
      "setTitleSearchURI(string)": {
        "details": "sets title search uri for title verification"
      },
      "setTokenURI(string)": {
        "details": "sets base uri for all deeds"
      },
      "supportsInterface(bytes4)": {
        "details": "See {IERC165-supportsInterface}."
      },
      "symbol()": {
        "details": "See {IERC721Metadata-symbol}."
      },
      "tokenURI(uint256)": {
        "details": "See {IERC721Metadata-tokenURI}."
      },
      "transferFrom(address,address,uint256)": {
        "details": "See {IERC721-transferFrom}."
      },
      "uri(uint256)": {
        "details": "returns the metadata uri for a given deedId",
        "params": {
          "deedId": "the deedId id to return metadata for"
        },
        "returns": {
          "_0": "uri string of the deedId metadata"
        }
      },
      "verifyTitleOwnership(bytes32)": {
        "details": "Makes an API call to our in house title search API which will have information on the title and it's whether it's been marked as verified.",
        "params": {
          "titleId": "The primary identifier for performing title searches"
        }
      },
      "withdrawLink()": {
        "details": "withdraw link from contract"
      }
    },
    "version": 1
  },
  "userdoc": {
    "kind": "user",
    "methods": {
      "acceptOwnership()": {
        "notice": "Allows an ownership transfer to be completed by the recipient."
      },
      "constructor": {
        "notice": "Initialize the link token and target oracle Kovan Testnet details: Link Token: 0xa36085F69e2889c224210F603D836748e7dC0088 Oracle: 0x094C858cF9428a4c18023AA714d3e205b6Db6354 (Oracle Kovan Address) jobId: b107506bb152402dac00444a6da79d44"
      },
      "owner()": {
        "notice": "Get the current owner"
      },
      "transferOwnership(address)": {
        "notice": "Allows an owner to begin transferring ownership to a new address, pending."
      }
    },
    "version": 1
  },
  "storageLayout": {
    "storage": [
      {
        "astId": 2636,
        "contract": "contracts/Collection.sol:Collection",
        "label": "_name",
        "offset": 0,
        "slot": "0",
        "type": "t_string_storage"
      },
      {
        "astId": 2638,
        "contract": "contracts/Collection.sol:Collection",
        "label": "_symbol",
        "offset": 0,
        "slot": "1",
        "type": "t_string_storage"
      },
      {
        "astId": 2642,
        "contract": "contracts/Collection.sol:Collection",
        "label": "_owners",
        "offset": 0,
        "slot": "2",
        "type": "t_mapping(t_uint256,t_address)"
      },
      {
        "astId": 2646,
        "contract": "contracts/Collection.sol:Collection",
        "label": "_balances",
        "offset": 0,
        "slot": "3",
        "type": "t_mapping(t_address,t_uint256)"
      },
      {
        "astId": 2650,
        "contract": "contracts/Collection.sol:Collection",
        "label": "_tokenApprovals",
        "offset": 0,
        "slot": "4",
        "type": "t_mapping(t_uint256,t_address)"
      },
      {
        "astId": 2656,
        "contract": "contracts/Collection.sol:Collection",
        "label": "_operatorApprovals",
        "offset": 0,
        "slot": "5",
        "type": "t_mapping(t_address,t_mapping(t_address,t_bool))"
      },
      {
        "astId": 2496,
        "contract": "contracts/Collection.sol:Collection",
        "label": "_paused",
        "offset": 0,
        "slot": "6",
        "type": "t_bool"
      },
      {
        "astId": 319,
        "contract": "contracts/Collection.sol:Collection",
        "label": "s_ens",
        "offset": 1,
        "slot": "6",
        "type": "t_contract(ENSInterface)1156"
      },
      {
        "astId": 321,
        "contract": "contracts/Collection.sol:Collection",
        "label": "s_ensNode",
        "offset": 0,
        "slot": "7",
        "type": "t_bytes32"
      },
      {
        "astId": 324,
        "contract": "contracts/Collection.sol:Collection",
        "label": "s_link",
        "offset": 0,
        "slot": "8",
        "type": "t_contract(LinkTokenInterface)1251"
      },
      {
        "astId": 327,
        "contract": "contracts/Collection.sol:Collection",
        "label": "s_oracle",
        "offset": 0,
        "slot": "9",
        "type": "t_contract(OperatorInterface)1331"
      },
      {
        "astId": 330,
        "contract": "contracts/Collection.sol:Collection",
        "label": "s_requestCount",
        "offset": 0,
        "slot": "10",
        "type": "t_uint256"
      },
      {
        "astId": 334,
        "contract": "contracts/Collection.sol:Collection",
        "label": "s_pendingRequests",
        "offset": 0,
        "slot": "11",
        "type": "t_mapping(t_bytes32,t_address)"
      },
      {
        "astId": 889,
        "contract": "contracts/Collection.sol:Collection",
        "label": "s_owner",
        "offset": 0,
        "slot": "12",
        "type": "t_address"
      },
      {
        "astId": 891,
        "contract": "contracts/Collection.sol:Collection",
        "label": "s_pendingOwner",
        "offset": 0,
        "slot": "13",
        "type": "t_address"
      },
      {
        "astId": 4661,
        "contract": "contracts/Collection.sol:Collection",
        "label": "requestIdToTitleId",
        "offset": 0,
        "slot": "14",
        "type": "t_mapping(t_bytes32,t_bytes32)"
      },
      {
        "astId": 4665,
        "contract": "contracts/Collection.sol:Collection",
        "label": "titleOwners",
        "offset": 0,
        "slot": "15",
        "type": "t_mapping(t_bytes32,t_address)"
      },
      {
        "astId": 4669,
        "contract": "contracts/Collection.sol:Collection",
        "label": "deedsLeftToMint",
        "offset": 0,
        "slot": "16",
        "type": "t_mapping(t_bytes32,t_uint8)"
      },
      {
        "astId": 4674,
        "contract": "contracts/Collection.sol:Collection",
        "label": "titledDeeds",
        "offset": 0,
        "slot": "17",
        "type": "t_mapping(t_bytes32,t_array(t_uint256)dyn_storage)"
      },
      {
        "astId": 4677,
        "contract": "contracts/Collection.sol:Collection",
        "label": "deeds",
        "offset": 0,
        "slot": "18",
        "type": "t_array(t_bytes32)dyn_storage"
      },
      {
        "astId": 4681,
        "contract": "contracts/Collection.sol:Collection",
        "label": "_verifiedAddresses",
        "offset": 0,
        "slot": "19",
        "type": "t_mapping(t_address,t_bool)"
      },
      {
        "astId": 4683,
        "contract": "contracts/Collection.sol:Collection",
        "label": "jobId",
        "offset": 0,
        "slot": "20",
        "type": "t_bytes32"
      },
      {
        "astId": 4685,
        "contract": "contracts/Collection.sol:Collection",
        "label": "fee",
        "offset": 0,
        "slot": "21",
        "type": "t_uint256"
      },
      {
        "astId": 4687,
        "contract": "contracts/Collection.sol:Collection",
        "label": "baseTokenUri",
        "offset": 0,
        "slot": "22",
        "type": "t_string_storage"
      },
      {
        "astId": 4689,
        "contract": "contracts/Collection.sol:Collection",
        "label": "titleSearchUri",
        "offset": 0,
        "slot": "23",
        "type": "t_string_storage"
      },
      {
        "astId": 4691,
        "contract": "contracts/Collection.sol:Collection",
        "label": "marketplaceContract",
        "offset": 0,
        "slot": "24",
        "type": "t_address"
      }
    ],
    "types": {
      "t_address": {
        "encoding": "inplace",
        "label": "address",
        "numberOfBytes": "20"
      },
      "t_array(t_bytes32)dyn_storage": {
        "base": "t_bytes32",
        "encoding": "dynamic_array",
        "label": "bytes32[]",
        "numberOfBytes": "32"
      },
      "t_array(t_uint256)dyn_storage": {
        "base": "t_uint256",
        "encoding": "dynamic_array",
        "label": "uint256[]",
        "numberOfBytes": "32"
      },
      "t_bool": {
        "encoding": "inplace",
        "label": "bool",
        "numberOfBytes": "1"
      },
      "t_bytes32": {
        "encoding": "inplace",
        "label": "bytes32",
        "numberOfBytes": "32"
      },
      "t_contract(ENSInterface)1156": {
        "encoding": "inplace",
        "label": "contract ENSInterface",
        "numberOfBytes": "20"
      },
      "t_contract(LinkTokenInterface)1251": {
        "encoding": "inplace",
        "label": "contract LinkTokenInterface",
        "numberOfBytes": "20"
      },
      "t_contract(OperatorInterface)1331": {
        "encoding": "inplace",
        "label": "contract OperatorInterface",
        "numberOfBytes": "20"
      },
      "t_mapping(t_address,t_bool)": {
        "encoding": "mapping",
        "key": "t_address",
        "label": "mapping(address => bool)",
        "numberOfBytes": "32",
        "value": "t_bool"
      },
      "t_mapping(t_address,t_mapping(t_address,t_bool))": {
        "encoding": "mapping",
        "key": "t_address",
        "label": "mapping(address => mapping(address => bool))",
        "numberOfBytes": "32",
        "value": "t_mapping(t_address,t_bool)"
      },
      "t_mapping(t_address,t_uint256)": {
        "encoding": "mapping",
        "key": "t_address",
        "label": "mapping(address => uint256)",
        "numberOfBytes": "32",
        "value": "t_uint256"
      },
      "t_mapping(t_bytes32,t_address)": {
        "encoding": "mapping",
        "key": "t_bytes32",
        "label": "mapping(bytes32 => address)",
        "numberOfBytes": "32",
        "value": "t_address"
      },
      "t_mapping(t_bytes32,t_array(t_uint256)dyn_storage)": {
        "encoding": "mapping",
        "key": "t_bytes32",
        "label": "mapping(bytes32 => uint256[])",
        "numberOfBytes": "32",
        "value": "t_array(t_uint256)dyn_storage"
      },
      "t_mapping(t_bytes32,t_bytes32)": {
        "encoding": "mapping",
        "key": "t_bytes32",
        "label": "mapping(bytes32 => bytes32)",
        "numberOfBytes": "32",
        "value": "t_bytes32"
      },
      "t_mapping(t_bytes32,t_uint8)": {
        "encoding": "mapping",
        "key": "t_bytes32",
        "label": "mapping(bytes32 => uint8)",
        "numberOfBytes": "32",
        "value": "t_uint8"
      },
      "t_mapping(t_uint256,t_address)": {
        "encoding": "mapping",
        "key": "t_uint256",
        "label": "mapping(uint256 => address)",
        "numberOfBytes": "32",
        "value": "t_address"
      },
      "t_string_storage": {
        "encoding": "bytes",
        "label": "string",
        "numberOfBytes": "32"
      },
      "t_uint256": {
        "encoding": "inplace",
        "label": "uint256",
        "numberOfBytes": "32"
      },
      "t_uint8": {
        "encoding": "inplace",
        "label": "uint8",
        "numberOfBytes": "1"
      }
    }
  }
}