{
  "_format": "hh-sol-artifact-1",
  "contractName": "Collection",
  "sourceName": "contracts/Collection.sol",
  "abi": [
    {
      "inputs": [
        {
          "internalType": "address",
          "name": "operator",
          "type": "address"
        },
        {
          "internalType": "address",
          "name": "chainlinkToken",
          "type": "address"
        },
        {
          "internalType": "string",
          "name": "titleSearchUri_",
          "type": "string"
        }
      ],
      "stateMutability": "nonpayable",
      "type": "constructor"
    },
    {
      "anonymous": false,
      "inputs": [
        {
          "indexed": true,
          "internalType": "address",
          "name": "owner",
          "type": "address"
        },
        {
          "indexed": true,
          "internalType": "address",
          "name": "approved",
          "type": "address"
        },
        {
          "indexed": true,
          "internalType": "uint256",
          "name": "tokenId",
          "type": "uint256"
        }
      ],
      "name": "Approval",
      "type": "event"
    },
    {
      "anonymous": false,
      "inputs": [
        {
          "indexed": true,
          "internalType": "address",
          "name": "owner",
          "type": "address"
        },
        {
          "indexed": true,
          "internalType": "address",
          "name": "operator",
          "type": "address"
        },
        {
          "indexed": false,
          "internalType": "bool",
          "name": "approved",
          "type": "bool"
        }
      ],
      "name": "ApprovalForAll",
      "type": "event"
    },
    {
      "anonymous": false,
      "inputs": [
        {
          "indexed": true,
          "internalType": "bytes32",
          "name": "id",
          "type": "bytes32"
        }
      ],
      "name": "ChainlinkCancelled",
      "type": "event"
    },
    {
      "anonymous": false,
      "inputs": [
        {
          "indexed": true,
          "internalType": "bytes32",
          "name": "id",
          "type": "bytes32"
        }
      ],
      "name": "ChainlinkFulfilled",
      "type": "event"
    },
    {
      "anonymous": false,
      "inputs": [
        {
          "indexed": true,
          "internalType": "bytes32",
          "name": "id",
          "type": "bytes32"
        }
      ],
      "name": "ChainlinkRequested",
      "type": "event"
    },
    {
      "anonymous": false,
      "inputs": [
        {
          "indexed": true,
          "internalType": "address",
          "name": "titleOwner",
          "type": "address"
        },
        {
          "indexed": false,
          "internalType": "bytes32",
          "name": "titleId",
          "type": "bytes32"
        },
        {
          "indexed": false,
          "internalType": "uint256",
          "name": "deedId",
          "type": "uint256"
        }
      ],
      "name": "DeedMinted",
      "type": "event"
    },
    {
      "anonymous": false,
      "inputs": [
        {
          "indexed": true,
          "internalType": "address",
          "name": "from",
          "type": "address"
        },
        {
          "indexed": true,
          "internalType": "address",
          "name": "to",
          "type": "address"
        }
      ],
      "name": "OwnershipTransferRequested",
      "type": "event"
    },
    {
      "anonymous": false,
      "inputs": [
        {
          "indexed": true,
          "internalType": "address",
          "name": "from",
          "type": "address"
        },
        {
          "indexed": true,
          "internalType": "address",
          "name": "to",
          "type": "address"
        }
      ],
      "name": "OwnershipTransferred",
      "type": "event"
    },
    {
      "anonymous": false,
      "inputs": [
        {
          "indexed": false,
          "internalType": "address",
          "name": "account",
          "type": "address"
        }
      ],
      "name": "Paused",
      "type": "event"
    },
    {
      "anonymous": false,
      "inputs": [
        {
          "indexed": false,
          "internalType": "bytes32",
          "name": "titleId",
          "type": "bytes32"
        }
      ],
      "name": "TitleRejected",
      "type": "event"
    },
    {
      "anonymous": false,
      "inputs": [
        {
          "indexed": false,
          "internalType": "bytes32",
          "name": "titleId",
          "type": "bytes32"
        }
      ],
      "name": "TitleVerified",
      "type": "event"
    },
    {
      "anonymous": false,
      "inputs": [
        {
          "indexed": true,
          "internalType": "address",
          "name": "from",
          "type": "address"
        },
        {
          "indexed": true,
          "internalType": "address",
          "name": "to",
          "type": "address"
        },
        {
          "indexed": true,
          "internalType": "uint256",
          "name": "tokenId",
          "type": "uint256"
        }
      ],
      "name": "Transfer",
      "type": "event"
    },
    {
      "anonymous": false,
      "inputs": [
        {
          "indexed": false,
          "internalType": "address",
          "name": "account",
          "type": "address"
        }
      ],
      "name": "Unpaused",
      "type": "event"
    },
    {
      "inputs": [],
      "name": "acceptOwnership",
      "outputs": [],
      "stateMutability": "nonpayable",
      "type": "function"
    },
    {
      "inputs": [
        {
          "internalType": "address",
          "name": "to",
          "type": "address"
        },
        {
          "internalType": "uint256",
          "name": "tokenId",
          "type": "uint256"
        }
      ],
      "name": "approve",
      "outputs": [],
      "stateMutability": "nonpayable",
      "type": "function"
    },
    {
      "inputs": [
        {
          "internalType": "address",
          "name": "_wallet",
          "type": "address"
        }
      ],
      "name": "authorizeWallet",
      "outputs": [],
      "stateMutability": "nonpayable",
      "type": "function"
    },
    {
      "inputs": [
        {
          "internalType": "address",
          "name": "owner",
          "type": "address"
        }
      ],
      "name": "balanceOf",
      "outputs": [
        {
          "internalType": "uint256",
          "name": "",
          "type": "uint256"
        }
      ],
      "stateMutability": "view",
      "type": "function"
    },
    {
      "inputs": [
        {
          "internalType": "bytes32",
          "name": "_bytes32",
          "type": "bytes32"
        }
      ],
      "name": "bytes32ToString",
      "outputs": [
        {
          "internalType": "string",
          "name": "",
          "type": "string"
        }
      ],
      "stateMutability": "pure",
      "type": "function"
    },
    {
      "inputs": [
        {
          "internalType": "address",
          "name": "_wallet",
          "type": "address"
        }
      ],
      "name": "deauthorizeWallet",
      "outputs": [],
      "stateMutability": "nonpayable",
      "type": "function"
    },
    {
      "inputs": [
        {
          "internalType": "uint256",
          "name": "deedId",
          "type": "uint256"
        }
      ],
      "name": "exists",
      "outputs": [
        {
          "internalType": "bool",
          "name": "",
          "type": "bool"
        }
      ],
      "stateMutability": "view",
      "type": "function"
    },
    {
      "inputs": [
        {
          "internalType": "bytes32",
          "name": "requestId",
          "type": "bytes32"
        },
        {
          "internalType": "bytes20",
          "name": "_owner",
          "type": "bytes20"
        },
        {
          "internalType": "uint8",
          "name": "_fractionalization",
          "type": "uint8"
        },
        {
          "internalType": "bool",
          "name": "_verified",
          "type": "bool"
        }
      ],
      "name": "fulfillTitleOwnershipVerification",
      "outputs": [],
      "stateMutability": "nonpayable",
      "type": "function"
    },
    {
      "inputs": [
        {
          "internalType": "uint256",
          "name": "tokenId",
          "type": "uint256"
        }
      ],
      "name": "getApproved",
      "outputs": [
        {
          "internalType": "address",
          "name": "",
          "type": "address"
        }
      ],
      "stateMutability": "view",
      "type": "function"
    },
    {
      "inputs": [
        {
          "internalType": "bytes32",
          "name": "titleId",
          "type": "bytes32"
        }
      ],
      "name": "getTitle",
      "outputs": [
        {
          "internalType": "address",
          "name": "owner",
          "type": "address"
        },
        {
          "internalType": "uint8",
          "name": "deedsLeftToMint_",
          "type": "uint8"
        },
        {
          "internalType": "uint256[]",
          "name": "deeds",
          "type": "uint256[]"
        }
      ],
      "stateMutability": "view",
      "type": "function"
    },
    {
      "inputs": [
        {
          "internalType": "address",
          "name": "owner",
          "type": "address"
        },
        {
          "internalType": "address",
          "name": "operator",
          "type": "address"
        }
      ],
      "name": "isApprovedForAll",
      "outputs": [
        {
          "internalType": "bool",
          "name": "",
          "type": "bool"
        }
      ],
      "stateMutability": "view",
      "type": "function"
    },
    {
      "inputs": [
        {
          "internalType": "bytes32",
          "name": "titleId",
          "type": "bytes32"
        },
        {
          "internalType": "uint8",
          "name": "howMany",
          "type": "uint8"
        }
      ],
      "name": "mintDeeds",
      "outputs": [],
      "stateMutability": "nonpayable",
      "type": "function"
    },
    {
      "inputs": [],
      "name": "name",
      "outputs": [
        {
          "internalType": "string",
          "name": "",
          "type": "string"
        }
      ],
      "stateMutability": "view",
      "type": "function"
    },
    {
      "inputs": [],
      "name": "owner",
      "outputs": [
        {
          "internalType": "address",
          "name": "",
          "type": "address"
        }
      ],
      "stateMutability": "view",
      "type": "function"
    },
    {
      "inputs": [
        {
          "internalType": "uint256",
          "name": "tokenId",
          "type": "uint256"
        }
      ],
      "name": "ownerOf",
      "outputs": [
        {
          "internalType": "address",
          "name": "",
          "type": "address"
        }
      ],
      "stateMutability": "view",
      "type": "function"
    },
    {
      "inputs": [],
      "name": "pause",
      "outputs": [],
      "stateMutability": "nonpayable",
      "type": "function"
    },
    {
      "inputs": [],
      "name": "paused",
      "outputs": [
        {
          "internalType": "bool",
          "name": "",
          "type": "bool"
        }
      ],
      "stateMutability": "view",
      "type": "function"
    },
    {
      "inputs": [
        {
          "internalType": "address",
          "name": "from",
          "type": "address"
        },
        {
          "internalType": "address",
          "name": "to",
          "type": "address"
        },
        {
          "internalType": "uint256",
          "name": "tokenId",
          "type": "uint256"
        }
      ],
      "name": "safeTransferFrom",
      "outputs": [],
      "stateMutability": "nonpayable",
      "type": "function"
    },
    {
      "inputs": [
        {
          "internalType": "address",
          "name": "from",
          "type": "address"
        },
        {
          "internalType": "address",
          "name": "to",
          "type": "address"
        },
        {
          "internalType": "uint256",
          "name": "deedId",
          "type": "uint256"
        },
        {
          "internalType": "bytes",
          "name": "data",
          "type": "bytes"
        }
      ],
      "name": "safeTransferFrom",
      "outputs": [],
      "stateMutability": "nonpayable",
      "type": "function"
    },
    {
      "inputs": [
        {
          "internalType": "address",
          "name": "operator",
          "type": "address"
        },
        {
          "internalType": "bool",
          "name": "approved",
          "type": "bool"
        }
      ],
      "name": "setApprovalForAll",
      "outputs": [],
      "stateMutability": "nonpayable",
      "type": "function"
    },
    {
      "inputs": [
        {
          "internalType": "string",
          "name": "newJobId",
          "type": "string"
        }
      ],
      "name": "setJobId",
      "outputs": [],
      "stateMutability": "nonpayable",
      "type": "function"
    },
    {
      "inputs": [
        {
          "internalType": "address",
          "name": "newMarketplaceContract",
          "type": "address"
        }
      ],
      "name": "setMarketplaceContract",
      "outputs": [],
      "stateMutability": "nonpayable",
      "type": "function"
    },
    {
      "inputs": [
        {
          "internalType": "string",
          "name": "newURI",
          "type": "string"
        }
      ],
      "name": "setTitleSearchURI",
      "outputs": [],
      "stateMutability": "nonpayable",
      "type": "function"
    },
    {
      "inputs": [
        {
          "internalType": "string",
          "name": "newURI",
          "type": "string"
        }
      ],
      "name": "setTokenURI",
      "outputs": [],
      "stateMutability": "nonpayable",
      "type": "function"
    },
    {
      "inputs": [
        {
          "internalType": "string",
          "name": "source",
          "type": "string"
        }
      ],
      "name": "stringToBytes32",
      "outputs": [
        {
          "internalType": "bytes32",
          "name": "result",
          "type": "bytes32"
        }
      ],
      "stateMutability": "pure",
      "type": "function"
    },
    {
      "inputs": [
        {
          "internalType": "bytes4",
          "name": "interfaceId",
          "type": "bytes4"
        }
      ],
      "name": "supportsInterface",
      "outputs": [
        {
          "internalType": "bool",
          "name": "",
          "type": "bool"
        }
      ],
      "stateMutability": "view",
      "type": "function"
    },
    {
      "inputs": [],
      "name": "symbol",
      "outputs": [
        {
          "internalType": "string",
          "name": "",
          "type": "string"
        }
      ],
      "stateMutability": "view",
      "type": "function"
    },
    {
      "inputs": [
        {
          "internalType": "uint256",
          "name": "tokenId",
          "type": "uint256"
        }
      ],
      "name": "tokenURI",
      "outputs": [
        {
          "internalType": "string",
          "name": "",
          "type": "string"
        }
      ],
      "stateMutability": "view",
      "type": "function"
    },
    {
      "inputs": [
        {
          "internalType": "address",
          "name": "from",
          "type": "address"
        },
        {
          "internalType": "address",
          "name": "to",
          "type": "address"
        },
        {
          "internalType": "uint256",
          "name": "tokenId",
          "type": "uint256"
        }
      ],
      "name": "transferFrom",
      "outputs": [],
      "stateMutability": "nonpayable",
      "type": "function"
    },
    {
      "inputs": [
        {
          "internalType": "address",
          "name": "to",
          "type": "address"
        }
      ],
      "name": "transferOwnership",
      "outputs": [],
      "stateMutability": "nonpayable",
      "type": "function"
    },
    {
      "inputs": [],
      "name": "unpause",
      "outputs": [],
      "stateMutability": "nonpayable",
      "type": "function"
    },
    {
      "inputs": [
        {
          "internalType": "uint256",
          "name": "deedId",
          "type": "uint256"
        }
      ],
      "name": "uri",
      "outputs": [
        {
          "internalType": "string",
          "name": "",
          "type": "string"
        }
      ],
      "stateMutability": "view",
      "type": "function"
    },
    {
      "inputs": [
        {
          "internalType": "bytes32",
          "name": "titleId",
          "type": "bytes32"
        }
      ],
      "name": "verifyTitleOwnership",
      "outputs": [
        {
          "internalType": "bytes32",
          "name": "requestId",
          "type": "bytes32"
        }
      ],
      "stateMutability": "nonpayable",
      "type": "function"
    },
    {
      "inputs": [],
      "name": "withdrawLink",
      "outputs": [],
      "stateMutability": "nonpayable",
      "type": "function"
    }
  ],
  "bytecode": "0x60806040526001600a553480156200001657600080fd5b50604051620037bb380380620037bb8339810160408190526200003991620003f6565b604080518082018252600a8152694e6f6d6164486f75736560b01b60208083019182528351808501909452600384526209c9a960eb1b9084015281513393849360009390926200008b91859162000333565b508051620000a190600190602084019062000333565b50506006805460ff19169055506001600160a01b0382166200010a5760405162461bcd60e51b815260206004820152601860248201527f43616e6e6f7420736574206f776e657220746f207a65726f000000000000000060448201526064015b60405180910390fd5b600c80546001600160a01b0319166001600160a01b03848116919091179091558116156200013d576200013d81620001eb565b5050601480546001600160a01b0386166001600160a01b0319918216811790925560098054909116909117905550600880546001600160a01b0319166001600160a01b03841617905580516200019b90601890602084019062000333565b507f613232383364623830383166343932356132643239303439346361653761313560155567016345785d8a0000601655601280546001018155600052620001e262000298565b50505062000547565b6001600160a01b038116331415620002465760405162461bcd60e51b815260206004820152601760248201527f43616e6e6f74207472616e7366657220746f2073656c66000000000000000000604482015260640162000101565b600d80546001600160a01b0319166001600160a01b03838116918217909255600c54604051919216907fed8889f560326eb138920d842192f0eb3dd22b4f139c87a2c57538e05bae127890600090a350565b60065460ff1615620002e05760405162461bcd60e51b815260206004820152601060248201526f14185d5cd8589b194e881c185d5cd95960821b604482015260640162000101565b6006805460ff191660011790557f62e78cea01bee320cd4e420270b5ea74000d11b0c9f74754ebdbfc544b05a258620003163390565b6040516001600160a01b03909116815260200160405180910390a1565b8280546200034190620004f4565b90600052602060002090601f016020900481019282620003655760008555620003b0565b82601f106200038057805160ff1916838001178555620003b0565b82800160010185558215620003b0579182015b82811115620003b057825182559160200191906001019062000393565b50620003be929150620003c2565b5090565b5b80821115620003be5760008155600101620003c3565b80516001600160a01b0381168114620003f157600080fd5b919050565b6000806000606084860312156200040b578283fd5b6200041684620003d9565b9250602062000427818601620003d9565b60408601519093506001600160401b038082111562000444578384fd5b818701915087601f83011262000458578384fd5b8151818111156200046d576200046d62000531565b604051601f8201601f19908116603f0116810190838211818310171562000498576200049862000531565b816040528281528a86848701011115620004b0578687fd5b8693505b82841015620004d35784840186015181850187015292850192620004b4565b82841115620004e457868684830101525b8096505050505050509250925092565b600181811c908216806200050957607f821691505b602082108114156200052b57634e487b7160e01b600052602260045260246000fd5b50919050565b634e487b7160e01b600052604160045260246000fd5b61326480620005576000396000f3fe608060405234801561001057600080fd5b50600436106102065760003560e01c806379ba50971161011a578063a92d3260116100ad578063cfb519281161007c578063cfb519281461043f578063e0df5b6f14610452578063e985e9c514610465578063f2fde38b14610478578063fbeaa8b11461048b57600080fd5b8063a92d3260146103f3578063b88d4fde14610406578063bdcf3db914610419578063c87b56dd1461042c57600080fd5b80638dc654a2116100e95780638dc654a2146103bd5780639201de55146103c557806395d89b41146103d8578063a22cb465146103e057600080fd5b806379ba5097146103895780638456cb59146103915780638a2a8e30146103995780638da5cb5b146103ac57600080fd5b806323b872dd1161019d5780634f558e791161016c5780634f558e79146103325780635c975abb146103455780636352211e146103505780636b0275361461036357806370a082311461037657600080fd5b806323b872dd146102e35780633f4ba83a146102f6578063420fd265146102fe57806342842e0e1461031f57600080fd5b80630e89341c116101d95780630e89341c146102885780631102610e1461029b578063129fc1c0146102ae5780631a3e91b9146102c157600080fd5b806301ffc9a71461020b57806306fdde0314610233578063081812fc14610248578063095ea7b314610273575b600080fd5b61021e610219366004612bbb565b61049e565b60405190151581526020015b60405180910390f35b61023b6104f0565b60405161022a9190612ec8565b61025b610256366004612b20565b610582565b6040516001600160a01b03909116815260200161022a565b610286610281366004612adb565b61060f565b005b61023b610296366004612b20565b610725565b6102866102a93660046129a6565b6107aa565b6102866102bc366004612bf3565b6107d4565b6102d46102cf366004612b20565b6107eb565b60405161022a93929190612e66565b6102866102f13660046129f2565b61090a565b61028661093b565b61031161030c366004612b20565b61094d565b60405190815260200161022a565b61028661032d3660046129f2565b610ac8565b61021e610340366004612b20565b610ae3565b60065460ff1661021e565b61025b61035e366004612b20565b610aee565b610286610371366004612bf3565b610b65565b6103116103843660046129a6565b610b84565b610286610c0b565b610286610cb9565b6102866103a7366004612b99565b610cc9565b600c546001600160a01b031661025b565b610286610e70565b61023b6103d3366004612b20565b610fd2565b61023b61114e565b6102866103ee366004612aa5565b61115d565b610286610401366004612b38565b611168565b610286610414366004612a2d565b611441565b6102866104273660046129a6565b611560565b61023b61043a366004612b20565b6115df565b61031161044d366004612bf3565b6116a9565b610286610460366004612bf3565b6116c6565b61021e6104733660046129c0565b6116e1565b6102866104863660046129a6565b61170f565b6102866104993660046129a6565b611720565b60006001600160e01b031982166380ac58cd60e01b14806104cf57506001600160e01b03198216635b5e139f60e01b145b806104ea57506301ffc9a760e01b6001600160e01b03198316145b92915050565b6060600080546104ff90613144565b80601f016020809104026020016040519081016040528092919081815260200182805461052b90613144565b80156105785780601f1061054d57610100808354040283529160200191610578565b820191906000526020600020905b81548152906001019060200180831161055b57829003601f168201915b5050505050905090565b600061058d826117b0565b6105f35760405162461bcd60e51b815260206004820152602c60248201527f4552433732313a20617070726f76656420717565727920666f72206e6f6e657860448201526b34b9ba32b73a103a37b5b2b760a11b60648201526084015b60405180910390fd5b506000908152600460205260409020546001600160a01b031690565b600061061a82610aee565b9050806001600160a01b0316836001600160a01b031614156106885760405162461bcd60e51b815260206004820152602160248201527f4552433732313a20617070726f76616c20746f2063757272656e74206f776e656044820152603960f91b60648201526084016105ea565b336001600160a01b03821614806106a457506106a481336116e1565b6107165760405162461bcd60e51b815260206004820152603860248201527f4552433732313a20617070726f76652063616c6c6572206973206e6f74206f7760448201527f6e6572206e6f7220617070726f76656420666f7220616c6c000000000000000060648201526084016105ea565b61072083836117cd565b505050565b6060610730826117b0565b6107725760405162461bcd60e51b81526020600482015260136024820152721119595908191bd95cc81b9bdd08195e1a5cdd606a1b60448201526064016105ea565b61077a61183b565b6107838361184a565b604051602001610794929190612cc7565b6040516020818303038152906040529050919050565b6107b261196b565b601980546001600160a01b0319166001600160a01b0392909216919091179055565b6107dc61196b565b6107e5816116a9565b60155550565b6000818152600f6020908152604080832054601083528184205460119093529220546001600160a01b039092169160ff909116906060906001600160401b0381111561084757634e487b7160e01b600052604160045260246000fd5b604051908082528060200260200182016040528015610870578160200160208202803683370190505b50905060005b6000858152601160205260409020548110156109025760008581526011602052604090208054829081106108ba57634e487b7160e01b600052603260045260246000fd5b90600052602060002001548282815181106108e557634e487b7160e01b600052603260045260246000fd5b6020908102919091010152806108fa81613179565b915050610876565b509193909250565b61091433826119be565b6109305760405162461bcd60e51b81526004016105ea90612f57565b610720838383611a87565b61094361196b565b61094b611c23565b565b600061095b60065460ff1690565b156109785760405162461bcd60e51b81526004016105ea90612f2d565b6000828152600f60205260409020546001600160a01b0316156109d65760405162461bcd60e51b81526020600482015260166024820152751d1a5d1b1948185b1c9958591e481d995c9a599a595960521b60448201526064016105ea565b60006109ec6015543063a92d326060e01b611cb6565b9050610a416040518060400160405280600381526020016219d95d60ea1b8152506018610a1886610fd2565b604051602001610a29929190612d06565b60408051601f19818403018152919052839190611cdb565b601454601654610a5c916001600160a01b0316908390611cf9565b6000818152600e602052604090205490925015610ab25760405162461bcd60e51b81526020600482015260146024820152731c995c5d595cdd08185b1c9958591e481cd95b9d60621b60448201526064016105ea565b506000818152600e602052604090209190915590565b61072083838360405180602001604052806000815250611441565b60006104ea826117b0565b6000818152600260205260408120546001600160a01b0316806104ea5760405162461bcd60e51b815260206004820152602960248201527f4552433732313a206f776e657220717565727920666f72206e6f6e657869737460448201526832b73a103a37b5b2b760b91b60648201526084016105ea565b610b6d61196b565b8051610b809060189060208401906127f6565b5050565b60006001600160a01b038216610bef5760405162461bcd60e51b815260206004820152602a60248201527f4552433732313a2062616c616e636520717565727920666f7220746865207a65604482015269726f206164647265737360b01b60648201526084016105ea565b506001600160a01b031660009081526003602052604090205490565b600d546001600160a01b03163314610c5e5760405162461bcd60e51b815260206004820152601660248201527526bab9ba10313290383937b837b9b2b21037bbb732b960511b60448201526064016105ea565b600c80546001600160a01b031980821633908117909355600d805490911690556040516001600160a01b03909116919082907f8be0079c531659141344cd1fd0a4f28419497f9722a3daafe3b4186f6b6457e090600090a350565b610cc161196b565b61094b611d8a565b60065460ff1615610cec5760405162461bcd60e51b81526004016105ea90612f2d565b6000828152600f602052604090205482906001600160a01b03163314610d545760405162461bcd60e51b815260206004820152601d60248201527f6d73672e73656e646572206973206e6f74207469746c65206f776e657200000060448201526064016105ea565b600083815260106020526040902054610d7190839060ff16611de2565b600084815260106020526040812080549294508492909190610d9790849060ff166130f5565b92506101000a81548160ff021916908360ff16021790555060005b8260ff16811015610e6a57601254610dca3382611dff565b6012805460018082019092557fbb8a6a4669ba250d26cd7a459eca9d215f8307e33aebe50379bc5a3617ec344401869055600086815260116020908152604080832080549485018155835291819020909201839055805187815291820183905233917fbdb24c7cfe050b0ab3bbd01b4a08f32542b455a89ea559cad19322f4413ec0de910160405180910390a25080610e6281613179565b915050610db2565b50505050565b610e7861196b565b6000610e8c6008546001600160a01b031690565b6040516370a0823160e01b81523060048201529091506001600160a01b0382169063a9059cbb90339083906370a082319060240160206040518083038186803b158015610ed857600080fd5b505afa158015610eec573d6000803e3d6000fd5b505050506040513d601f19601f82011682018060405250810190610f109190612c38565b6040516001600160e01b031960e085901b1681526001600160a01b0390921660048301526024820152604401602060405180830381600087803b158015610f5657600080fd5b505af1158015610f6a573d6000803e3d6000fd5b505050506040513d601f19601f82011682018060405250810190610f8e9190612b04565b610fcf5760405162461bcd60e51b81526020600482015260126024820152712ab730b13632903a37903a3930b739b332b960711b60448201526064016105ea565b50565b606060005b60208160ff161080156110195750828160ff166020811061100857634e487b7160e01b600052603260045260246000fd5b1a60f81b6001600160f81b03191615155b15611030578061102881613194565b915050610fd7565b60008160ff166001600160401b0381111561105b57634e487b7160e01b600052604160045260246000fd5b6040519080825280601f01601f191660200182016040528015611085576020820181803683370190505b509050600091505b60208260ff161080156110cf5750838260ff16602081106110be57634e487b7160e01b600052603260045260246000fd5b1a60f81b6001600160f81b03191615155b1561114757838260ff16602081106110f757634e487b7160e01b600052603260045260246000fd5b1a60f81b818360ff168151811061111e57634e487b7160e01b600052603260045260246000fd5b60200101906001600160f81b031916908160001a9053508161113f81613194565b92505061108d565b9392505050565b6060600180546104ff90613144565b610b80338383611e19565b60065460ff161561118b5760405162461bcd60e51b81526004016105ea90612f2d565b6000848152600b602052604090205484906001600160a01b031633146112045760405162461bcd60e51b815260206004820152602860248201527f536f75726365206d75737420626520746865206f7261636c65206f6620746865604482015267081c995c5d595cdd60c21b60648201526084016105ea565b6000818152600b602052604080822080546001600160a01b03191690555182917f7cc135e0cebb02c3480ae5d74d377283180a2601f8f644edf7987b009316c63a91a26000858152600e60209081526040808320805490849055808452600f909252909120546001600160a01b0316156112b95760405162461bcd60e51b81526020600482015260166024820152751d1a5d1b1948185b1c9958591e481d995c9a599a595960521b60448201526064016105ea565b60348460ff1611156113335760405162461bcd60e51b815260206004820152603a60248201527f44656564732063616e6e6f74206265206672616374696f6e616c697a6564206960448201527f6e746f206d6f7265207468616e203532206672616374696f6e7300000000000060648201526084016105ea565b82611371576040518181527f6d5dc5a890300459588342edd2ed87fbde40cc2f033b6f7e985cbaca45eb62399060200160405180910390a15061143a565b6000818152600f60209081526040808320805460608a901c6001600160a01b0319909116811790915560108352818420805460ff191660ff8a1617905581518481528084018084528686526011909452919093209051879287926113d79290919061287a565b506001600160a01b03831660009081526013602052604090819020805460ff19166001179055517f7902501974c6ed9fa074d8a846b5382531cdff9d755f2bc80acff802f0266c899061142d9086815260200190565b60405180910390a1505050505b5050505050565b60065460ff16156114645760405162461bcd60e51b81526004016105ea90612f2d565b6001600160a01b038316600090815260136020526040902054839060ff1615156001146114df5760405162461bcd60e51b8152602060048201526024808201527f41646472657373206d757374206265207665726966696564207468726f756768604482015263204b594360e01b60648201526084016105ea565b6019546001600160a01b031633146115545760405162461bcd60e51b815260206004820152603260248201527f46756e6374696f6e206973207265737472696374656420746f20746865206d616044820152711c9ad95d1c1b1858d94818dbdb9d1c9858dd60721b60648201526084016105ea565b61143a85858585611ee8565b61156861196b565b6001600160a01b0381166115be5760405162461bcd60e51b815260206004820152601b60248201527f57616c6c657420616464726573732063616e6e6f7420656d707479000000000060448201526064016105ea565b6001600160a01b03166000908152601360205260409020805460ff19169055565b60606115ea826117b0565b61164e5760405162461bcd60e51b815260206004820152602f60248201527f4552433732314d657461646174613a2055524920717565727920666f72206e6f60448201526e3732bc34b9ba32b73a103a37b5b2b760891b60648201526084016105ea565b600061165861183b565b905060008151116116785760405180602001604052806000815250611147565b806116828461184a565b604051602001611693929190612c98565b6040516020818303038152906040529392505050565b805160009082906116bd5750600092915050565b50506020015190565b6116ce61196b565b8051610b809060179060208401906127f6565b6001600160a01b03918216600090815260056020908152604080832093909416825291909152205460ff1690565b61171761196b565b610fcf81611f1a565b61172861196b565b6001600160a01b03811661178c5760405162461bcd60e51b815260206004820152602560248201527f57616c6c657420616464726573732063616e6e6f74206265207a65726f206164604482015264647265737360d81b60648201526084016105ea565b6001600160a01b03166000908152601360205260409020805460ff19166001179055565b6000908152600260205260409020546001600160a01b0316151590565b600081815260046020526040902080546001600160a01b0319166001600160a01b038416908117909155819061180282610aee565b6001600160a01b03167f8c5be1e5ebec7d5bd14f71427d1e84f3dd0314c0f7b2291e5b200ac8c7c3b92560405160405180910390a45050565b6060601780546104ff90613144565b60608161186e5750506040805180820190915260018152600360fc1b602082015290565b8160005b8115611898578061188281613179565b91506118919050600a83612fc0565b9150611872565b6000816001600160401b038111156118c057634e487b7160e01b600052604160045260246000fd5b6040519080825280601f01601f1916602001820160405280156118ea576020820181803683370190505b5090505b8415611963576118ff6001836130de565b915061190c600a866131b4565b611917906030612fa8565b60f81b81838151811061193a57634e487b7160e01b600052603260045260246000fd5b60200101906001600160f81b031916908160001a90535061195c600a86612fc0565b94506118ee565b949350505050565b600c546001600160a01b0316331461094b5760405162461bcd60e51b815260206004820152601660248201527527b7363c9031b0b63630b1363290313c9037bbb732b960511b60448201526064016105ea565b60006119c9826117b0565b611a2a5760405162461bcd60e51b815260206004820152602c60248201527f4552433732313a206f70657261746f7220717565727920666f72206e6f6e657860448201526b34b9ba32b73a103a37b5b2b760a11b60648201526084016105ea565b6000611a3583610aee565b9050806001600160a01b0316846001600160a01b03161480611a5c5750611a5c81856116e1565b806119635750836001600160a01b0316611a7584610582565b6001600160a01b031614949350505050565b826001600160a01b0316611a9a82610aee565b6001600160a01b031614611afe5760405162461bcd60e51b815260206004820152602560248201527f4552433732313a207472616e736665722066726f6d20696e636f72726563742060448201526437bbb732b960d91b60648201526084016105ea565b6001600160a01b038216611b605760405162461bcd60e51b8152602060048201526024808201527f4552433732313a207472616e7366657220746f20746865207a65726f206164646044820152637265737360e01b60648201526084016105ea565b611b6b6000826117cd565b6001600160a01b0383166000908152600360205260408120805460019290611b949084906130de565b90915550506001600160a01b0382166000908152600360205260408120805460019290611bc2908490612fa8565b909155505060008181526002602052604080822080546001600160a01b0319166001600160a01b0386811691821790925591518493918716917fddf252ad1be2c89b69c2b068fc378daa952ba7f163c4a11628f55a4df523b3ef91a4505050565b60065460ff16611c6c5760405162461bcd60e51b815260206004820152601460248201527314185d5cd8589b194e881b9bdd081c185d5cd95960621b60448201526064016105ea565b6006805460ff191690557f5db9ee0a495bf2e6ff9c91a7834c1ba4fdd244a5e8aa4e537bd38aeae4b073aa335b6040516001600160a01b03909116815260200160405180910390a1565b611cbe6128b4565b611cc66128b4565b611cd281868686611fc5565b95945050505050565b6080830151611cea9083612002565b60808301516107209082612002565b600a54600090611d0a816001612fa8565b600a5583516040808601516080870151519151600093633c6d41b960e01b93611d40938693849392899160029190602401612dea565b60408051601f198184030181529190526020810180516001600160e01b03166001600160e01b0319909316929092179091529050611d8086838684612019565b9695505050505050565b60065460ff1615611dad5760405162461bcd60e51b81526004016105ea90612f2d565b6006805460ff191660011790557f62e78cea01bee320cd4e420270b5ea74000d11b0c9f74754ebdbfc544b05a258611c993390565b60008160ff168360ff161015611df95750816104ea565b50919050565b610b80828260405180602001604052806000815250612186565b816001600160a01b0316836001600160a01b03161415611e7b5760405162461bcd60e51b815260206004820152601960248201527f4552433732313a20617070726f766520746f2063616c6c65720000000000000060448201526064016105ea565b6001600160a01b03838116600081815260056020908152604080832094871680845294825291829020805460ff191686151590811790915591519182527f17307eab39ab6107e8899845ad3d59bd9653f200f220920489ca2b5937696c31910160405180910390a3505050565b611ef233836119be565b611f0e5760405162461bcd60e51b81526004016105ea90612f57565b610e6a848484846121b9565b6001600160a01b038116331415611f735760405162461bcd60e51b815260206004820152601760248201527f43616e6e6f74207472616e7366657220746f2073656c6600000000000000000060448201526064016105ea565b600d80546001600160a01b0319166001600160a01b03838116918217909255600c54604051919216907fed8889f560326eb138920d842192f0eb3dd22b4f139c87a2c57538e05bae127890600090a350565b611fcd6128b4565b611fdd85608001516101006121ec565b50509183526001600160a01b031660208301526001600160e01b031916604082015290565b61200f8260038351612251565b6107208282612358565b6040516bffffffffffffffffffffffff193060601b1660208201526034810184905260009060540160408051808303601f1901815282825280516020918201206000818152600b90925291812080546001600160a01b0319166001600160a01b038a1617905590925082917fb5e6e01e79f91267dc17b4e6314d5d4d03593d2ceee0fbb452b750bd70ea5af99190a2600854604051630200057560e51b81526001600160a01b0390911690634000aea0906120dc90889087908790600401612e3f565b602060405180830381600087803b1580156120f657600080fd5b505af115801561210a573d6000803e3d6000fd5b505050506040513d601f19601f8201168201806040525081019061212e9190612b04565b6119635760405162461bcd60e51b815260206004820152602360248201527f756e61626c6520746f207472616e73666572416e6443616c6c20746f206f7261604482015262636c6560e81b60648201526084016105ea565b612190838361237f565b61219d60008484846124b2565b6107205760405162461bcd60e51b81526004016105ea90612edb565b6121c4848484611a87565b6121d0848484846124b2565b610e6a5760405162461bcd60e51b81526004016105ea90612edb565b60408051808201909152606081526000602082015261220c6020836131b4565b156122345761221c6020836131b4565b6122279060206130de565b6122319083612fa8565b91505b506020828101829052604080518085526000815290920101905290565b6017816001600160401b03161161227557610e6a8360e0600585901b1683176125bc565b60ff816001600160401b0316116122b15761229b836018611fe0600586901b16176125bc565b50610e6a836001600160401b03831660016125e1565b61ffff816001600160401b0316116122ee576122d8836019611fe0600586901b16176125bc565b50610e6a836001600160401b03831660026125e1565b63ffffffff816001600160401b03161161232d5761231783601a611fe0600586901b16176125bc565b50610e6a836001600160401b03831660046125e1565b61234283601b611fe0600586901b16176125bc565b50610e6a836001600160401b03831660086125e1565b60408051808201909152606081526000602082015261114783846000015151848551612607565b6001600160a01b0382166123d55760405162461bcd60e51b815260206004820181905260248201527f4552433732313a206d696e7420746f20746865207a65726f206164647265737360448201526064016105ea565b6123de816117b0565b1561242b5760405162461bcd60e51b815260206004820152601c60248201527f4552433732313a20746f6b656e20616c7265616479206d696e7465640000000060448201526064016105ea565b6001600160a01b0382166000908152600360205260408120805460019290612454908490612fa8565b909155505060008181526002602052604080822080546001600160a01b0319166001600160a01b03861690811790915590518392907fddf252ad1be2c89b69c2b068fc378daa952ba7f163c4a11628f55a4df523b3ef908290a45050565b60006001600160a01b0384163b156125b457604051630a85bd0160e11b81526001600160a01b0385169063150b7a02906124f6903390899088908890600401612db7565b602060405180830381600087803b15801561251057600080fd5b505af1925050508015612540575060408051601f3d908101601f1916820190925261253d91810190612bd7565b60015b61259a573d80801561256e576040519150601f19603f3d011682016040523d82523d6000602084013e612573565b606091505b5080516125925760405162461bcd60e51b81526004016105ea90612edb565b805181602001fd5b6001600160e01b031916630a85bd0160e11b149050611963565b506001611963565b60408051808201909152606081526000602082015261114783846000015151846126f1565b60408051808201909152606081526000602082015261196384856000015151858561274d565b604080518082019091526060815260006020820152825182111561262a57600080fd5b60208501516126398386612fa8565b111561266c5761266c8561265c876020015187866126579190612fa8565b6127ce565b6126679060026130bf565b6127df565b60008086518051876020830101935080888701111561268b5787860182525b505050602084015b602084106126cb57805182526126aa602083612fa8565b91506126b7602082612fa8565b90506126c46020856130de565b9350612693565b51815160001960208690036101000a019081169019919091161790525083949350505050565b6040805180820190915260608152600060208201528360200151831061272657612726848560200151600261266791906130bf565b835180516020858301018481535080851415612743576001810182525b5093949350505050565b60408051808201909152606081526000602082015260208501516127718584612fa8565b1115612785576127858561265c8685612fa8565b6000600161279584610100613017565b61279f91906130de565b90508551838682010185831982511617815250805184870111156127c35783860181525b509495945050505050565b600081831115611df95750816104ea565b81516127eb83836121ec565b50610e6a8382612358565b82805461280290613144565b90600052602060002090601f016020900481019282612824576000855561286a565b82601f1061283d57805160ff191683800117855561286a565b8280016001018555821561286a579182015b8281111561286a57825182559160200191906001019061284f565b506128769291506128ef565b5090565b82805482825590600052602060002090810192821561286a579160200282018281111561286a57825182559160200191906001019061284f565b6040805160a0810182526000808252602080830182905282840182905260608084018390528451808601909552845283015290608082015290565b5b8082111561287657600081556001016128f0565b60006001600160401b038084111561291e5761291e6131f4565b604051601f8501601f19908116603f01168101908282118183101715612946576129466131f4565b8160405280935085815286868601111561295f57600080fd5b858560208301376000602087830101525050509392505050565b80356001600160a01b038116811461299057600080fd5b919050565b803560ff8116811461299057600080fd5b6000602082840312156129b7578081fd5b61114782612979565b600080604083850312156129d2578081fd5b6129db83612979565b91506129e960208401612979565b90509250929050565b600080600060608486031215612a06578081fd5b612a0f84612979565b9250612a1d60208501612979565b9150604084013590509250925092565b60008060008060808587031215612a42578081fd5b612a4b85612979565b9350612a5960208601612979565b92506040850135915060608501356001600160401b03811115612a7a578182fd5b8501601f81018713612a8a578182fd5b612a9987823560208401612904565b91505092959194509250565b60008060408385031215612ab7578182fd5b612ac083612979565b91506020830135612ad08161320a565b809150509250929050565b60008060408385031215612aed578182fd5b612af683612979565b946020939093013593505050565b600060208284031215612b15578081fd5b81516111478161320a565b600060208284031215612b31578081fd5b5035919050565b60008060008060808587031215612b4d578384fd5b8435935060208501356bffffffffffffffffffffffff1981168114612b70578384fd5b9250612b7e60408601612995565b91506060850135612b8e8161320a565b939692955090935050565b60008060408385031215612bab578182fd5b823591506129e960208401612995565b600060208284031215612bcc578081fd5b813561114781613218565b600060208284031215612be8578081fd5b815161114781613218565b600060208284031215612c04578081fd5b81356001600160401b03811115612c19578182fd5b8201601f81018413612c29578182fd5b61196384823560208401612904565b600060208284031215612c49578081fd5b5051919050565b60008151808452612c68816020860160208601613118565b601f01601f19169290920160200192915050565b60008151612c8e818560208601613118565b9290920192915050565b60008351612caa818460208801613118565b835190830190612cbe818360208801613118565b01949350505050565b60008351612cd9818460208801613118565b835190830190612ced818360208801613118565b64173539b7b760d91b9101908152600501949350505050565b600080845482600182811c915080831680612d2257607f831692505b6020808410821415612d4257634e487b7160e01b87526022600452602487fd5b818015612d565760018114612d6757612d93565b60ff19861689528489019650612d93565b60008b815260209020885b86811015612d8b5781548b820152908501908301612d72565b505084890196505b505050505050611cd2612da68286612c7c565b64173539b7b760d91b815260050190565b6001600160a01b0385811682528416602082015260408101839052608060608201819052600090611d8090830184612c50565b60018060a01b038816815286602082015285604082015263ffffffff60e01b851660608201528360808201528260a082015260e060c08201526000612e3260e0830184612c50565b9998505050505050505050565b60018060a01b0384168152826020820152606060408201526000611cd26060830184612c50565b6001600160a01b038416815260ff83166020808301919091526060604083018190528351908301819052600091848101916080850190845b81811015612eba57845183529383019391830191600101612e9e565b509098975050505050505050565b6020815260006111476020830184612c50565b60208082526032908201527f4552433732313a207472616e7366657220746f206e6f6e20455243373231526560408201527131b2b4bb32b91034b6b83632b6b2b73a32b960711b606082015260800190565b60208082526010908201526f14185d5cd8589b194e881c185d5cd95960821b604082015260600190565b60208082526031908201527f4552433732313a207472616e736665722063616c6c6572206973206e6f74206f6040820152701ddb995c881b9bdc88185c1c1c9bdd9959607a1b606082015260800190565b60008219821115612fbb57612fbb6131c8565b500190565b600082612fcf57612fcf6131de565b500490565b600181815b8085111561300f578160001904821115612ff557612ff56131c8565b8085161561300257918102915b93841c9390800290612fd9565b509250929050565b6000611147838360008261302d575060016104ea565b8161303a575060006104ea565b8160018114613050576002811461305a57613076565b60019150506104ea565b60ff84111561306b5761306b6131c8565b50506001821b6104ea565b5060208310610133831016604e8410600b8410161715613099575081810a6104ea565b6130a38383612fd4565b80600019048211156130b7576130b76131c8565b029392505050565b60008160001904831182151516156130d9576130d96131c8565b500290565b6000828210156130f0576130f06131c8565b500390565b600060ff821660ff84168082101561310f5761310f6131c8565b90039392505050565b60005b8381101561313357818101518382015260200161311b565b83811115610e6a5750506000910152565b600181811c9082168061315857607f821691505b60208210811415611df957634e487b7160e01b600052602260045260246000fd5b600060001982141561318d5761318d6131c8565b5060010190565b600060ff821660ff8114156131ab576131ab6131c8565b60010192915050565b6000826131c3576131c36131de565b500690565b634e487b7160e01b600052601160045260246000fd5b634e487b7160e01b600052601260045260246000fd5b634e487b7160e01b600052604160045260246000fd5b8015158114610fcf57600080fd5b6001600160e01b031981168114610fcf57600080fdfea2646970667358221220e6018538a28f297a406cb03bd956bd446be1160020001b624c1afbb2eb15d53d64736f6c63430008040033",
  "linkReferences": {},
  "deployedLinkReferences": {}
}