{
  "_format": "hh-sol-artifact-1",
  "contractName": "Collection",
  "sourceName": "contracts/Collection.sol",
  "abi": [
    {
      "inputs": [
        {
          "internalType": "address",
          "name": "oracle",
          "type": "address"
        },
        {
          "internalType": "address",
          "name": "chainlinkToken",
          "type": "address"
        },
        {
          "internalType": "string",
          "name": "titleSearchUri_",
          "type": "string"
        },
        {
          "internalType": "uint256",
          "name": "fee_",
          "type": "uint256"
        }
      ],
      "stateMutability": "nonpayable",
      "type": "constructor"
    },
    {
      "anonymous": false,
      "inputs": [
        {
          "indexed": true,
          "internalType": "address",
          "name": "owner",
          "type": "address"
        },
        {
          "indexed": true,
          "internalType": "address",
          "name": "approved",
          "type": "address"
        },
        {
          "indexed": true,
          "internalType": "uint256",
          "name": "tokenId",
          "type": "uint256"
        }
      ],
      "name": "Approval",
      "type": "event"
    },
    {
      "anonymous": false,
      "inputs": [
        {
          "indexed": true,
          "internalType": "address",
          "name": "owner",
          "type": "address"
        },
        {
          "indexed": true,
          "internalType": "address",
          "name": "operator",
          "type": "address"
        },
        {
          "indexed": false,
          "internalType": "bool",
          "name": "approved",
          "type": "bool"
        }
      ],
      "name": "ApprovalForAll",
      "type": "event"
    },
    {
      "anonymous": false,
      "inputs": [
        {
          "indexed": true,
          "internalType": "bytes32",
          "name": "id",
          "type": "bytes32"
        }
      ],
      "name": "ChainlinkCancelled",
      "type": "event"
    },
    {
      "anonymous": false,
      "inputs": [
        {
          "indexed": true,
          "internalType": "bytes32",
          "name": "id",
          "type": "bytes32"
        }
      ],
      "name": "ChainlinkFulfilled",
      "type": "event"
    },
    {
      "anonymous": false,
      "inputs": [
        {
          "indexed": true,
          "internalType": "bytes32",
          "name": "id",
          "type": "bytes32"
        }
      ],
      "name": "ChainlinkRequested",
      "type": "event"
    },
    {
      "anonymous": false,
      "inputs": [
        {
          "indexed": true,
          "internalType": "address",
          "name": "titleOwner",
          "type": "address"
        },
        {
          "indexed": false,
          "internalType": "bytes32",
          "name": "titleId",
          "type": "bytes32"
        },
        {
          "indexed": false,
          "internalType": "uint256",
          "name": "deedId",
          "type": "uint256"
        }
      ],
      "name": "DeedMinted",
      "type": "event"
    },
    {
      "anonymous": false,
      "inputs": [
        {
          "indexed": true,
          "internalType": "address",
          "name": "from",
          "type": "address"
        },
        {
          "indexed": true,
          "internalType": "address",
          "name": "to",
          "type": "address"
        }
      ],
      "name": "OwnershipTransferRequested",
      "type": "event"
    },
    {
      "anonymous": false,
      "inputs": [
        {
          "indexed": true,
          "internalType": "address",
          "name": "from",
          "type": "address"
        },
        {
          "indexed": true,
          "internalType": "address",
          "name": "to",
          "type": "address"
        }
      ],
      "name": "OwnershipTransferred",
      "type": "event"
    },
    {
      "anonymous": false,
      "inputs": [
        {
          "indexed": false,
          "internalType": "address",
          "name": "account",
          "type": "address"
        }
      ],
      "name": "Paused",
      "type": "event"
    },
    {
      "anonymous": false,
      "inputs": [
        {
          "indexed": false,
          "internalType": "bytes32",
          "name": "titleId",
          "type": "bytes32"
        }
      ],
      "name": "TitleRejected",
      "type": "event"
    },
    {
      "anonymous": false,
      "inputs": [
        {
          "indexed": false,
          "internalType": "bytes32",
          "name": "titleId",
          "type": "bytes32"
        }
      ],
      "name": "TitleVerified",
      "type": "event"
    },
    {
      "anonymous": false,
      "inputs": [
        {
          "indexed": true,
          "internalType": "address",
          "name": "from",
          "type": "address"
        },
        {
          "indexed": true,
          "internalType": "address",
          "name": "to",
          "type": "address"
        },
        {
          "indexed": true,
          "internalType": "uint256",
          "name": "tokenId",
          "type": "uint256"
        }
      ],
      "name": "Transfer",
      "type": "event"
    },
    {
      "anonymous": false,
      "inputs": [
        {
          "indexed": false,
          "internalType": "address",
          "name": "account",
          "type": "address"
        }
      ],
      "name": "Unpaused",
      "type": "event"
    },
    {
      "inputs": [],
      "name": "acceptOwnership",
      "outputs": [],
      "stateMutability": "nonpayable",
      "type": "function"
    },
    {
      "inputs": [
        {
          "internalType": "address",
          "name": "to",
          "type": "address"
        },
        {
          "internalType": "uint256",
          "name": "tokenId",
          "type": "uint256"
        }
      ],
      "name": "approve",
      "outputs": [],
      "stateMutability": "nonpayable",
      "type": "function"
    },
    {
      "inputs": [
        {
          "internalType": "address",
          "name": "_wallet",
          "type": "address"
        }
      ],
      "name": "authorizeWallet",
      "outputs": [],
      "stateMutability": "nonpayable",
      "type": "function"
    },
    {
      "inputs": [
        {
          "internalType": "address",
          "name": "owner",
          "type": "address"
        }
      ],
      "name": "balanceOf",
      "outputs": [
        {
          "internalType": "uint256",
          "name": "",
          "type": "uint256"
        }
      ],
      "stateMutability": "view",
      "type": "function"
    },
    {
      "inputs": [
        {
          "internalType": "address",
          "name": "_wallet",
          "type": "address"
        }
      ],
      "name": "deauthorizeWallet",
      "outputs": [],
      "stateMutability": "nonpayable",
      "type": "function"
    },
    {
      "inputs": [
        {
          "internalType": "bytes32",
          "name": "response",
          "type": "bytes32"
        }
      ],
      "name": "decodeTitleVerificationResponse",
      "outputs": [
        {
          "internalType": "address",
          "name": "owner",
          "type": "address"
        },
        {
          "internalType": "uint8",
          "name": "fractionalization",
          "type": "uint8"
        }
      ],
      "stateMutability": "pure",
      "type": "function"
    },
    {
      "inputs": [
        {
          "internalType": "address",
          "name": "owner",
          "type": "address"
        },
        {
          "internalType": "uint8",
          "name": "fractionalization",
          "type": "uint8"
        }
      ],
      "name": "encodeTitleVerificationResponse",
      "outputs": [
        {
          "internalType": "bytes32",
          "name": "response",
          "type": "bytes32"
        }
      ],
      "stateMutability": "pure",
      "type": "function"
    },
    {
      "inputs": [
        {
          "internalType": "uint256",
          "name": "deedId",
          "type": "uint256"
        }
      ],
      "name": "exists",
      "outputs": [
        {
          "internalType": "bool",
          "name": "",
          "type": "bool"
        }
      ],
      "stateMutability": "view",
      "type": "function"
    },
    {
      "inputs": [
        {
          "internalType": "bytes32",
          "name": "requestId",
          "type": "bytes32"
        },
        {
          "internalType": "bytes32",
          "name": "response",
          "type": "bytes32"
        }
      ],
      "name": "fulfillTitleOwnershipVerification",
      "outputs": [],
      "stateMutability": "nonpayable",
      "type": "function"
    },
    {
      "inputs": [
        {
          "internalType": "uint256",
          "name": "tokenId",
          "type": "uint256"
        }
      ],
      "name": "getApproved",
      "outputs": [
        {
          "internalType": "address",
          "name": "",
          "type": "address"
        }
      ],
      "stateMutability": "view",
      "type": "function"
    },
    {
      "inputs": [
        {
          "internalType": "bytes32",
          "name": "titleId",
          "type": "bytes32"
        }
      ],
      "name": "getTitle",
      "outputs": [
        {
          "internalType": "address",
          "name": "owner",
          "type": "address"
        },
        {
          "internalType": "uint8",
          "name": "deedsLeftToMint_",
          "type": "uint8"
        },
        {
          "internalType": "uint256[]",
          "name": "deeds",
          "type": "uint256[]"
        }
      ],
      "stateMutability": "view",
      "type": "function"
    },
    {
      "inputs": [
        {
          "internalType": "address",
          "name": "owner",
          "type": "address"
        },
        {
          "internalType": "address",
          "name": "operator",
          "type": "address"
        }
      ],
      "name": "isApprovedForAll",
      "outputs": [
        {
          "internalType": "bool",
          "name": "",
          "type": "bool"
        }
      ],
      "stateMutability": "view",
      "type": "function"
    },
    {
      "inputs": [
        {
          "internalType": "bytes32",
          "name": "titleId",
          "type": "bytes32"
        },
        {
          "internalType": "uint8",
          "name": "howMany",
          "type": "uint8"
        }
      ],
      "name": "mintDeeds",
      "outputs": [],
      "stateMutability": "nonpayable",
      "type": "function"
    },
    {
      "inputs": [],
      "name": "name",
      "outputs": [
        {
          "internalType": "string",
          "name": "",
          "type": "string"
        }
      ],
      "stateMutability": "view",
      "type": "function"
    },
    {
      "inputs": [],
      "name": "owner",
      "outputs": [
        {
          "internalType": "address",
          "name": "",
          "type": "address"
        }
      ],
      "stateMutability": "view",
      "type": "function"
    },
    {
      "inputs": [
        {
          "internalType": "uint256",
          "name": "tokenId",
          "type": "uint256"
        }
      ],
      "name": "ownerOf",
      "outputs": [
        {
          "internalType": "address",
          "name": "",
          "type": "address"
        }
      ],
      "stateMutability": "view",
      "type": "function"
    },
    {
      "inputs": [],
      "name": "pause",
      "outputs": [],
      "stateMutability": "nonpayable",
      "type": "function"
    },
    {
      "inputs": [],
      "name": "paused",
      "outputs": [
        {
          "internalType": "bool",
          "name": "",
          "type": "bool"
        }
      ],
      "stateMutability": "view",
      "type": "function"
    },
    {
      "inputs": [
        {
          "internalType": "address",
          "name": "from",
          "type": "address"
        },
        {
          "internalType": "address",
          "name": "to",
          "type": "address"
        },
        {
          "internalType": "uint256",
          "name": "tokenId",
          "type": "uint256"
        }
      ],
      "name": "safeTransferFrom",
      "outputs": [],
      "stateMutability": "nonpayable",
      "type": "function"
    },
    {
      "inputs": [
        {
          "internalType": "address",
          "name": "from",
          "type": "address"
        },
        {
          "internalType": "address",
          "name": "to",
          "type": "address"
        },
        {
          "internalType": "uint256",
          "name": "deedId",
          "type": "uint256"
        },
        {
          "internalType": "bytes",
          "name": "data",
          "type": "bytes"
        }
      ],
      "name": "safeTransferFrom",
      "outputs": [],
      "stateMutability": "nonpayable",
      "type": "function"
    },
    {
      "inputs": [
        {
          "internalType": "address",
          "name": "operator",
          "type": "address"
        },
        {
          "internalType": "bool",
          "name": "approved",
          "type": "bool"
        }
      ],
      "name": "setApprovalForAll",
      "outputs": [],
      "stateMutability": "nonpayable",
      "type": "function"
    },
    {
      "inputs": [
        {
          "internalType": "address",
          "name": "newMarketplaceContract",
          "type": "address"
        }
      ],
      "name": "setMarketplaceContract",
      "outputs": [],
      "stateMutability": "nonpayable",
      "type": "function"
    },
    {
      "inputs": [
        {
          "internalType": "string",
          "name": "newURI",
          "type": "string"
        }
      ],
      "name": "setTitleSearchURI",
      "outputs": [],
      "stateMutability": "nonpayable",
      "type": "function"
    },
    {
      "inputs": [
        {
          "internalType": "string",
          "name": "newURI",
          "type": "string"
        }
      ],
      "name": "setTokenURI",
      "outputs": [],
      "stateMutability": "nonpayable",
      "type": "function"
    },
    {
      "inputs": [
        {
          "internalType": "bytes4",
          "name": "interfaceId",
          "type": "bytes4"
        }
      ],
      "name": "supportsInterface",
      "outputs": [
        {
          "internalType": "bool",
          "name": "",
          "type": "bool"
        }
      ],
      "stateMutability": "view",
      "type": "function"
    },
    {
      "inputs": [],
      "name": "symbol",
      "outputs": [
        {
          "internalType": "string",
          "name": "",
          "type": "string"
        }
      ],
      "stateMutability": "view",
      "type": "function"
    },
    {
      "inputs": [
        {
          "internalType": "uint256",
          "name": "tokenId",
          "type": "uint256"
        }
      ],
      "name": "tokenURI",
      "outputs": [
        {
          "internalType": "string",
          "name": "",
          "type": "string"
        }
      ],
      "stateMutability": "view",
      "type": "function"
    },
    {
      "inputs": [
        {
          "internalType": "address",
          "name": "from",
          "type": "address"
        },
        {
          "internalType": "address",
          "name": "to",
          "type": "address"
        },
        {
          "internalType": "uint256",
          "name": "tokenId",
          "type": "uint256"
        }
      ],
      "name": "transferFrom",
      "outputs": [],
      "stateMutability": "nonpayable",
      "type": "function"
    },
    {
      "inputs": [
        {
          "internalType": "address",
          "name": "to",
          "type": "address"
        }
      ],
      "name": "transferOwnership",
      "outputs": [],
      "stateMutability": "nonpayable",
      "type": "function"
    },
    {
      "inputs": [],
      "name": "unpause",
      "outputs": [],
      "stateMutability": "nonpayable",
      "type": "function"
    },
    {
      "inputs": [
        {
          "internalType": "uint256",
          "name": "deedId",
          "type": "uint256"
        }
      ],
      "name": "uri",
      "outputs": [
        {
          "internalType": "string",
          "name": "",
          "type": "string"
        }
      ],
      "stateMutability": "view",
      "type": "function"
    },
    {
      "inputs": [
        {
          "internalType": "bytes32",
          "name": "titleId",
          "type": "bytes32"
        }
      ],
      "name": "verifyTitleOwnership",
      "outputs": [
        {
          "internalType": "bytes32",
          "name": "requestId",
          "type": "bytes32"
        }
      ],
      "stateMutability": "nonpayable",
      "type": "function"
    },
    {
      "inputs": [],
      "name": "withdrawLink",
      "outputs": [],
      "stateMutability": "nonpayable",
      "type": "function"
    }
  ],
  "bytecode": "0x60806040526001600a553480156200001657600080fd5b5060405162003591380380620035918339810160408190526200003991620003f8565b604080518082018252600a8152694e6f6d6164486f75736560b01b60208083019182528351808501909452600384526209c9a960eb1b9084015281513393849360009390926200008b91859162000335565b508051620000a190600190602084019062000335565b50506006805460ff19169055506001600160a01b0382166200010a5760405162461bcd60e51b815260206004820152601860248201527f43616e6e6f7420736574206f776e657220746f207a65726f000000000000000060448201526064015b60405180910390fd5b600c80546001600160a01b0319166001600160a01b03848116919091179091558116156200013d576200013d81620001cb565b50505062000151846200027860201b60201c565b600880546001600160a01b0319166001600160a01b03851617905581516200018190601790602085019062000335565b507f36376263303465346462333234373362623561383933363734663765363334326014556015819055601280546001018155600052620001c16200029a565b505050506200054f565b6001600160a01b038116331415620002265760405162461bcd60e51b815260206004820152601760248201527f43616e6e6f74207472616e7366657220746f2073656c66000000000000000000604482015260640162000101565b600d80546001600160a01b0319166001600160a01b03838116918217909255600c54604051919216907fed8889f560326eb138920d842192f0eb3dd22b4f139c87a2c57538e05bae127890600090a350565b600980546001600160a01b0319166001600160a01b0392909216919091179055565b60065460ff1615620002e25760405162461bcd60e51b815260206004820152601060248201526f14185d5cd8589b194e881c185d5cd95960821b604482015260640162000101565b6006805460ff191660011790557f62e78cea01bee320cd4e420270b5ea74000d11b0c9f74754ebdbfc544b05a258620003183390565b6040516001600160a01b03909116815260200160405180910390a1565b8280546200034390620004fc565b90600052602060002090601f016020900481019282620003675760008555620003b2565b82601f106200038257805160ff1916838001178555620003b2565b82800160010185558215620003b2579182015b82811115620003b257825182559160200191906001019062000395565b50620003c0929150620003c4565b5090565b5b80821115620003c05760008155600101620003c5565b80516001600160a01b0381168114620003f357600080fd5b919050565b600080600080608085870312156200040e578384fd5b6200041985620003db565b935060206200042a818701620003db565b60408701519094506001600160401b038082111562000447578485fd5b818801915088601f8301126200045b578485fd5b81518181111562000470576200047062000539565b604051601f8201601f19908116603f011681019083821181831017156200049b576200049b62000539565b816040528281528b86848701011115620004b3578788fd5b8793505b82841015620004d65784840186015181850187015292850192620004b7565b82841115620004e757878684830101525b60609a909a0151989b979a5050505050505050565b600181811c908216806200051157607f821691505b602082108114156200053357634e487b7160e01b600052602260045260246000fd5b50919050565b634e487b7160e01b600052604160045260246000fd5b613032806200055f6000396000f3fe608060405234801561001057600080fd5b50600436106101fb5760003560e01c80636b0275361161011a578063a22cb465116100ad578063c87b56dd1161007c578063c87b56dd1461046f578063e0df5b6f14610482578063e985e9c514610495578063f2fde38b146104a8578063fbeaa8b1146104bb57600080fd5b8063a22cb46514610403578063b88d4fde14610416578063bdcf3db914610429578063c329d0f51461043c57600080fd5b80638a2a8e30116100e95780638a2a8e30146103cf5780638da5cb5b146103e25780638dc654a2146103f357806395d89b41146103fb57600080fd5b80636b0275361461039957806370a08231146103ac57806379ba5097146103bf5780638456cb59146103c757600080fd5b80631b9bb9581161019257806342842e0e1161016157806342842e0e146103555780634f558e79146103685780635c975abb1461037b5780636352211e1461038657600080fd5b80631b9bb958146102d857806323b872dd146103195780633f4ba83a1461032c578063420fd2651461033457600080fd5b80630e89341c116101ce5780630e89341c1461027d5780631102610e146102905780631716a44a146102a35780631a3e91b9146102b657600080fd5b806301ffc9a71461020057806306fdde0314610228578063081812fc1461023d578063095ea7b314610268575b600080fd5b61021361020e3660046129ad565b6104ce565b60405190151581526020015b60405180910390f35b610230610520565b60405161021f9190612cb6565b61025061024b366004612952565b6105b2565b6040516001600160a01b03909116815260200161021f565b61027b6102763660046128e4565b61063f565b005b61023061028b366004612952565b610755565b61027b61029e3660046127af565b6107da565b61027b6102b136600461296a565b610804565b6102c96102c4366004612952565b610a59565b60405161021f93929190612c54565b6102f86102e6366004612952565b606081901c9160589190911c60ff1690565b604080516001600160a01b03909316835260ff90911660208301520161021f565b61027b6103273660046127fb565b610b78565b61027b610ba9565b610347610342366004612952565b610bbb565b60405190815260200161021f565b61027b6103633660046127fb565b610d1f565b610213610376366004612952565b610d3a565b60065460ff16610213565b610250610394366004612952565b610d45565b61027b6103a73660046129e5565b610dbc565b6103476103ba3660046127af565b610ddb565b61027b610e62565b61027b610f10565b61027b6103dd36600461298b565b610f20565b600c546001600160a01b0316610250565b61027b6110c7565b610230611229565b61027b6104113660046128ae565b611238565b61027b610424366004612836565b611243565b61027b6104373660046127af565b611369565b61034761044a36600461290d565b60609190911b6bffffffffffffffffffffffff191660589190911b60ff60581b161790565b61023061047d366004612952565b6113e8565b61027b6104903660046129e5565b6114b3565b6102136104a33660046127c9565b6114ce565b61027b6104b63660046127af565b6114fc565b61027b6104c93660046127af565b61150d565b60006001600160e01b031982166380ac58cd60e01b14806104ff57506001600160e01b03198216635b5e139f60e01b145b8061051a57506301ffc9a760e01b6001600160e01b03198316145b92915050565b60606000805461052f90612f32565b80601f016020809104026020016040519081016040528092919081815260200182805461055b90612f32565b80156105a85780601f1061057d576101008083540402835291602001916105a8565b820191906000526020600020905b81548152906001019060200180831161058b57829003601f168201915b5050505050905090565b60006105bd8261159d565b6106235760405162461bcd60e51b815260206004820152602c60248201527f4552433732313a20617070726f76656420717565727920666f72206e6f6e657860448201526b34b9ba32b73a103a37b5b2b760a11b60648201526084015b60405180910390fd5b506000908152600460205260409020546001600160a01b031690565b600061064a82610d45565b9050806001600160a01b0316836001600160a01b031614156106b85760405162461bcd60e51b815260206004820152602160248201527f4552433732313a20617070726f76616c20746f2063757272656e74206f776e656044820152603960f91b606482015260840161061a565b336001600160a01b03821614806106d457506106d481336114ce565b6107465760405162461bcd60e51b815260206004820152603860248201527f4552433732313a20617070726f76652063616c6c6572206973206e6f74206f7760448201527f6e6572206e6f7220617070726f76656420666f7220616c6c0000000000000000606482015260840161061a565b61075083836115ba565b505050565b60606107608261159d565b6107a25760405162461bcd60e51b81526020600482015260136024820152721119595908191bd95cc81b9bdd08195e1a5cdd606a1b604482015260640161061a565b6107aa611628565b6107b383611637565b6040516020016107c4929190612a9d565b6040516020818303038152906040529050919050565b6107e2611758565b601880546001600160a01b0319166001600160a01b0392909216919091179055565b60065460ff16156108275760405162461bcd60e51b815260040161061a90612d1b565b6000828152600b602052604090205482906001600160a01b031633146108a05760405162461bcd60e51b815260206004820152602860248201527f536f75726365206d75737420626520746865206f7261636c65206f6620746865604482015267081c995c5d595cdd60c21b606482015260840161061a565b6000818152600b602052604080822080546001600160a01b03191690555182917f7cc135e0cebb02c3480ae5d74d377283180a2601f8f644edf7987b009316c63a91a26000838152600e60209081526040808320805490849055808452600f909252909120546001600160a01b0316156109555760405162461bcd60e51b81526020600482015260166024820152751d1a5d1b1948185b1c9958591e481d995c9a599a595960521b604482015260640161061a565b606083901c60ff605885901c16816109a3576040518381527f6d5dc5a890300459588342edd2ed87fbde40cc2f033b6f7e985cbaca45eb6239906020015b60405180910390a1505050505050565b6000838152600f6020908152604080832080546001600160a01b0319166001600160a01b03871617905560108252808320805460ff191660ff86161790558051838152808301808352878552601190935292209151610a039291906125ff565b506001600160a01b03821660009081526013602052604090819020805460ff19166001179055517f7902501974c6ed9fa074d8a846b5382531cdff9d755f2bc80acff802f0266c89906109939085815260200190565b6000818152600f6020908152604080832054601083528184205460119093529220546001600160a01b039092169160ff909116906060906001600160401b03811115610ab557634e487b7160e01b600052604160045260246000fd5b604051908082528060200260200182016040528015610ade578160200160208202803683370190505b50905060005b600085815260116020526040902054811015610b70576000858152601160205260409020805482908110610b2857634e487b7160e01b600052603260045260246000fd5b9060005260206000200154828281518110610b5357634e487b7160e01b600052603260045260246000fd5b602090810291909101015280610b6881612f67565b915050610ae4565b509193909250565b610b8233826117ab565b610b9e5760405162461bcd60e51b815260040161061a90612d45565b610750838383611874565b610bb1611758565b610bb9611a10565b565b6000610bc960065460ff1690565b15610be65760405162461bcd60e51b815260040161061a90612d1b565b6000828152600f60205260409020546001600160a01b031615610c445760405162461bcd60e51b81526020600482015260166024820152751d1a5d1b1948185b1c9958591e481d995c9a599a595960521b604482015260640161061a565b6000610c5a60145430631716a44a60e01b611aa3565b9050610ca76040518060400160405280600381526020016219d95d60ea1b815250601785604051602001610c8f929190612adc565b60408051601f19818403018152919052839190611ac8565b610cb381601554611ae6565b6000848152600e602052604090205490925015610d095760405162461bcd60e51b81526020600482015260146024820152731c995c5d595cdd08185b1c9958591e481cd95b9d60621b604482015260640161061a565b506000818152600e602052604090209190915590565b61075083838360405180602001604052806000815250611243565b600061051a8261159d565b6000818152600260205260408120546001600160a01b03168061051a5760405162461bcd60e51b815260206004820152602960248201527f4552433732313a206f776e657220717565727920666f72206e6f6e657869737460448201526832b73a103a37b5b2b760b91b606482015260840161061a565b610dc4611758565b8051610dd790601790602084019061264a565b5050565b60006001600160a01b038216610e465760405162461bcd60e51b815260206004820152602a60248201527f4552433732313a2062616c616e636520717565727920666f7220746865207a65604482015269726f206164647265737360b01b606482015260840161061a565b506001600160a01b031660009081526003602052604090205490565b600d546001600160a01b03163314610eb55760405162461bcd60e51b815260206004820152601660248201527526bab9ba10313290383937b837b9b2b21037bbb732b960511b604482015260640161061a565b600c80546001600160a01b031980821633908117909355600d805490911690556040516001600160a01b03909116919082907f8be0079c531659141344cd1fd0a4f28419497f9722a3daafe3b4186f6b6457e090600090a350565b610f18611758565b610bb9611b00565b60065460ff1615610f435760405162461bcd60e51b815260040161061a90612d1b565b6000828152600f602052604090205482906001600160a01b03163314610fab5760405162461bcd60e51b815260206004820152601d60248201527f6d73672e73656e646572206973206e6f74207469746c65206f776e6572000000604482015260640161061a565b600083815260106020526040902054610fc890839060ff16611b58565b600084815260106020526040812080549294508492909190610fee90849060ff16612ee3565b92506101000a81548160ff021916908360ff16021790555060005b8260ff168110156110c1576012546110213382611b75565b6012805460018082019092557fbb8a6a4669ba250d26cd7a459eca9d215f8307e33aebe50379bc5a3617ec344401869055600086815260116020908152604080832080549485018155835291819020909201839055805187815291820183905233917fbdb24c7cfe050b0ab3bbd01b4a08f32542b455a89ea559cad19322f4413ec0de910160405180910390a250806110b981612f67565b915050611009565b50505050565b6110cf611758565b60006110e36008546001600160a01b031690565b6040516370a0823160e01b81523060048201529091506001600160a01b0382169063a9059cbb90339083906370a082319060240160206040518083038186803b15801561112f57600080fd5b505afa158015611143573d6000803e3d6000fd5b505050506040513d601f19601f820116820180604052508101906111679190612a2a565b6040516001600160e01b031960e085901b1681526001600160a01b0390921660048301526024820152604401602060405180830381600087803b1580156111ad57600080fd5b505af11580156111c1573d6000803e3d6000fd5b505050506040513d601f19601f820116820180604052508101906111e59190612936565b6112265760405162461bcd60e51b81526020600482015260126024820152712ab730b13632903a37903a3930b739b332b960711b604482015260640161061a565b50565b60606001805461052f90612f32565b610dd7338383611b8f565b60065460ff16156112665760405162461bcd60e51b815260040161061a90612d1b565b6001600160a01b038316600090815260136020526040902054839060ff1615156001146112e15760405162461bcd60e51b8152602060048201526024808201527f41646472657373206d757374206265207665726966696564207468726f756768604482015263204b594360e01b606482015260840161061a565b6018546001600160a01b031633146113565760405162461bcd60e51b815260206004820152603260248201527f46756e6374696f6e206973207265737472696374656420746f20746865206d616044820152711c9ad95d1c1b1858d94818dbdb9d1c9858dd60721b606482015260840161061a565b61136285858585611c5e565b5050505050565b611371611758565b6001600160a01b0381166113c75760405162461bcd60e51b815260206004820152601b60248201527f57616c6c657420616464726573732063616e6e6f7420656d7074790000000000604482015260640161061a565b6001600160a01b03166000908152601360205260409020805460ff19169055565b60606113f38261159d565b6114575760405162461bcd60e51b815260206004820152602f60248201527f4552433732314d657461646174613a2055524920717565727920666f72206e6f60448201526e3732bc34b9ba32b73a103a37b5b2b760891b606482015260840161061a565b6000611461611628565b9050600081511161148157604051806020016040528060008152506114ac565b8061148b84611637565b60405160200161149c929190612a6e565b6040516020818303038152906040525b9392505050565b6114bb611758565b8051610dd790601690602084019061264a565b6001600160a01b03918216600090815260056020908152604080832093909416825291909152205460ff1690565b611504611758565b61122681611c90565b611515611758565b6001600160a01b0381166115795760405162461bcd60e51b815260206004820152602560248201527f57616c6c657420616464726573732063616e6e6f74206265207a65726f206164604482015264647265737360d81b606482015260840161061a565b6001600160a01b03166000908152601360205260409020805460ff19166001179055565b6000908152600260205260409020546001600160a01b0316151590565b600081815260046020526040902080546001600160a01b0319166001600160a01b03841690811790915581906115ef82610d45565b6001600160a01b03167f8c5be1e5ebec7d5bd14f71427d1e84f3dd0314c0f7b2291e5b200ac8c7c3b92560405160405180910390a45050565b60606016805461052f90612f32565b60608161165b5750506040805180820190915260018152600360fc1b602082015290565b8160005b8115611685578061166f81612f67565b915061167e9050600a83612dae565b915061165f565b6000816001600160401b038111156116ad57634e487b7160e01b600052604160045260246000fd5b6040519080825280601f01601f1916602001820160405280156116d7576020820181803683370190505b5090505b8415611750576116ec600183612ecc565b91506116f9600a86612f82565b611704906030612d96565b60f81b81838151811061172757634e487b7160e01b600052603260045260246000fd5b60200101906001600160f81b031916908160001a905350611749600a86612dae565b94506116db565b949350505050565b600c546001600160a01b03163314610bb95760405162461bcd60e51b815260206004820152601660248201527527b7363c9031b0b63630b1363290313c9037bbb732b960511b604482015260640161061a565b60006117b68261159d565b6118175760405162461bcd60e51b815260206004820152602c60248201527f4552433732313a206f70657261746f7220717565727920666f72206e6f6e657860448201526b34b9ba32b73a103a37b5b2b760a11b606482015260840161061a565b600061182283610d45565b9050806001600160a01b0316846001600160a01b03161480611849575061184981856114ce565b806117505750836001600160a01b0316611862846105b2565b6001600160a01b031614949350505050565b826001600160a01b031661188782610d45565b6001600160a01b0316146118eb5760405162461bcd60e51b815260206004820152602560248201527f4552433732313a207472616e736665722066726f6d20696e636f72726563742060448201526437bbb732b960d91b606482015260840161061a565b6001600160a01b03821661194d5760405162461bcd60e51b8152602060048201526024808201527f4552433732313a207472616e7366657220746f20746865207a65726f206164646044820152637265737360e01b606482015260840161061a565b6119586000826115ba565b6001600160a01b0383166000908152600360205260408120805460019290611981908490612ecc565b90915550506001600160a01b03821660009081526003602052604081208054600192906119af908490612d96565b909155505060008181526002602052604080822080546001600160a01b0319166001600160a01b0386811691821790925591518493918716917fddf252ad1be2c89b69c2b068fc378daa952ba7f163c4a11628f55a4df523b3ef91a4505050565b60065460ff16611a595760405162461bcd60e51b815260206004820152601460248201527314185d5cd8589b194e881b9bdd081c185d5cd95960621b604482015260640161061a565b6006805460ff191690557f5db9ee0a495bf2e6ff9c91a7834c1ba4fdd244a5e8aa4e537bd38aeae4b073aa335b6040516001600160a01b03909116815260200160405180910390a1565b611aab6126bd565b611ab36126bd565b611abf81868686611d3b565b95945050505050565b6080830151611ad79083611d78565b60808301516107509082611d78565b6009546000906114ac906001600160a01b03168484611d8f565b60065460ff1615611b235760405162461bcd60e51b815260040161061a90612d1b565b6006805460ff191660011790557f62e78cea01bee320cd4e420270b5ea74000d11b0c9f74754ebdbfc544b05a258611a863390565b60008160ff168360ff161015611b6f57508161051a565b50919050565b610dd7828260405180602001604052806000815250611e22565b816001600160a01b0316836001600160a01b03161415611bf15760405162461bcd60e51b815260206004820152601960248201527f4552433732313a20617070726f766520746f2063616c6c657200000000000000604482015260640161061a565b6001600160a01b03838116600081815260056020908152604080832094871680845294825291829020805460ff191686151590811790915591519182527f17307eab39ab6107e8899845ad3d59bd9653f200f220920489ca2b5937696c31910160405180910390a3505050565b611c6833836117ab565b611c845760405162461bcd60e51b815260040161061a90612d45565b6110c184848484611e55565b6001600160a01b038116331415611ce95760405162461bcd60e51b815260206004820152601760248201527f43616e6e6f74207472616e7366657220746f2073656c66000000000000000000604482015260640161061a565b600d80546001600160a01b0319166001600160a01b03838116918217909255600c54604051919216907fed8889f560326eb138920d842192f0eb3dd22b4f139c87a2c57538e05bae127890600090a350565b611d436126bd565b611d538560800151610100611e88565b50509183526001600160a01b031660208301526001600160e01b031916604082015290565b611d858260038351611eed565b6107508282611ff4565b600a54600090611da0816001612d96565b600a55835160408086015160808701515191516000936320214ca360e11b93611dd89386938493923092918a91600191602401612bc5565b60408051601f198184030181529190526020810180516001600160e01b03166001600160e01b0319909316929092179091529050611e188683868461201b565b9695505050505050565b611e2c8383612188565b611e3960008484846122bb565b6107505760405162461bcd60e51b815260040161061a90612cc9565b611e60848484611874565b611e6c848484846122bb565b6110c15760405162461bcd60e51b815260040161061a90612cc9565b604080518082019091526060815260006020820152611ea8602083612f82565b15611ed057611eb8602083612f82565b611ec3906020612ecc565b611ecd9083612d96565b91505b506020828101829052604080518085526000815290920101905290565b6017816001600160401b031611611f11576110c18360e0600585901b1683176123c5565b60ff816001600160401b031611611f4d57611f37836018611fe0600586901b16176123c5565b506110c1836001600160401b03831660016123ea565b61ffff816001600160401b031611611f8a57611f74836019611fe0600586901b16176123c5565b506110c1836001600160401b03831660026123ea565b63ffffffff816001600160401b031611611fc957611fb383601a611fe0600586901b16176123c5565b506110c1836001600160401b03831660046123ea565b611fde83601b611fe0600586901b16176123c5565b506110c1836001600160401b03831660086123ea565b6040805180820190915260608152600060208201526114ac83846000015151848551612410565b6040516bffffffffffffffffffffffff193060601b1660208201526034810184905260009060540160408051808303601f1901815282825280516020918201206000818152600b90925291812080546001600160a01b0319166001600160a01b038a1617905590925082917fb5e6e01e79f91267dc17b4e6314d5d4d03593d2ceee0fbb452b750bd70ea5af99190a2600854604051630200057560e51b81526001600160a01b0390911690634000aea0906120de90889087908790600401612c2d565b602060405180830381600087803b1580156120f857600080fd5b505af115801561210c573d6000803e3d6000fd5b505050506040513d601f19601f820116820180604052508101906121309190612936565b6117505760405162461bcd60e51b815260206004820152602360248201527f756e61626c6520746f207472616e73666572416e6443616c6c20746f206f7261604482015262636c6560e81b606482015260840161061a565b6001600160a01b0382166121de5760405162461bcd60e51b815260206004820181905260248201527f4552433732313a206d696e7420746f20746865207a65726f2061646472657373604482015260640161061a565b6121e78161159d565b156122345760405162461bcd60e51b815260206004820152601c60248201527f4552433732313a20746f6b656e20616c7265616479206d696e74656400000000604482015260640161061a565b6001600160a01b038216600090815260036020526040812080546001929061225d908490612d96565b909155505060008181526002602052604080822080546001600160a01b0319166001600160a01b03861690811790915590518392907fddf252ad1be2c89b69c2b068fc378daa952ba7f163c4a11628f55a4df523b3ef908290a45050565b60006001600160a01b0384163b156123bd57604051630a85bd0160e11b81526001600160a01b0385169063150b7a02906122ff903390899088908890600401612b92565b602060405180830381600087803b15801561231957600080fd5b505af1925050508015612349575060408051601f3d908101601f19168201909252612346918101906129c9565b60015b6123a3573d808015612377576040519150601f19603f3d011682016040523d82523d6000602084013e61237c565b606091505b50805161239b5760405162461bcd60e51b815260040161061a90612cc9565b805181602001fd5b6001600160e01b031916630a85bd0160e11b149050611750565b506001611750565b6040805180820190915260608152600060208201526114ac83846000015151846124fa565b604080518082019091526060815260006020820152611750848560000151518585612556565b604080518082019091526060815260006020820152825182111561243357600080fd5b60208501516124428386612d96565b11156124755761247585612465876020015187866124609190612d96565b6125d7565b612470906002612ead565b6125e8565b6000808651805187602083010193508088870111156124945787860182525b505050602084015b602084106124d457805182526124b3602083612d96565b91506124c0602082612d96565b90506124cd602085612ecc565b935061249c565b51815160001960208690036101000a019081169019919091161790525083949350505050565b6040805180820190915260608152600060208201528360200151831061252f5761252f84856020015160026124709190612ead565b83518051602085830101848153508085141561254c576001810182525b5093949350505050565b604080518082019091526060815260006020820152602085015161257a8584612d96565b111561258e5761258e856124658685612d96565b6000600161259e84610100612e05565b6125a89190612ecc565b90508551838682010185831982511617815250805184870111156125cc5783860181525b509495945050505050565b600081831115611b6f57508161051a565b81516125f48383611e88565b506110c18382611ff4565b82805482825590600052602060002090810192821561263a579160200282015b8281111561263a57825182559160200191906001019061261f565b506126469291506126f8565b5090565b82805461265690612f32565b90600052602060002090601f016020900481019282612678576000855561263a565b82601f1061269157805160ff191683800117855561263a565b8280016001018555821561263a579182018281111561263a57825182559160200191906001019061261f565b6040805160a0810182526000808252602080830182905282840182905260608084018390528451808601909552845283015290608082015290565b5b8082111561264657600081556001016126f9565b60006001600160401b038084111561272757612727612fc2565b604051601f8501601f19908116603f0116810190828211818310171561274f5761274f612fc2565b8160405280935085815286868601111561276857600080fd5b858560208301376000602087830101525050509392505050565b80356001600160a01b038116811461279957600080fd5b919050565b803560ff8116811461279957600080fd5b6000602082840312156127c0578081fd5b6114ac82612782565b600080604083850312156127db578081fd5b6127e483612782565b91506127f260208401612782565b90509250929050565b60008060006060848603121561280f578081fd5b61281884612782565b925061282660208501612782565b9150604084013590509250925092565b6000806000806080858703121561284b578081fd5b61285485612782565b935061286260208601612782565b92506040850135915060608501356001600160401b03811115612883578182fd5b8501601f81018713612893578182fd5b6128a28782356020840161270d565b91505092959194509250565b600080604083850312156128c0578182fd5b6128c983612782565b915060208301356128d981612fd8565b809150509250929050565b600080604083850312156128f6578182fd5b6128ff83612782565b946020939093013593505050565b6000806040838503121561291f578182fd5b61292883612782565b91506127f26020840161279e565b600060208284031215612947578081fd5b81516114ac81612fd8565b600060208284031215612963578081fd5b5035919050565b6000806040838503121561297c578182fd5b50508035926020909101359150565b6000806040838503121561299d578182fd5b823591506127f26020840161279e565b6000602082840312156129be578081fd5b81356114ac81612fe6565b6000602082840312156129da578081fd5b81516114ac81612fe6565b6000602082840312156129f6578081fd5b81356001600160401b03811115612a0b578182fd5b8201601f81018413612a1b578182fd5b6117508482356020840161270d565b600060208284031215612a3b578081fd5b5051919050565b60008151808452612a5a816020860160208601612f06565b601f01601f19169290920160200192915050565b60008351612a80818460208801612f06565b835190830190612a94818360208801612f06565b01949350505050565b60008351612aaf818460208801612f06565b835190830190612ac3818360208801612f06565b64173539b7b760d91b9101908152600501949350505050565b600080845482600182811c915080831680612af857607f831692505b6020808410821415612b1857634e487b7160e01b87526022600452602487fd5b818015612b2c5760018114612b3d57612b69565b60ff19861689528489019650612b69565b60008b815260209020885b86811015612b615781548b820152908501908301612b48565b505084890196505b50888652612b8481870164173539b7b760d91b815260050190565b9a9950505050505050505050565b6001600160a01b0385811682528416602082015260408101839052608060608201819052600090611e1890830184612a42565b6001600160a01b0389811682526020820189905260408201889052861660608201526001600160e01b03198516608082015260a0810184905260c0810183905261010060e08201819052600090612c1e83820185612a42565b9b9a5050505050505050505050565b60018060a01b0384168152826020820152606060408201526000611abf6060830184612a42565b6001600160a01b038416815260ff83166020808301919091526060604083018190528351908301819052600091848101916080850190845b81811015612ca857845183529383019391830191600101612c8c565b509098975050505050505050565b6020815260006114ac6020830184612a42565b60208082526032908201527f4552433732313a207472616e7366657220746f206e6f6e20455243373231526560408201527131b2b4bb32b91034b6b83632b6b2b73a32b960711b606082015260800190565b60208082526010908201526f14185d5cd8589b194e881c185d5cd95960821b604082015260600190565b60208082526031908201527f4552433732313a207472616e736665722063616c6c6572206973206e6f74206f6040820152701ddb995c881b9bdc88185c1c1c9bdd9959607a1b606082015260800190565b60008219821115612da957612da9612f96565b500190565b600082612dbd57612dbd612fac565b500490565b600181815b80851115612dfd578160001904821115612de357612de3612f96565b80851615612df057918102915b93841c9390800290612dc7565b509250929050565b60006114ac8383600082612e1b5750600161051a565b81612e285750600061051a565b8160018114612e3e5760028114612e4857612e64565b600191505061051a565b60ff841115612e5957612e59612f96565b50506001821b61051a565b5060208310610133831016604e8410600b8410161715612e87575081810a61051a565b612e918383612dc2565b8060001904821115612ea557612ea5612f96565b029392505050565b6000816000190483118215151615612ec757612ec7612f96565b500290565b600082821015612ede57612ede612f96565b500390565b600060ff821660ff841680821015612efd57612efd612f96565b90039392505050565b60005b83811015612f21578181015183820152602001612f09565b838111156110c15750506000910152565b600181811c90821680612f4657607f821691505b60208210811415611b6f57634e487b7160e01b600052602260045260246000fd5b6000600019821415612f7b57612f7b612f96565b5060010190565b600082612f9157612f91612fac565b500690565b634e487b7160e01b600052601160045260246000fd5b634e487b7160e01b600052601260045260246000fd5b634e487b7160e01b600052604160045260246000fd5b801515811461122657600080fd5b6001600160e01b03198116811461122657600080fdfea26469706673582212205ae2e5d113fbc5b9f8665c4a97993a4a81f8994ac62a9b5192ee641f064ca61c64736f6c63430008040033",
  "linkReferences": {},
  "deployedLinkReferences": {}
}