{
  "_format": "hh-sol-artifact-1",
  "contractName": "Collection",
  "sourceName": "contracts/Collection.sol",
  "abi": [
    {
      "inputs": [],
      "stateMutability": "nonpayable",
      "type": "constructor"
    },
    {
      "anonymous": false,
      "inputs": [
        {
          "indexed": true,
          "internalType": "address",
          "name": "owner",
          "type": "address"
        },
        {
          "indexed": true,
          "internalType": "address",
          "name": "approved",
          "type": "address"
        },
        {
          "indexed": true,
          "internalType": "uint256",
          "name": "tokenId",
          "type": "uint256"
        }
      ],
      "name": "Approval",
      "type": "event"
    },
    {
      "anonymous": false,
      "inputs": [
        {
          "indexed": true,
          "internalType": "address",
          "name": "owner",
          "type": "address"
        },
        {
          "indexed": true,
          "internalType": "address",
          "name": "operator",
          "type": "address"
        },
        {
          "indexed": false,
          "internalType": "bool",
          "name": "approved",
          "type": "bool"
        }
      ],
      "name": "ApprovalForAll",
      "type": "event"
    },
    {
      "anonymous": false,
      "inputs": [
        {
          "indexed": true,
          "internalType": "bytes32",
          "name": "id",
          "type": "bytes32"
        }
      ],
      "name": "ChainlinkCancelled",
      "type": "event"
    },
    {
      "anonymous": false,
      "inputs": [
        {
          "indexed": true,
          "internalType": "bytes32",
          "name": "id",
          "type": "bytes32"
        }
      ],
      "name": "ChainlinkFulfilled",
      "type": "event"
    },
    {
      "anonymous": false,
      "inputs": [
        {
          "indexed": true,
          "internalType": "bytes32",
          "name": "id",
          "type": "bytes32"
        }
      ],
      "name": "ChainlinkRequested",
      "type": "event"
    },
    {
      "anonymous": false,
      "inputs": [
        {
          "indexed": true,
          "internalType": "address",
          "name": "receiver",
          "type": "address"
        },
        {
          "indexed": false,
          "internalType": "uint256",
          "name": "deedId",
          "type": "uint256"
        }
      ],
      "name": "DeedMinted",
      "type": "event"
    },
    {
      "anonymous": false,
      "inputs": [
        {
          "indexed": true,
          "internalType": "address",
          "name": "receiver",
          "type": "address"
        },
        {
          "indexed": false,
          "internalType": "uint256",
          "name": "amount",
          "type": "uint256"
        },
        {
          "indexed": false,
          "internalType": "uint256[]",
          "name": "deedIds",
          "type": "uint256[]"
        }
      ],
      "name": "DeedsMinted",
      "type": "event"
    },
    {
      "anonymous": false,
      "inputs": [
        {
          "indexed": true,
          "internalType": "address",
          "name": "from",
          "type": "address"
        },
        {
          "indexed": true,
          "internalType": "address",
          "name": "to",
          "type": "address"
        }
      ],
      "name": "OwnershipTransferRequested",
      "type": "event"
    },
    {
      "anonymous": false,
      "inputs": [
        {
          "indexed": true,
          "internalType": "address",
          "name": "from",
          "type": "address"
        },
        {
          "indexed": true,
          "internalType": "address",
          "name": "to",
          "type": "address"
        }
      ],
      "name": "OwnershipTransferred",
      "type": "event"
    },
    {
      "anonymous": false,
      "inputs": [
        {
          "indexed": false,
          "internalType": "address",
          "name": "account",
          "type": "address"
        }
      ],
      "name": "Paused",
      "type": "event"
    },
    {
      "anonymous": false,
      "inputs": [
        {
          "indexed": true,
          "internalType": "address",
          "name": "from",
          "type": "address"
        },
        {
          "indexed": true,
          "internalType": "address",
          "name": "to",
          "type": "address"
        },
        {
          "indexed": true,
          "internalType": "uint256",
          "name": "tokenId",
          "type": "uint256"
        }
      ],
      "name": "Transfer",
      "type": "event"
    },
    {
      "anonymous": false,
      "inputs": [
        {
          "indexed": false,
          "internalType": "address",
          "name": "account",
          "type": "address"
        }
      ],
      "name": "Unpaused",
      "type": "event"
    },
    {
      "inputs": [],
      "name": "acceptOwnership",
      "outputs": [],
      "stateMutability": "nonpayable",
      "type": "function"
    },
    {
      "inputs": [
        {
          "internalType": "address",
          "name": "to",
          "type": "address"
        },
        {
          "internalType": "uint256",
          "name": "tokenId",
          "type": "uint256"
        }
      ],
      "name": "approve",
      "outputs": [],
      "stateMutability": "nonpayable",
      "type": "function"
    },
    {
      "inputs": [
        {
          "internalType": "address",
          "name": "_wallet",
          "type": "address"
        }
      ],
      "name": "authorizeWallet",
      "outputs": [],
      "stateMutability": "nonpayable",
      "type": "function"
    },
    {
      "inputs": [
        {
          "internalType": "address",
          "name": "owner",
          "type": "address"
        }
      ],
      "name": "balanceOf",
      "outputs": [
        {
          "internalType": "uint256",
          "name": "",
          "type": "uint256"
        }
      ],
      "stateMutability": "view",
      "type": "function"
    },
    {
      "inputs": [
        {
          "internalType": "address",
          "name": "_wallet",
          "type": "address"
        }
      ],
      "name": "deauthorizeWallet",
      "outputs": [],
      "stateMutability": "nonpayable",
      "type": "function"
    },
    {
      "inputs": [
        {
          "internalType": "uint256",
          "name": "deedId",
          "type": "uint256"
        }
      ],
      "name": "exists",
      "outputs": [
        {
          "internalType": "bool",
          "name": "",
          "type": "bool"
        }
      ],
      "stateMutability": "view",
      "type": "function"
    },
    {
      "inputs": [
        {
          "internalType": "bytes32",
          "name": "_requestId",
          "type": "bytes32"
        },
        {
          "internalType": "bytes32",
          "name": "_titleId",
          "type": "bytes32"
        },
        {
          "internalType": "bool",
          "name": "_verified",
          "type": "bool"
        }
      ],
      "name": "fulfillTitleOwnershipVerification",
      "outputs": [],
      "stateMutability": "nonpayable",
      "type": "function"
    },
    {
      "inputs": [
        {
          "internalType": "uint256",
          "name": "tokenId",
          "type": "uint256"
        }
      ],
      "name": "getApproved",
      "outputs": [
        {
          "internalType": "address",
          "name": "",
          "type": "address"
        }
      ],
      "stateMutability": "view",
      "type": "function"
    },
    {
      "inputs": [
        {
          "internalType": "address",
          "name": "owner",
          "type": "address"
        },
        {
          "internalType": "address",
          "name": "operator",
          "type": "address"
        }
      ],
      "name": "isApprovedForAll",
      "outputs": [
        {
          "internalType": "bool",
          "name": "",
          "type": "bool"
        }
      ],
      "stateMutability": "view",
      "type": "function"
    },
    {
      "inputs": [
        {
          "internalType": "address payable",
          "name": "newOwner",
          "type": "address"
        },
        {
          "internalType": "bytes32",
          "name": "titleId",
          "type": "bytes32"
        }
      ],
      "name": "mintDeed",
      "outputs": [],
      "stateMutability": "nonpayable",
      "type": "function"
    },
    {
      "inputs": [],
      "name": "name",
      "outputs": [
        {
          "internalType": "string",
          "name": "",
          "type": "string"
        }
      ],
      "stateMutability": "view",
      "type": "function"
    },
    {
      "inputs": [],
      "name": "owner",
      "outputs": [
        {
          "internalType": "address",
          "name": "",
          "type": "address"
        }
      ],
      "stateMutability": "view",
      "type": "function"
    },
    {
      "inputs": [
        {
          "internalType": "uint256",
          "name": "deedId",
          "type": "uint256"
        }
      ],
      "name": "ownerOf",
      "outputs": [
        {
          "internalType": "address",
          "name": "",
          "type": "address"
        }
      ],
      "stateMutability": "view",
      "type": "function"
    },
    {
      "inputs": [],
      "name": "pause",
      "outputs": [],
      "stateMutability": "nonpayable",
      "type": "function"
    },
    {
      "inputs": [],
      "name": "paused",
      "outputs": [
        {
          "internalType": "bool",
          "name": "",
          "type": "bool"
        }
      ],
      "stateMutability": "view",
      "type": "function"
    },
    {
      "inputs": [
        {
          "internalType": "address",
          "name": "from",
          "type": "address"
        },
        {
          "internalType": "address",
          "name": "to",
          "type": "address"
        },
        {
          "internalType": "uint256[]",
          "name": "deedIds",
          "type": "uint256[]"
        },
        {
          "internalType": "bytes",
          "name": "data",
          "type": "bytes"
        }
      ],
      "name": "safeBatchTransferFrom",
      "outputs": [],
      "stateMutability": "nonpayable",
      "type": "function"
    },
    {
      "inputs": [
        {
          "internalType": "address",
          "name": "from",
          "type": "address"
        },
        {
          "internalType": "address",
          "name": "to",
          "type": "address"
        },
        {
          "internalType": "uint256",
          "name": "tokenId",
          "type": "uint256"
        }
      ],
      "name": "safeTransferFrom",
      "outputs": [],
      "stateMutability": "nonpayable",
      "type": "function"
    },
    {
      "inputs": [
        {
          "internalType": "address",
          "name": "from",
          "type": "address"
        },
        {
          "internalType": "address",
          "name": "to",
          "type": "address"
        },
        {
          "internalType": "uint256",
          "name": "deedId",
          "type": "uint256"
        },
        {
          "internalType": "bytes",
          "name": "data",
          "type": "bytes"
        }
      ],
      "name": "safeTransferFrom",
      "outputs": [],
      "stateMutability": "nonpayable",
      "type": "function"
    },
    {
      "inputs": [
        {
          "internalType": "address",
          "name": "operator",
          "type": "address"
        },
        {
          "internalType": "bool",
          "name": "approved",
          "type": "bool"
        }
      ],
      "name": "setApprovalForAll",
      "outputs": [],
      "stateMutability": "nonpayable",
      "type": "function"
    },
    {
      "inputs": [
        {
          "internalType": "address",
          "name": "newMarketplaceContract",
          "type": "address"
        }
      ],
      "name": "setMarketplaceContract",
      "outputs": [],
      "stateMutability": "nonpayable",
      "type": "function"
    },
    {
      "inputs": [
        {
          "internalType": "string",
          "name": "newURI",
          "type": "string"
        }
      ],
      "name": "setTitleSearchURI",
      "outputs": [],
      "stateMutability": "nonpayable",
      "type": "function"
    },
    {
      "inputs": [
        {
          "internalType": "string",
          "name": "newURI",
          "type": "string"
        }
      ],
      "name": "setTokenURI",
      "outputs": [],
      "stateMutability": "nonpayable",
      "type": "function"
    },
    {
      "inputs": [
        {
          "internalType": "bytes4",
          "name": "interfaceId",
          "type": "bytes4"
        }
      ],
      "name": "supportsInterface",
      "outputs": [
        {
          "internalType": "bool",
          "name": "",
          "type": "bool"
        }
      ],
      "stateMutability": "view",
      "type": "function"
    },
    {
      "inputs": [],
      "name": "symbol",
      "outputs": [
        {
          "internalType": "string",
          "name": "",
          "type": "string"
        }
      ],
      "stateMutability": "view",
      "type": "function"
    },
    {
      "inputs": [
        {
          "internalType": "uint256",
          "name": "tokenId",
          "type": "uint256"
        }
      ],
      "name": "tokenURI",
      "outputs": [
        {
          "internalType": "string",
          "name": "",
          "type": "string"
        }
      ],
      "stateMutability": "view",
      "type": "function"
    },
    {
      "inputs": [
        {
          "internalType": "address",
          "name": "from",
          "type": "address"
        },
        {
          "internalType": "address",
          "name": "to",
          "type": "address"
        },
        {
          "internalType": "uint256",
          "name": "tokenId",
          "type": "uint256"
        }
      ],
      "name": "transferFrom",
      "outputs": [],
      "stateMutability": "nonpayable",
      "type": "function"
    },
    {
      "inputs": [
        {
          "internalType": "address",
          "name": "to",
          "type": "address"
        }
      ],
      "name": "transferOwnership",
      "outputs": [],
      "stateMutability": "nonpayable",
      "type": "function"
    },
    {
      "inputs": [],
      "name": "unpause",
      "outputs": [],
      "stateMutability": "nonpayable",
      "type": "function"
    },
    {
      "inputs": [
        {
          "internalType": "uint256",
          "name": "deedId",
          "type": "uint256"
        }
      ],
      "name": "uri",
      "outputs": [
        {
          "internalType": "string",
          "name": "",
          "type": "string"
        }
      ],
      "stateMutability": "view",
      "type": "function"
    },
    {
      "inputs": [
        {
          "internalType": "bytes32",
          "name": "_titleId",
          "type": "bytes32"
        }
      ],
      "name": "verifyTitleOwnership",
      "outputs": [
        {
          "internalType": "bytes32",
          "name": "requestId",
          "type": "bytes32"
        }
      ],
      "stateMutability": "nonpayable",
      "type": "function"
    },
    {
      "inputs": [],
      "name": "withdrawLink",
      "outputs": [],
      "stateMutability": "nonpayable",
      "type": "function"
    }
  ],
  "bytecode": "0x60806040526001600a553480156200001657600080fd5b50604080518082018252600a8152694e6f6d6164486f75736560b01b60208083019182528351808501909452600384526209c9a960eb1b908401528151339384936000939092620000699185916200029f565b5080516200007f9060019060208401906200029f565b50506006805460ff19169055506001600160a01b038216620000e85760405162461bcd60e51b815260206004820152601860248201527f43616e6e6f7420736574206f776e657220746f207a65726f000000000000000060448201526064015b60405180910390fd5b600c80546001600160a01b0319166001600160a01b03848116919091179091558116156200011b576200011b81620001e9565b50506011805473094c858cf9428a4c18023aa714d3e205b6db63546001600160a01b0319918216811790925560088054821673a36085f69e2889c224210f603d836748e7dc008817905560098054909116909117905550604080516080810190915260538082526200330760208301398051620001a1916015916020909101906200029f565b507f36376263303465346462333234373362623561383933363734663765363334326012556000601355620001e3600e62000296602090811b620013e317901c565b62000382565b6001600160a01b038116331415620002445760405162461bcd60e51b815260206004820152601760248201527f43616e6e6f74207472616e7366657220746f2073656c660000000000000000006044820152606401620000df565b600d80546001600160a01b0319166001600160a01b03838116918217909255600c54604051919216907fed8889f560326eb138920d842192f0eb3dd22b4f139c87a2c57538e05bae127890600090a350565b80546001019055565b828054620002ad9062000345565b90600052602060002090601f016020900481019282620002d157600085556200031c565b82601f10620002ec57805160ff19168380011785556200031c565b828001600101855582156200031c579182015b828111156200031c578251825591602001919060010190620002ff565b506200032a9291506200032e565b5090565b5b808211156200032a57600081556001016200032f565b600181811c908216806200035a57607f821691505b602082108114156200037c57634e487b7160e01b600052602260045260246000fd5b50919050565b612f7580620003926000396000f3fe608060405234801561001057600080fd5b50600436106101e55760003560e01c806370a082311161010f578063bdcf3db9116100a2578063e985e9c511610071578063e985e9c5146103e9578063f2fde38b146103fc578063fbeaa8b11461040f578063fd28ec841461042257600080fd5b8063bdcf3db91461039d578063c87b56dd146103b0578063cdcd47fc146103c3578063e0df5b6f146103d657600080fd5b80638dc654a2116100de5780638dc654a21461036757806395d89b411461036f578063a22cb46514610377578063b88d4fde1461038a57600080fd5b806370a082311461033357806379ba5097146103465780638456cb591461034e5780638da5cb5b1461035657600080fd5b806328cfbd46116101875780634f558e79116101565780634f558e79146102ef5780635c975abb146103025780636352211e1461030d5780636b0275361461032057600080fd5b806328cfbd46146102a05780633f4ba83a146102b3578063420fd265146102bb57806342842e0e146102dc57600080fd5b8063095ea7b3116101c3578063095ea7b3146102525780630e89341c146102675780631102610e1461027a57806323b872dd1461028d57600080fd5b806301ffc9a7146101ea57806306fdde0314610212578063081812fc14610227575b600080fd5b6101fd6101f836600461289a565b610435565b60405190151581526020015b60405180910390f35b61021a610487565b6040516102099190612b41565b61023a61023536600461284a565b610519565b6040516001600160a01b039091168152602001610209565b61026561026036600461281c565b6105a6565b005b61021a61027536600461284a565b6106bc565b6102656102883660046125e4565b610741565b61026561029b366004612752565b61078e565b6102656102ae366004612663565b6107bf565b6102656108e1565b6102ce6102c936600461284a565b6108f3565b604051908152602001610209565b6102656102ea366004612752565b6109fd565b6101fd6102fd36600461284a565b610a18565b60065460ff166101fd565b61023a61031b36600461284a565b610a23565b61026561032e3660046128d2565b610a8c565b6102ce6103413660046125e4565b610ace565b610265610b55565b610265610c03565b600c546001600160a01b031661023a565b610265610c13565b61021a610d75565b6102656103853660046127ef565b610d84565b610265610398366004612792565b610d8f565b6102656103ab3660046125e4565b610e35565b61021a6103be36600461284a565b610ed7565b6102656103d1366004612600565b610fa1565b6102656103e43660046128d2565b6111d5565b6101fd6103f736600461262b565b611213565b61026561040a3660046125e4565b611241565b61026561041d3660046125e4565b611252565b610265610430366004612862565b611305565b60006001600160e01b031982166380ac58cd60e01b148061046657506001600160e01b03198216635b5e139f60e01b145b8061048157506301ffc9a760e01b6001600160e01b03198316145b92915050565b60606000805461049690612e60565b80601f01602080910402602001604051908101604052809291908181526020018280546104c290612e60565b801561050f5780601f106104e45761010080835404028352916020019161050f565b820191906000526020600020905b8154815290600101906020018083116104f257829003601f168201915b5050505050905090565b6000610524826113ec565b61058a5760405162461bcd60e51b815260206004820152602c60248201527f4552433732313a20617070726f76656420717565727920666f72206e6f6e657860448201526b34b9ba32b73a103a37b5b2b760a11b60648201526084015b60405180910390fd5b506000908152600460205260409020546001600160a01b031690565b60006105b182611409565b9050806001600160a01b0316836001600160a01b0316141561061f5760405162461bcd60e51b815260206004820152602160248201527f4552433732313a20617070726f76616c20746f2063757272656e74206f776e656044820152603960f91b6064820152608401610581565b336001600160a01b038216148061063b575061063b8133611213565b6106ad5760405162461bcd60e51b815260206004820152603860248201527f4552433732313a20617070726f76652063616c6c6572206973206e6f74206f7760448201527f6e6572206e6f7220617070726f76656420666f7220616c6c00000000000000006064820152608401610581565b6106b78383611480565b505050565b60606106c7826113ec565b6107095760405162461bcd60e51b81526020600482015260136024820152721119595908191bd95cc81b9bdd08195e1a5cdd606a1b6044820152606401610581565b6107116114ee565b61071a836114fd565b60405160200161072b92919061298a565b6040516020818303038152906040529050919050565b60065460ff16156107645760405162461bcd60e51b815260040161058190612c3c565b61076c61161e565b601680546001600160a01b0319166001600160a01b0392909216919091179055565b6107983382611671565b6107b45760405162461bcd60e51b815260040161058190612c66565b6106b783838361173a565b6001600160a01b038316600090815260106020526040902054839060ff1615156001146107fe5760405162461bcd60e51b815260040161058190612bf8565b6016546001600160a01b031633146108285760405162461bcd60e51b815260040161058190612ba6565b60005b83518110156108d957610867868686848151811061085957634e487b7160e01b600052603260045260246000fd5b6020026020010151866118d6565b846018600086848151811061088c57634e487b7160e01b600052603260045260246000fd5b6020026020010151815260200190815260200160002060006101000a8154816001600160a01b0302191690836001600160a01b0316021790555080806108d190612e95565b91505061082b565b505050505050565b6108e961161e565b6108f161190e565b565b60006015805461090290612e60565b151590506109785760405162461bcd60e51b815260206004820152603b60248201527f43616e6e6f74206578656375746520436861696e4c696e6b207265717565737460448201527f3a205469746c65205365617263682055524920697320656d70747900000000006064820152608401610581565b600061098e6012543063fd28ec8460e01b6119a1565b90506109db6040518060400160405280600381526020016219d95d60ea1b8152506015856040516020016109c39291906129c9565b60408051601f198184030181529190528391906119c6565b6011546013546109f6916001600160a01b03169083906119e4565b9392505050565b6106b783838360405180602001604052806000815250610d8f565b6000610481826113ec565b6000610a2e826113ec565b610a705760405162461bcd60e51b81526020600482015260136024820152721119595908191bd95cc81b9bdd08195e1a5cdd606a1b6044820152606401610581565b506000908152601860205260409020546001600160a01b031690565b60065460ff1615610aaf5760405162461bcd60e51b815260040161058190612c3c565b610ab761161e565b8051610aca90601590602084019061249a565b5050565b60006001600160a01b038216610b395760405162461bcd60e51b815260206004820152602a60248201527f4552433732313a2062616c616e636520717565727920666f7220746865207a65604482015269726f206164647265737360b01b6064820152608401610581565b506001600160a01b031660009081526003602052604090205490565b600d546001600160a01b03163314610ba85760405162461bcd60e51b815260206004820152601660248201527526bab9ba10313290383937b837b9b2b21037bbb732b960511b6044820152606401610581565b600c80546001600160a01b031980821633908117909355600d805490911690556040516001600160a01b03909116919082907f8be0079c531659141344cd1fd0a4f28419497f9722a3daafe3b4186f6b6457e090600090a350565b610c0b61161e565b6108f1611a77565b610c1b61161e565b6000610c2f6008546001600160a01b031690565b6040516370a0823160e01b81523060048201529091506001600160a01b0382169063a9059cbb90339083906370a082319060240160206040518083038186803b158015610c7b57600080fd5b505afa158015610c8f573d6000803e3d6000fd5b505050506040513d601f19601f82011682018060405250810190610cb39190612917565b6040516001600160e01b031960e085901b1681526001600160a01b0390921660048301526024820152604401602060405180830381600087803b158015610cf957600080fd5b505af1158015610d0d573d6000803e3d6000fd5b505050506040513d601f19601f82011682018060405250810190610d31919061282e565b610d725760405162461bcd60e51b81526020600482015260126024820152712ab730b13632903a37903a3930b739b332b960711b6044820152606401610581565b50565b60606001805461049690612e60565b610aca338383611acf565b6001600160a01b038316600090815260106020526040902054839060ff161515600114610dce5760405162461bcd60e51b815260040161058190612bf8565b6016546001600160a01b03163314610df85760405162461bcd60e51b815260040161058190612ba6565b610e04858585856118d6565b5050600090815260186020526040902080546001600160a01b0319166001600160a01b039290921691909117905550565b60065460ff1615610e585760405162461bcd60e51b815260040161058190612c3c565b610e6061161e565b6001600160a01b038116610eb65760405162461bcd60e51b815260206004820152601b60248201527f57616c6c657420616464726573732063616e6e6f7420656d70747900000000006044820152606401610581565b6001600160a01b03166000908152601060205260409020805460ff19169055565b6060610ee2826113ec565b610f465760405162461bcd60e51b815260206004820152602f60248201527f4552433732314d657461646174613a2055524920717565727920666f72206e6f60448201526e3732bc34b9ba32b73a103a37b5b2b760891b6064820152608401610581565b6000610f506114ee565b90506000815111610f7057604051806020016040528060008152506109f6565b80610f7a846114fd565b604051602001610f8b92919061295b565b6040516020818303038152906040529392505050565b60065460ff1615610fc45760405162461bcd60e51b815260040161058190612c3c565b6001600160a01b038216600090815260106020526040902054829060ff1615156001146110035760405162461bcd60e51b815260040161058190612bf8565b6016546001600160a01b0316331461102d5760405162461bcd60e51b815260040161058190612ba6565b6000611038600e5490565b600081815260176020526040902054909150156110975760405162461bcd60e51b815260206004820152601c60248201527f446565642068617320616c7265616479206265656e206d696e746564000000006044820152606401610581565b6000838152600f602052604090205460ff1615156001146111085760405162461bcd60e51b815260206004820152602560248201527f5469746c65206f776e65727368697020686173206e6f74206265656e207665726044820152641a599a595960da1b6064820152608401610581565b6111128482611b9e565b6040805160608101825282815260208082018681526001600160a01b0380891684860181815260008881526017865287812096518755935160018701555160029095018054959092166001600160a01b0319958616179091556018909252929092208054909116909117905561118c600e80546001019055565b836001600160a01b03167f5ebe29d364426d2e0abb04ad3cb443d2f853e733fdeb19ff378efccfa31f217d826040516111c791815260200190565b60405180910390a250505050565b60065460ff16156111f85760405162461bcd60e51b815260040161058190612c3c565b61120061161e565b8051610aca90601490602084019061249a565b6001600160a01b03918216600090815260056020908152604080832093909416825291909152205460ff1690565b61124961161e565b610d7281611bb8565b60065460ff16156112755760405162461bcd60e51b815260040161058190612c3c565b61127d61161e565b6001600160a01b0381166112e15760405162461bcd60e51b815260206004820152602560248201527f57616c6c657420616464726573732063616e6e6f74206265207a65726f206164604482015264647265737360d81b6064820152608401610581565b6001600160a01b03166000908152601060205260409020805460ff19166001179055565b6000838152600b602052604090205483906001600160a01b0316331461137e5760405162461bcd60e51b815260206004820152602860248201527f536f75726365206d75737420626520746865206f7261636c65206f6620746865604482015267081c995c5d595cdd60c21b6064820152608401610581565b6000818152600b602052604080822080546001600160a01b03191690555182917f7cc135e0cebb02c3480ae5d74d377283180a2601f8f644edf7987b009316c63a91a2506000918252600f6020526040909120805460ff191691151591909117905550565b80546001019055565b6000908152600260205260409020546001600160a01b0316151590565b6000818152600260205260408120546001600160a01b0316806104815760405162461bcd60e51b815260206004820152602960248201527f4552433732313a206f776e657220717565727920666f72206e6f6e657869737460448201526832b73a103a37b5b2b760b91b6064820152608401610581565b600081815260046020526040902080546001600160a01b0319166001600160a01b03841690811790915581906114b582611409565b6001600160a01b03167f8c5be1e5ebec7d5bd14f71427d1e84f3dd0314c0f7b2291e5b200ac8c7c3b92560405160405180910390a45050565b60606014805461049690612e60565b6060816115215750506040805180820190915260018152600360fc1b602082015290565b8160005b811561154b578061153581612e95565b91506115449050600a83612cff565b9150611525565b6000816001600160401b0381111561157357634e487b7160e01b600052604160045260246000fd5b6040519080825280601f01601f19166020018201604052801561159d576020820181803683370190505b5090505b8415611616576115b2600183612e1d565b91506115bf600a86612eb0565b6115ca906030612ce7565b60f81b8183815181106115ed57634e487b7160e01b600052603260045260246000fd5b60200101906001600160f81b031916908160001a90535061160f600a86612cff565b94506115a1565b949350505050565b600c546001600160a01b031633146108f15760405162461bcd60e51b815260206004820152601660248201527527b7363c9031b0b63630b1363290313c9037bbb732b960511b6044820152606401610581565b600061167c826113ec565b6116dd5760405162461bcd60e51b815260206004820152602c60248201527f4552433732313a206f70657261746f7220717565727920666f72206e6f6e657860448201526b34b9ba32b73a103a37b5b2b760a11b6064820152608401610581565b60006116e883611409565b9050806001600160a01b0316846001600160a01b0316148061170f575061170f8185611213565b806116165750836001600160a01b031661172884610519565b6001600160a01b031614949350505050565b826001600160a01b031661174d82611409565b6001600160a01b0316146117b15760405162461bcd60e51b815260206004820152602560248201527f4552433732313a207472616e736665722066726f6d20696e636f72726563742060448201526437bbb732b960d91b6064820152608401610581565b6001600160a01b0382166118135760405162461bcd60e51b8152602060048201526024808201527f4552433732313a207472616e7366657220746f20746865207a65726f206164646044820152637265737360e01b6064820152608401610581565b61181e600082611480565b6001600160a01b0383166000908152600360205260408120805460019290611847908490612e1d565b90915550506001600160a01b0382166000908152600360205260408120805460019290611875908490612ce7565b909155505060008181526002602052604080822080546001600160a01b0319166001600160a01b0386811691821790925591518493918716917fddf252ad1be2c89b69c2b068fc378daa952ba7f163c4a11628f55a4df523b3ef91a4505050565b6118e03383611671565b6118fc5760405162461bcd60e51b815260040161058190612c66565b61190884848484611c63565b50505050565b60065460ff166119575760405162461bcd60e51b815260206004820152601460248201527314185d5cd8589b194e881b9bdd081c185d5cd95960621b6044820152606401610581565b6006805460ff191690557f5db9ee0a495bf2e6ff9c91a7834c1ba4fdd244a5e8aa4e537bd38aeae4b073aa335b6040516001600160a01b03909116815260200160405180910390a1565b6119a961251e565b6119b161251e565b6119bd81868686611c96565b95945050505050565b60808301516119d59083611cd3565b60808301516106b79082611cd3565b600a546000906119f5816001612ce7565b600a55835160408086015160808701515191516000936320214ca360e11b93611a2d9386938493923092918a91600191602401612ab2565b60408051601f198184030181529190526020810180516001600160e01b03166001600160e01b0319909316929092179091529050611a6d86838684611cea565b9695505050505050565b60065460ff1615611a9a5760405162461bcd60e51b815260040161058190612c3c565b6006805460ff191660011790557f62e78cea01bee320cd4e420270b5ea74000d11b0c9f74754ebdbfc544b05a2586119843390565b816001600160a01b0316836001600160a01b03161415611b315760405162461bcd60e51b815260206004820152601960248201527f4552433732313a20617070726f766520746f2063616c6c6572000000000000006044820152606401610581565b6001600160a01b03838116600081815260056020908152604080832094871680845294825291829020805460ff191686151590811790915591519182527f17307eab39ab6107e8899845ad3d59bd9653f200f220920489ca2b5937696c31910160405180910390a3505050565b610aca828260405180602001604052806000815250611e57565b6001600160a01b038116331415611c115760405162461bcd60e51b815260206004820152601760248201527f43616e6e6f74207472616e7366657220746f2073656c660000000000000000006044820152606401610581565b600d80546001600160a01b0319166001600160a01b03838116918217909255600c54604051919216907fed8889f560326eb138920d842192f0eb3dd22b4f139c87a2c57538e05bae127890600090a350565b611c6e84848461173a565b611c7a84848484611e8a565b6119085760405162461bcd60e51b815260040161058190612b54565b611c9e61251e565b611cae8560800151610100611f94565b50509183526001600160a01b031660208301526001600160e01b031916604082015290565b611ce08260038351611ff9565b6106b78282612100565b6040516bffffffffffffffffffffffff193060601b1660208201526034810184905260009060540160408051808303601f1901815282825280516020918201206000818152600b90925291812080546001600160a01b0319166001600160a01b038a1617905590925082917fb5e6e01e79f91267dc17b4e6314d5d4d03593d2ceee0fbb452b750bd70ea5af99190a2600854604051630200057560e51b81526001600160a01b0390911690634000aea090611dad90889087908790600401612b1a565b602060405180830381600087803b158015611dc757600080fd5b505af1158015611ddb573d6000803e3d6000fd5b505050506040513d601f19601f82011682018060405250810190611dff919061282e565b6116165760405162461bcd60e51b815260206004820152602360248201527f756e61626c6520746f207472616e73666572416e6443616c6c20746f206f7261604482015262636c6560e81b6064820152608401610581565b611e618383612127565b611e6e6000848484611e8a565b6106b75760405162461bcd60e51b815260040161058190612b54565b60006001600160a01b0384163b15611f8c57604051630a85bd0160e11b81526001600160a01b0385169063150b7a0290611ece903390899088908890600401612a7f565b602060405180830381600087803b158015611ee857600080fd5b505af1925050508015611f18575060408051601f3d908101601f19168201909252611f15918101906128b6565b60015b611f72573d808015611f46576040519150601f19603f3d011682016040523d82523d6000602084013e611f4b565b606091505b508051611f6a5760405162461bcd60e51b815260040161058190612b54565b805181602001fd5b6001600160e01b031916630a85bd0160e11b149050611616565b506001611616565b604080518082019091526060815260006020820152611fb4602083612eb0565b15611fdc57611fc4602083612eb0565b611fcf906020612e1d565b611fd99083612ce7565b91505b506020828101829052604080518085526000815290920101905290565b6017816001600160401b03161161201d576119088360e0600585901b16831761225a565b60ff816001600160401b03161161205957612043836018611fe0600586901b161761225a565b50611908836001600160401b038316600161227f565b61ffff816001600160401b03161161209657612080836019611fe0600586901b161761225a565b50611908836001600160401b038316600261227f565b63ffffffff816001600160401b0316116120d5576120bf83601a611fe0600586901b161761225a565b50611908836001600160401b038316600461227f565b6120ea83601b611fe0600586901b161761225a565b50611908836001600160401b038316600861227f565b6040805180820190915260608152600060208201526109f6838460000151518485516122a5565b6001600160a01b03821661217d5760405162461bcd60e51b815260206004820181905260248201527f4552433732313a206d696e7420746f20746865207a65726f20616464726573736044820152606401610581565b612186816113ec565b156121d35760405162461bcd60e51b815260206004820152601c60248201527f4552433732313a20746f6b656e20616c7265616479206d696e746564000000006044820152606401610581565b6001600160a01b03821660009081526003602052604081208054600192906121fc908490612ce7565b909155505060008181526002602052604080822080546001600160a01b0319166001600160a01b03861690811790915590518392907fddf252ad1be2c89b69c2b068fc378daa952ba7f163c4a11628f55a4df523b3ef908290a45050565b6040805180820190915260608152600060208201526109f6838460000151518461238f565b6040805180820190915260608152600060208201526116168485600001515185856123eb565b60408051808201909152606081526000602082015282518211156122c857600080fd5b60208501516122d78386612ce7565b111561230a5761230a856122fa876020015187866122f59190612ce7565b61246c565b612305906002612dfe565b612483565b6000808651805187602083010193508088870111156123295787860182525b505050602084015b602084106123695780518252612348602083612ce7565b9150612355602082612ce7565b9050612362602085612e1d565b9350612331565b51815160001960208690036101000a019081169019919091161790525083949350505050565b604080518082019091526060815260006020820152836020015183106123c4576123c484856020015160026123059190612dfe565b8351805160208583010184815350808514156123e1576001810182525b5093949350505050565b604080518082019091526060815260006020820152602085015161240f8584612ce7565b111561242357612423856122fa8685612ce7565b6000600161243384610100612d56565b61243d9190612e1d565b90508551838682010185831982511617815250805184870111156124615783860181525b509495945050505050565b60008183111561247d575081610481565b50919050565b815161248f8383611f94565b506119088382612100565b8280546124a690612e60565b90600052602060002090601f0160209004810192826124c8576000855561250e565b82601f106124e157805160ff191683800117855561250e565b8280016001018555821561250e579182015b8281111561250e5782518255916020019190600101906124f3565b5061251a929150612559565b5090565b6040805160a0810182526000808252602080830182905282840182905260608084018390528451808601909552845283015290608082015290565b5b8082111561251a576000815560010161255a565b60006001600160401b0383111561258757612587612ef0565b61259a601f8401601f1916602001612cb7565b90508281528383830111156125ae57600080fd5b828260208301376000602084830101529392505050565b600082601f8301126125d5578081fd5b6109f68383356020850161256e565b6000602082840312156125f5578081fd5b81356109f681612f06565b60008060408385031215612612578081fd5b823561261d81612f06565b946020939093013593505050565b6000806040838503121561263d578182fd5b823561264881612f06565b9150602083013561265881612f06565b809150509250929050565b60008060008060808587031215612678578182fd5b843561268381612f06565b935060208581013561269481612f06565b935060408601356001600160401b03808211156126af578485fd5b818801915088601f8301126126c2578485fd5b8135818111156126d4576126d4612ef0565b8060051b6126e3858201612cb7565b8281528581019085870183870188018e10156126fd57898afd5b8996505b8487101561271f578035835260019690960195918701918701612701565b5097505050506060880135925080831115612738578384fd5b5050612746878288016125c5565b91505092959194509250565b600080600060608486031215612766578283fd5b833561277181612f06565b9250602084013561278181612f06565b929592945050506040919091013590565b600080600080608085870312156127a7578384fd5b84356127b281612f06565b935060208501356127c281612f06565b92506040850135915060608501356001600160401b038111156127e3578182fd5b612746878288016125c5565b60008060408385031215612801578182fd5b823561280c81612f06565b9150602083013561265881612f1b565b60008060408385031215612612578182fd5b60006020828403121561283f578081fd5b81516109f681612f1b565b60006020828403121561285b578081fd5b5035919050565b600080600060608486031215612876578081fd5b8335925060208401359150604084013561288f81612f1b565b809150509250925092565b6000602082840312156128ab578081fd5b81356109f681612f29565b6000602082840312156128c7578081fd5b81516109f681612f29565b6000602082840312156128e3578081fd5b81356001600160401b038111156128f8578182fd5b8201601f81018413612908578182fd5b6116168482356020840161256e565b600060208284031215612928578081fd5b5051919050565b60008151808452612947816020860160208601612e34565b601f01601f19169290920160200192915050565b6000835161296d818460208801612e34565b835190830190612981818360208801612e34565b01949350505050565b6000835161299c818460208801612e34565b8351908301906129b0818360208801612e34565b64173539b7b760d91b9101908152600501949350505050565b600080845482600182811c9150808316806129e557607f831692505b6020808410821415612a0557634e487b7160e01b87526022600452602487fd5b818015612a195760018114612a2a57612a56565b60ff19861689528489019650612a56565b60008b815260209020885b86811015612a4e5781548b820152908501908301612a35565b505084890196505b50888652612a7181870164173539b7b760d91b815260050190565b9a9950505050505050505050565b6001600160a01b0385811682528416602082015260408101839052608060608201819052600090611a6d9083018461292f565b6001600160a01b0389811682526020820189905260408201889052861660608201526001600160e01b03198516608082015260a0810184905260c0810183905261010060e08201819052600090612b0b8382018561292f565b9b9a5050505050505050505050565b60018060a01b03841681528260208201526060604082015260006119bd606083018461292f565b6020815260006109f6602083018461292f565b60208082526032908201527f4552433732313a207472616e7366657220746f206e6f6e20455243373231526560408201527131b2b4bb32b91034b6b83632b6b2b73a32b960711b606082015260800190565b60208082526032908201527f46756e6374696f6e206973207265737472696374656420746f20746865206d616040820152711c9ad95d1c1b1858d94818dbdb9d1c9858dd60721b606082015260800190565b60208082526024908201527f41646472657373206d757374206265207665726966696564207468726f756768604082015263204b594360e01b606082015260800190565b60208082526010908201526f14185d5cd8589b194e881c185d5cd95960821b604082015260600190565b60208082526031908201527f4552433732313a207472616e736665722063616c6c6572206973206e6f74206f6040820152701ddb995c881b9bdc88185c1c1c9bdd9959607a1b606082015260800190565b604051601f8201601f191681016001600160401b0381118282101715612cdf57612cdf612ef0565b604052919050565b60008219821115612cfa57612cfa612ec4565b500190565b600082612d0e57612d0e612eda565b500490565b600181815b80851115612d4e578160001904821115612d3457612d34612ec4565b80851615612d4157918102915b93841c9390800290612d18565b509250929050565b60006109f68383600082612d6c57506001610481565b81612d7957506000610481565b8160018114612d8f5760028114612d9957612db5565b6001915050610481565b60ff841115612daa57612daa612ec4565b50506001821b610481565b5060208310610133831016604e8410600b8410161715612dd8575081810a610481565b612de28383612d13565b8060001904821115612df657612df6612ec4565b029392505050565b6000816000190483118215151615612e1857612e18612ec4565b500290565b600082821015612e2f57612e2f612ec4565b500390565b60005b83811015612e4f578181015183820152602001612e37565b838111156119085750506000910152565b600181811c90821680612e7457607f821691505b6020821081141561247d57634e487b7160e01b600052602260045260246000fd5b6000600019821415612ea957612ea9612ec4565b5060010190565b600082612ebf57612ebf612eda565b500690565b634e487b7160e01b600052601160045260246000fd5b634e487b7160e01b600052601260045260246000fd5b634e487b7160e01b600052604160045260246000fd5b6001600160a01b0381168114610d7257600080fd5b8015158114610d7257600080fd5b6001600160e01b031981168114610d7257600080fdfea2646970667358221220ea719a2344ba8c418965766aa9a3d5fca4a8cced1bf5751600092833c0d20fe164736f6c6343000804003368747470733a2f2f626166796265696875667464746635726a6b657035326b356166727964746c6f346d767a6e616668746d72737161756e616e696e796b65773371652e697066732e647765622e6c696e6b2f",
  "linkReferences": {},
  "deployedLinkReferences": {}
}