{
  "_format": "hh-sol-artifact-1",
  "contractName": "Collection",
  "sourceName": "contracts/Collection.sol",
  "abi": [
    {
      "inputs": [
        {
          "internalType": "address",
          "name": "operator",
          "type": "address"
        },
        {
          "internalType": "address",
          "name": "chainlinkToken",
          "type": "address"
        },
        {
          "internalType": "string",
          "name": "titleSearchUri_",
          "type": "string"
        }
      ],
      "stateMutability": "nonpayable",
      "type": "constructor"
    },
    {
      "anonymous": false,
      "inputs": [
        {
          "indexed": true,
          "internalType": "address",
          "name": "owner",
          "type": "address"
        },
        {
          "indexed": true,
          "internalType": "address",
          "name": "approved",
          "type": "address"
        },
        {
          "indexed": true,
          "internalType": "uint256",
          "name": "tokenId",
          "type": "uint256"
        }
      ],
      "name": "Approval",
      "type": "event"
    },
    {
      "anonymous": false,
      "inputs": [
        {
          "indexed": true,
          "internalType": "address",
          "name": "owner",
          "type": "address"
        },
        {
          "indexed": true,
          "internalType": "address",
          "name": "operator",
          "type": "address"
        },
        {
          "indexed": false,
          "internalType": "bool",
          "name": "approved",
          "type": "bool"
        }
      ],
      "name": "ApprovalForAll",
      "type": "event"
    },
    {
      "anonymous": false,
      "inputs": [
        {
          "indexed": true,
          "internalType": "bytes32",
          "name": "id",
          "type": "bytes32"
        }
      ],
      "name": "ChainlinkCancelled",
      "type": "event"
    },
    {
      "anonymous": false,
      "inputs": [
        {
          "indexed": true,
          "internalType": "bytes32",
          "name": "id",
          "type": "bytes32"
        }
      ],
      "name": "ChainlinkFulfilled",
      "type": "event"
    },
    {
      "anonymous": false,
      "inputs": [
        {
          "indexed": true,
          "internalType": "bytes32",
          "name": "id",
          "type": "bytes32"
        }
      ],
      "name": "ChainlinkRequested",
      "type": "event"
    },
    {
      "anonymous": false,
      "inputs": [
        {
          "indexed": true,
          "internalType": "address",
          "name": "titleOwner",
          "type": "address"
        },
        {
          "indexed": false,
          "internalType": "bytes32",
          "name": "titleId",
          "type": "bytes32"
        },
        {
          "indexed": false,
          "internalType": "uint256",
          "name": "deedId",
          "type": "uint256"
        }
      ],
      "name": "DeedMinted",
      "type": "event"
    },
    {
      "anonymous": false,
      "inputs": [
        {
          "indexed": true,
          "internalType": "address",
          "name": "from",
          "type": "address"
        },
        {
          "indexed": true,
          "internalType": "address",
          "name": "to",
          "type": "address"
        }
      ],
      "name": "OwnershipTransferRequested",
      "type": "event"
    },
    {
      "anonymous": false,
      "inputs": [
        {
          "indexed": true,
          "internalType": "address",
          "name": "from",
          "type": "address"
        },
        {
          "indexed": true,
          "internalType": "address",
          "name": "to",
          "type": "address"
        }
      ],
      "name": "OwnershipTransferred",
      "type": "event"
    },
    {
      "anonymous": false,
      "inputs": [
        {
          "indexed": false,
          "internalType": "address",
          "name": "account",
          "type": "address"
        }
      ],
      "name": "Paused",
      "type": "event"
    },
    {
      "anonymous": false,
      "inputs": [
        {
          "indexed": false,
          "internalType": "bytes32",
          "name": "titleId",
          "type": "bytes32"
        }
      ],
      "name": "TitleRejected",
      "type": "event"
    },
    {
      "anonymous": false,
      "inputs": [
        {
          "indexed": false,
          "internalType": "bytes32",
          "name": "titleId",
          "type": "bytes32"
        }
      ],
      "name": "TitleVerified",
      "type": "event"
    },
    {
      "anonymous": false,
      "inputs": [
        {
          "indexed": true,
          "internalType": "address",
          "name": "from",
          "type": "address"
        },
        {
          "indexed": true,
          "internalType": "address",
          "name": "to",
          "type": "address"
        },
        {
          "indexed": true,
          "internalType": "uint256",
          "name": "tokenId",
          "type": "uint256"
        }
      ],
      "name": "Transfer",
      "type": "event"
    },
    {
      "anonymous": false,
      "inputs": [
        {
          "indexed": false,
          "internalType": "address",
          "name": "account",
          "type": "address"
        }
      ],
      "name": "Unpaused",
      "type": "event"
    },
    {
      "inputs": [],
      "name": "acceptOwnership",
      "outputs": [],
      "stateMutability": "nonpayable",
      "type": "function"
    },
    {
      "inputs": [
        {
          "internalType": "address",
          "name": "to",
          "type": "address"
        },
        {
          "internalType": "uint256",
          "name": "tokenId",
          "type": "uint256"
        }
      ],
      "name": "approve",
      "outputs": [],
      "stateMutability": "nonpayable",
      "type": "function"
    },
    {
      "inputs": [
        {
          "internalType": "address",
          "name": "_wallet",
          "type": "address"
        }
      ],
      "name": "authorizeWallet",
      "outputs": [],
      "stateMutability": "nonpayable",
      "type": "function"
    },
    {
      "inputs": [
        {
          "internalType": "address",
          "name": "owner",
          "type": "address"
        }
      ],
      "name": "balanceOf",
      "outputs": [
        {
          "internalType": "uint256",
          "name": "",
          "type": "uint256"
        }
      ],
      "stateMutability": "view",
      "type": "function"
    },
    {
      "inputs": [
        {
          "internalType": "bytes32",
          "name": "_bytes32",
          "type": "bytes32"
        }
      ],
      "name": "bytes32ToString",
      "outputs": [
        {
          "internalType": "string",
          "name": "",
          "type": "string"
        }
      ],
      "stateMutability": "pure",
      "type": "function"
    },
    {
      "inputs": [
        {
          "internalType": "address",
          "name": "_wallet",
          "type": "address"
        }
      ],
      "name": "deauthorizeWallet",
      "outputs": [],
      "stateMutability": "nonpayable",
      "type": "function"
    },
    {
      "inputs": [
        {
          "internalType": "uint256",
          "name": "deedId",
          "type": "uint256"
        }
      ],
      "name": "exists",
      "outputs": [
        {
          "internalType": "bool",
          "name": "",
          "type": "bool"
        }
      ],
      "stateMutability": "view",
      "type": "function"
    },
    {
      "inputs": [
        {
          "internalType": "bytes32",
          "name": "requestId",
          "type": "bytes32"
        },
        {
          "internalType": "bytes20",
          "name": "_owner",
          "type": "bytes20"
        },
        {
          "internalType": "uint8",
          "name": "fractionalization",
          "type": "uint8"
        },
        {
          "internalType": "bool",
          "name": "_verified",
          "type": "bool"
        }
      ],
      "name": "fulfillTitleOwnershipVerification",
      "outputs": [],
      "stateMutability": "nonpayable",
      "type": "function"
    },
    {
      "inputs": [
        {
          "internalType": "uint256",
          "name": "tokenId",
          "type": "uint256"
        }
      ],
      "name": "getApproved",
      "outputs": [
        {
          "internalType": "address",
          "name": "",
          "type": "address"
        }
      ],
      "stateMutability": "view",
      "type": "function"
    },
    {
      "inputs": [
        {
          "internalType": "bytes32",
          "name": "titleId",
          "type": "bytes32"
        }
      ],
      "name": "getTitle",
      "outputs": [
        {
          "internalType": "address",
          "name": "owner",
          "type": "address"
        },
        {
          "internalType": "uint8",
          "name": "deedsLeftToMint_",
          "type": "uint8"
        },
        {
          "internalType": "uint256[]",
          "name": "deeds_",
          "type": "uint256[]"
        }
      ],
      "stateMutability": "view",
      "type": "function"
    },
    {
      "inputs": [
        {
          "internalType": "address",
          "name": "owner",
          "type": "address"
        },
        {
          "internalType": "address",
          "name": "operator",
          "type": "address"
        }
      ],
      "name": "isApprovedForAll",
      "outputs": [
        {
          "internalType": "bool",
          "name": "",
          "type": "bool"
        }
      ],
      "stateMutability": "view",
      "type": "function"
    },
    {
      "inputs": [
        {
          "internalType": "bytes32",
          "name": "titleId",
          "type": "bytes32"
        },
        {
          "internalType": "uint8",
          "name": "howMany",
          "type": "uint8"
        }
      ],
      "name": "mintDeeds",
      "outputs": [],
      "stateMutability": "nonpayable",
      "type": "function"
    },
    {
      "inputs": [],
      "name": "name",
      "outputs": [
        {
          "internalType": "string",
          "name": "",
          "type": "string"
        }
      ],
      "stateMutability": "view",
      "type": "function"
    },
    {
      "inputs": [],
      "name": "owner",
      "outputs": [
        {
          "internalType": "address",
          "name": "",
          "type": "address"
        }
      ],
      "stateMutability": "view",
      "type": "function"
    },
    {
      "inputs": [
        {
          "internalType": "uint256",
          "name": "tokenId",
          "type": "uint256"
        }
      ],
      "name": "ownerOf",
      "outputs": [
        {
          "internalType": "address",
          "name": "",
          "type": "address"
        }
      ],
      "stateMutability": "view",
      "type": "function"
    },
    {
      "inputs": [],
      "name": "pause",
      "outputs": [],
      "stateMutability": "nonpayable",
      "type": "function"
    },
    {
      "inputs": [],
      "name": "paused",
      "outputs": [
        {
          "internalType": "bool",
          "name": "",
          "type": "bool"
        }
      ],
      "stateMutability": "view",
      "type": "function"
    },
    {
      "inputs": [
        {
          "internalType": "address",
          "name": "from",
          "type": "address"
        },
        {
          "internalType": "address",
          "name": "to",
          "type": "address"
        },
        {
          "internalType": "uint256",
          "name": "tokenId",
          "type": "uint256"
        }
      ],
      "name": "safeTransferFrom",
      "outputs": [],
      "stateMutability": "nonpayable",
      "type": "function"
    },
    {
      "inputs": [
        {
          "internalType": "address",
          "name": "from",
          "type": "address"
        },
        {
          "internalType": "address",
          "name": "to",
          "type": "address"
        },
        {
          "internalType": "uint256",
          "name": "deedId",
          "type": "uint256"
        },
        {
          "internalType": "bytes",
          "name": "data",
          "type": "bytes"
        }
      ],
      "name": "safeTransferFrom",
      "outputs": [],
      "stateMutability": "nonpayable",
      "type": "function"
    },
    {
      "inputs": [
        {
          "internalType": "address",
          "name": "operator",
          "type": "address"
        },
        {
          "internalType": "bool",
          "name": "approved",
          "type": "bool"
        }
      ],
      "name": "setApprovalForAll",
      "outputs": [],
      "stateMutability": "nonpayable",
      "type": "function"
    },
    {
      "inputs": [
        {
          "internalType": "string",
          "name": "newJobId",
          "type": "string"
        }
      ],
      "name": "setJobId",
      "outputs": [],
      "stateMutability": "nonpayable",
      "type": "function"
    },
    {
      "inputs": [
        {
          "internalType": "address",
          "name": "newMarketplaceContract",
          "type": "address"
        }
      ],
      "name": "setMarketplaceContract",
      "outputs": [],
      "stateMutability": "nonpayable",
      "type": "function"
    },
    {
      "inputs": [
        {
          "internalType": "string",
          "name": "newURI",
          "type": "string"
        }
      ],
      "name": "setTitleSearchURI",
      "outputs": [],
      "stateMutability": "nonpayable",
      "type": "function"
    },
    {
      "inputs": [
        {
          "internalType": "string",
          "name": "newURI",
          "type": "string"
        }
      ],
      "name": "setTokenURI",
      "outputs": [],
      "stateMutability": "nonpayable",
      "type": "function"
    },
    {
      "inputs": [
        {
          "internalType": "string",
          "name": "source",
          "type": "string"
        }
      ],
      "name": "stringToBytes32",
      "outputs": [
        {
          "internalType": "bytes32",
          "name": "result",
          "type": "bytes32"
        }
      ],
      "stateMutability": "pure",
      "type": "function"
    },
    {
      "inputs": [
        {
          "internalType": "bytes4",
          "name": "interfaceId",
          "type": "bytes4"
        }
      ],
      "name": "supportsInterface",
      "outputs": [
        {
          "internalType": "bool",
          "name": "",
          "type": "bool"
        }
      ],
      "stateMutability": "view",
      "type": "function"
    },
    {
      "inputs": [],
      "name": "symbol",
      "outputs": [
        {
          "internalType": "string",
          "name": "",
          "type": "string"
        }
      ],
      "stateMutability": "view",
      "type": "function"
    },
    {
      "inputs": [
        {
          "internalType": "uint256",
          "name": "tokenId",
          "type": "uint256"
        }
      ],
      "name": "tokenURI",
      "outputs": [
        {
          "internalType": "string",
          "name": "",
          "type": "string"
        }
      ],
      "stateMutability": "view",
      "type": "function"
    },
    {
      "inputs": [
        {
          "internalType": "address",
          "name": "from",
          "type": "address"
        },
        {
          "internalType": "address",
          "name": "to",
          "type": "address"
        },
        {
          "internalType": "uint256",
          "name": "tokenId",
          "type": "uint256"
        }
      ],
      "name": "transferFrom",
      "outputs": [],
      "stateMutability": "nonpayable",
      "type": "function"
    },
    {
      "inputs": [
        {
          "internalType": "address",
          "name": "to",
          "type": "address"
        }
      ],
      "name": "transferOwnership",
      "outputs": [],
      "stateMutability": "nonpayable",
      "type": "function"
    },
    {
      "inputs": [],
      "name": "unpause",
      "outputs": [],
      "stateMutability": "nonpayable",
      "type": "function"
    },
    {
      "inputs": [
        {
          "internalType": "uint256",
          "name": "deedId",
          "type": "uint256"
        }
      ],
      "name": "uri",
      "outputs": [
        {
          "internalType": "string",
          "name": "",
          "type": "string"
        }
      ],
      "stateMutability": "view",
      "type": "function"
    },
    {
      "inputs": [
        {
          "internalType": "bytes32",
          "name": "titleId",
          "type": "bytes32"
        }
      ],
      "name": "verifyTitleOwnership",
      "outputs": [
        {
          "internalType": "bytes32",
          "name": "requestId",
          "type": "bytes32"
        }
      ],
      "stateMutability": "nonpayable",
      "type": "function"
    },
    {
      "inputs": [],
      "name": "withdrawLink",
      "outputs": [],
      "stateMutability": "nonpayable",
      "type": "function"
    }
  ],
  "bytecode": "0x60806040526001600a553480156200001657600080fd5b50604051620037b3380380620037b38339810160408190526200003991620003f6565b604080518082018252600a8152694e6f6d6164486f75736560b01b60208083019182528351808501909452600384526209c9a960eb1b9084015281513393849360009390926200008b91859162000333565b508051620000a190600190602084019062000333565b50506006805460ff19169055506001600160a01b0382166200010a5760405162461bcd60e51b815260206004820152601860248201527f43616e6e6f7420736574206f776e657220746f207a65726f000000000000000060448201526064015b60405180910390fd5b600c80546001600160a01b0319166001600160a01b03848116919091179091558116156200013d576200013d81620001eb565b5050601480546001600160a01b0386166001600160a01b0319918216811790925560098054909116909117905550600880546001600160a01b0319166001600160a01b03841617905580516200019b90601890602084019062000333565b507f613232383364623830383166343932356132643239303439346361653761313560155567016345785d8a0000601655601280546001018155600052620001e262000298565b50505062000547565b6001600160a01b038116331415620002465760405162461bcd60e51b815260206004820152601760248201527f43616e6e6f74207472616e7366657220746f2073656c66000000000000000000604482015260640162000101565b600d80546001600160a01b0319166001600160a01b03838116918217909255600c54604051919216907fed8889f560326eb138920d842192f0eb3dd22b4f139c87a2c57538e05bae127890600090a350565b60065460ff1615620002e05760405162461bcd60e51b815260206004820152601060248201526f14185d5cd8589b194e881c185d5cd95960821b604482015260640162000101565b6006805460ff191660011790557f62e78cea01bee320cd4e420270b5ea74000d11b0c9f74754ebdbfc544b05a258620003163390565b6040516001600160a01b03909116815260200160405180910390a1565b8280546200034190620004f4565b90600052602060002090601f016020900481019282620003655760008555620003b0565b82601f106200038057805160ff1916838001178555620003b0565b82800160010185558215620003b0579182015b82811115620003b057825182559160200191906001019062000393565b50620003be929150620003c2565b5090565b5b80821115620003be5760008155600101620003c3565b80516001600160a01b0381168114620003f157600080fd5b919050565b6000806000606084860312156200040b578283fd5b6200041684620003d9565b9250602062000427818601620003d9565b60408601519093506001600160401b038082111562000444578384fd5b818701915087601f83011262000458578384fd5b8151818111156200046d576200046d62000531565b604051601f8201601f19908116603f0116810190838211818310171562000498576200049862000531565b816040528281528a86848701011115620004b0578687fd5b8693505b82841015620004d35784840186015181850187015292850192620004b4565b82841115620004e457868684830101525b8096505050505050509250925092565b600181811c908216806200050957607f821691505b602082108114156200052b57634e487b7160e01b600052602260045260246000fd5b50919050565b634e487b7160e01b600052604160045260246000fd5b61325c80620005576000396000f3fe608060405234801561001057600080fd5b50600436106102065760003560e01c806379ba50971161011a578063a92d3260116100ad578063cfb519281161007c578063cfb519281461043f578063e0df5b6f14610452578063e985e9c514610465578063f2fde38b14610478578063fbeaa8b11461048b57600080fd5b8063a92d3260146103f3578063b88d4fde14610406578063bdcf3db914610419578063c87b56dd1461042c57600080fd5b80638dc654a2116100e95780638dc654a2146103bd5780639201de55146103c557806395d89b41146103d8578063a22cb465146103e057600080fd5b806379ba5097146103895780638456cb59146103915780638a2a8e30146103995780638da5cb5b146103ac57600080fd5b806323b872dd1161019d5780634f558e791161016c5780634f558e79146103325780635c975abb146103455780636352211e146103505780636b0275361461036357806370a082311461037657600080fd5b806323b872dd146102e35780633f4ba83a146102f6578063420fd265146102fe57806342842e0e1461031f57600080fd5b80630e89341c116101d95780630e89341c146102885780631102610e1461029b578063129fc1c0146102ae5780631a3e91b9146102c157600080fd5b806301ffc9a71461020b57806306fdde0314610233578063081812fc14610248578063095ea7b314610273575b600080fd5b61021e610219366004612bb3565b61049e565b60405190151581526020015b60405180910390f35b61023b6104f0565b60405161022a9190612ec0565b61025b610256366004612b18565b610582565b6040516001600160a01b03909116815260200161022a565b610286610281366004612ad3565b61060f565b005b61023b610296366004612b18565b610725565b6102866102a936600461299e565b6107aa565b6102866102bc366004612beb565b6107d4565b6102d46102cf366004612b18565b6107eb565b60405161022a93929190612e5e565b6102866102f13660046129ea565b61090a565b61028661093b565b61031161030c366004612b18565b61094d565b60405190815260200161022a565b61028661032d3660046129ea565b610ac8565b61021e610340366004612b18565b610ae3565b60065460ff1661021e565b61025b61035e366004612b18565b610aee565b610286610371366004612beb565b610b65565b61031161038436600461299e565b610b84565b610286610c0b565b610286610cb9565b6102866103a7366004612b91565b610cc9565b600c546001600160a01b031661025b565b610286610e70565b61023b6103d3366004612b18565b610fd2565b61023b61114e565b6102866103ee366004612a9d565b61115d565b610286610401366004612b30565b611168565b610286610414366004612a25565b611439565b61028661042736600461299e565b611558565b61023b61043a366004612b18565b6115d7565b61031161044d366004612beb565b6116a1565b610286610460366004612beb565b6116be565b61021e6104733660046129b8565b6116d9565b61028661048636600461299e565b611707565b61028661049936600461299e565b611718565b60006001600160e01b031982166380ac58cd60e01b14806104cf57506001600160e01b03198216635b5e139f60e01b145b806104ea57506301ffc9a760e01b6001600160e01b03198316145b92915050565b6060600080546104ff9061313c565b80601f016020809104026020016040519081016040528092919081815260200182805461052b9061313c565b80156105785780601f1061054d57610100808354040283529160200191610578565b820191906000526020600020905b81548152906001019060200180831161055b57829003601f168201915b5050505050905090565b600061058d826117a8565b6105f35760405162461bcd60e51b815260206004820152602c60248201527f4552433732313a20617070726f76656420717565727920666f72206e6f6e657860448201526b34b9ba32b73a103a37b5b2b760a11b60648201526084015b60405180910390fd5b506000908152600460205260409020546001600160a01b031690565b600061061a82610aee565b9050806001600160a01b0316836001600160a01b031614156106885760405162461bcd60e51b815260206004820152602160248201527f4552433732313a20617070726f76616c20746f2063757272656e74206f776e656044820152603960f91b60648201526084016105ea565b336001600160a01b03821614806106a457506106a481336116d9565b6107165760405162461bcd60e51b815260206004820152603860248201527f4552433732313a20617070726f76652063616c6c6572206973206e6f74206f7760448201527f6e6572206e6f7220617070726f76656420666f7220616c6c000000000000000060648201526084016105ea565b61072083836117c5565b505050565b6060610730826117a8565b6107725760405162461bcd60e51b81526020600482015260136024820152721119595908191bd95cc81b9bdd08195e1a5cdd606a1b60448201526064016105ea565b61077a611833565b61078383611842565b604051602001610794929190612cbf565b6040516020818303038152906040529050919050565b6107b2611963565b601980546001600160a01b0319166001600160a01b0392909216919091179055565b6107dc611963565b6107e5816116a1565b60155550565b6000818152600f6020908152604080832054601083528184205460119093529220546001600160a01b039092169160ff909116906060906001600160401b0381111561084757634e487b7160e01b600052604160045260246000fd5b604051908082528060200260200182016040528015610870578160200160208202803683370190505b50905060005b6000858152601160205260409020548110156109025760008581526011602052604090208054829081106108ba57634e487b7160e01b600052603260045260246000fd5b90600052602060002001548282815181106108e557634e487b7160e01b600052603260045260246000fd5b6020908102919091010152806108fa81613171565b915050610876565b509193909250565b61091433826119b6565b6109305760405162461bcd60e51b81526004016105ea90612f4f565b610720838383611a7f565b610943611963565b61094b611c1b565b565b600061095b60065460ff1690565b156109785760405162461bcd60e51b81526004016105ea90612f25565b6000828152600f60205260409020546001600160a01b0316156109d65760405162461bcd60e51b81526020600482015260166024820152751d1a5d1b1948185b1c9958591e481d995c9a599a595960521b60448201526064016105ea565b60006109ec6015543063a92d326060e01b611cae565b9050610a416040518060400160405280600381526020016219d95d60ea1b8152506018610a1886610fd2565b604051602001610a29929190612cfe565b60408051601f19818403018152919052839190611cd3565b601454601654610a5c916001600160a01b0316908390611cf1565b6000818152600e602052604090205490925015610ab25760405162461bcd60e51b81526020600482015260146024820152731c995c5d595cdd08185b1c9958591e481cd95b9d60621b60448201526064016105ea565b506000818152600e602052604090209190915590565b61072083838360405180602001604052806000815250611439565b60006104ea826117a8565b6000818152600260205260408120546001600160a01b0316806104ea5760405162461bcd60e51b815260206004820152602960248201527f4552433732313a206f776e657220717565727920666f72206e6f6e657869737460448201526832b73a103a37b5b2b760b91b60648201526084016105ea565b610b6d611963565b8051610b809060189060208401906127ee565b5050565b60006001600160a01b038216610bef5760405162461bcd60e51b815260206004820152602a60248201527f4552433732313a2062616c616e636520717565727920666f7220746865207a65604482015269726f206164647265737360b01b60648201526084016105ea565b506001600160a01b031660009081526003602052604090205490565b600d546001600160a01b03163314610c5e5760405162461bcd60e51b815260206004820152601660248201527526bab9ba10313290383937b837b9b2b21037bbb732b960511b60448201526064016105ea565b600c80546001600160a01b031980821633908117909355600d805490911690556040516001600160a01b03909116919082907f8be0079c531659141344cd1fd0a4f28419497f9722a3daafe3b4186f6b6457e090600090a350565b610cc1611963565b61094b611d82565b60065460ff1615610cec5760405162461bcd60e51b81526004016105ea90612f25565b6000828152600f602052604090205482906001600160a01b03163314610d545760405162461bcd60e51b815260206004820152601d60248201527f6d73672e73656e646572206973206e6f74207469746c65206f776e657200000060448201526064016105ea565b600083815260106020526040902054610d7190839060ff16611dda565b600084815260106020526040812080549294508492909190610d9790849060ff166130ed565b92506101000a81548160ff021916908360ff16021790555060005b8260ff16811015610e6a57601254610dca3382611df7565b6012805460018082019092557fbb8a6a4669ba250d26cd7a459eca9d215f8307e33aebe50379bc5a3617ec344401869055600086815260116020908152604080832080549485018155835291819020909201839055805187815291820183905233917fbdb24c7cfe050b0ab3bbd01b4a08f32542b455a89ea559cad19322f4413ec0de910160405180910390a25080610e6281613171565b915050610db2565b50505050565b610e78611963565b6000610e8c6008546001600160a01b031690565b6040516370a0823160e01b81523060048201529091506001600160a01b0382169063a9059cbb90339083906370a082319060240160206040518083038186803b158015610ed857600080fd5b505afa158015610eec573d6000803e3d6000fd5b505050506040513d601f19601f82011682018060405250810190610f109190612c30565b6040516001600160e01b031960e085901b1681526001600160a01b0390921660048301526024820152604401602060405180830381600087803b158015610f5657600080fd5b505af1158015610f6a573d6000803e3d6000fd5b505050506040513d601f19601f82011682018060405250810190610f8e9190612afc565b610fcf5760405162461bcd60e51b81526020600482015260126024820152712ab730b13632903a37903a3930b739b332b960711b60448201526064016105ea565b50565b606060005b60208160ff161080156110195750828160ff166020811061100857634e487b7160e01b600052603260045260246000fd5b1a60f81b6001600160f81b03191615155b1561103057806110288161318c565b915050610fd7565b60008160ff166001600160401b0381111561105b57634e487b7160e01b600052604160045260246000fd5b6040519080825280601f01601f191660200182016040528015611085576020820181803683370190505b509050600091505b60208260ff161080156110cf5750838260ff16602081106110be57634e487b7160e01b600052603260045260246000fd5b1a60f81b6001600160f81b03191615155b1561114757838260ff16602081106110f757634e487b7160e01b600052603260045260246000fd5b1a60f81b818360ff168151811061111e57634e487b7160e01b600052603260045260246000fd5b60200101906001600160f81b031916908160001a9053508161113f8161318c565b92505061108d565b9392505050565b6060600180546104ff9061313c565b610b80338383611e11565b60065460ff161561118b5760405162461bcd60e51b81526004016105ea90612f25565b6000848152600b602052604090205484906001600160a01b031633146112045760405162461bcd60e51b815260206004820152602860248201527f536f75726365206d75737420626520746865206f7261636c65206f6620746865604482015267081c995c5d595cdd60c21b60648201526084016105ea565b6000818152600b602052604080822080546001600160a01b03191690555182917f7cc135e0cebb02c3480ae5d74d377283180a2601f8f644edf7987b009316c63a91a26000858152600e60209081526040808320805490849055808452600f909252909120546001600160a01b0316156112b95760405162461bcd60e51b81526020600482015260166024820152751d1a5d1b1948185b1c9958591e481d995c9a599a595960521b60448201526064016105ea565b60348460ff1611156113335760405162461bcd60e51b815260206004820152603a60248201527f44656564732063616e6e6f74206265206672616374696f6e616c697a6564206960448201527f6e746f206d6f7265207468616e203532206672616374696f6e7300000000000060648201526084016105ea565b82611371576040518181527f6d5dc5a890300459588342edd2ed87fbde40cc2f033b6f7e985cbaca45eb62399060200160405180910390a150611432565b6000818152600f60209081526040808320805460608a901c6001600160a01b0319909116811790915560108352818420805460ff191660ff8a16179055815184815280840180845286865260119094529190932090516113d19290612872565b506001600160a01b03811660009081526013602052604090819020805460ff19166001179055517f7902501974c6ed9fa074d8a846b5382531cdff9d755f2bc80acff802f0266c89906114279084815260200190565b60405180910390a150505b5050505050565b60065460ff161561145c5760405162461bcd60e51b81526004016105ea90612f25565b6001600160a01b038316600090815260136020526040902054839060ff1615156001146114d75760405162461bcd60e51b8152602060048201526024808201527f41646472657373206d757374206265207665726966696564207468726f756768604482015263204b594360e01b60648201526084016105ea565b6019546001600160a01b0316331461154c5760405162461bcd60e51b815260206004820152603260248201527f46756e6374696f6e206973207265737472696374656420746f20746865206d616044820152711c9ad95d1c1b1858d94818dbdb9d1c9858dd60721b60648201526084016105ea565b61143285858585611ee0565b611560611963565b6001600160a01b0381166115b65760405162461bcd60e51b815260206004820152601b60248201527f57616c6c657420616464726573732063616e6e6f7420656d707479000000000060448201526064016105ea565b6001600160a01b03166000908152601360205260409020805460ff19169055565b60606115e2826117a8565b6116465760405162461bcd60e51b815260206004820152602f60248201527f4552433732314d657461646174613a2055524920717565727920666f72206e6f60448201526e3732bc34b9ba32b73a103a37b5b2b760891b60648201526084016105ea565b6000611650611833565b905060008151116116705760405180602001604052806000815250611147565b8061167a84611842565b60405160200161168b929190612c90565b6040516020818303038152906040529392505050565b805160009082906116b55750600092915050565b50506020015190565b6116c6611963565b8051610b809060179060208401906127ee565b6001600160a01b03918216600090815260056020908152604080832093909416825291909152205460ff1690565b61170f611963565b610fcf81611f12565b611720611963565b6001600160a01b0381166117845760405162461bcd60e51b815260206004820152602560248201527f57616c6c657420616464726573732063616e6e6f74206265207a65726f206164604482015264647265737360d81b60648201526084016105ea565b6001600160a01b03166000908152601360205260409020805460ff19166001179055565b6000908152600260205260409020546001600160a01b0316151590565b600081815260046020526040902080546001600160a01b0319166001600160a01b03841690811790915581906117fa82610aee565b6001600160a01b03167f8c5be1e5ebec7d5bd14f71427d1e84f3dd0314c0f7b2291e5b200ac8c7c3b92560405160405180910390a45050565b6060601780546104ff9061313c565b6060816118665750506040805180820190915260018152600360fc1b602082015290565b8160005b8115611890578061187a81613171565b91506118899050600a83612fb8565b915061186a565b6000816001600160401b038111156118b857634e487b7160e01b600052604160045260246000fd5b6040519080825280601f01601f1916602001820160405280156118e2576020820181803683370190505b5090505b841561195b576118f76001836130d6565b9150611904600a866131ac565b61190f906030612fa0565b60f81b81838151811061193257634e487b7160e01b600052603260045260246000fd5b60200101906001600160f81b031916908160001a905350611954600a86612fb8565b94506118e6565b949350505050565b600c546001600160a01b0316331461094b5760405162461bcd60e51b815260206004820152601660248201527527b7363c9031b0b63630b1363290313c9037bbb732b960511b60448201526064016105ea565b60006119c1826117a8565b611a225760405162461bcd60e51b815260206004820152602c60248201527f4552433732313a206f70657261746f7220717565727920666f72206e6f6e657860448201526b34b9ba32b73a103a37b5b2b760a11b60648201526084016105ea565b6000611a2d83610aee565b9050806001600160a01b0316846001600160a01b03161480611a545750611a5481856116d9565b8061195b5750836001600160a01b0316611a6d84610582565b6001600160a01b031614949350505050565b826001600160a01b0316611a9282610aee565b6001600160a01b031614611af65760405162461bcd60e51b815260206004820152602560248201527f4552433732313a207472616e736665722066726f6d20696e636f72726563742060448201526437bbb732b960d91b60648201526084016105ea565b6001600160a01b038216611b585760405162461bcd60e51b8152602060048201526024808201527f4552433732313a207472616e7366657220746f20746865207a65726f206164646044820152637265737360e01b60648201526084016105ea565b611b636000826117c5565b6001600160a01b0383166000908152600360205260408120805460019290611b8c9084906130d6565b90915550506001600160a01b0382166000908152600360205260408120805460019290611bba908490612fa0565b909155505060008181526002602052604080822080546001600160a01b0319166001600160a01b0386811691821790925591518493918716917fddf252ad1be2c89b69c2b068fc378daa952ba7f163c4a11628f55a4df523b3ef91a4505050565b60065460ff16611c645760405162461bcd60e51b815260206004820152601460248201527314185d5cd8589b194e881b9bdd081c185d5cd95960621b60448201526064016105ea565b6006805460ff191690557f5db9ee0a495bf2e6ff9c91a7834c1ba4fdd244a5e8aa4e537bd38aeae4b073aa335b6040516001600160a01b03909116815260200160405180910390a1565b611cb66128ac565b611cbe6128ac565b611cca81868686611fbd565b95945050505050565b6080830151611ce29083611ffa565b60808301516107209082611ffa565b600a54600090611d02816001612fa0565b600a5583516040808601516080870151519151600093633c6d41b960e01b93611d38938693849392899160029190602401612de2565b60408051601f198184030181529190526020810180516001600160e01b03166001600160e01b0319909316929092179091529050611d7886838684612011565b9695505050505050565b60065460ff1615611da55760405162461bcd60e51b81526004016105ea90612f25565b6006805460ff191660011790557f62e78cea01bee320cd4e420270b5ea74000d11b0c9f74754ebdbfc544b05a258611c913390565b60008160ff168360ff161015611df15750816104ea565b50919050565b610b8082826040518060200160405280600081525061217e565b816001600160a01b0316836001600160a01b03161415611e735760405162461bcd60e51b815260206004820152601960248201527f4552433732313a20617070726f766520746f2063616c6c65720000000000000060448201526064016105ea565b6001600160a01b03838116600081815260056020908152604080832094871680845294825291829020805460ff191686151590811790915591519182527f17307eab39ab6107e8899845ad3d59bd9653f200f220920489ca2b5937696c31910160405180910390a3505050565b611eea33836119b6565b611f065760405162461bcd60e51b81526004016105ea90612f4f565b610e6a848484846121b1565b6001600160a01b038116331415611f6b5760405162461bcd60e51b815260206004820152601760248201527f43616e6e6f74207472616e7366657220746f2073656c6600000000000000000060448201526064016105ea565b600d80546001600160a01b0319166001600160a01b03838116918217909255600c54604051919216907fed8889f560326eb138920d842192f0eb3dd22b4f139c87a2c57538e05bae127890600090a350565b611fc56128ac565b611fd585608001516101006121e4565b50509183526001600160a01b031660208301526001600160e01b031916604082015290565b6120078260038351612249565b6107208282612350565b6040516bffffffffffffffffffffffff193060601b1660208201526034810184905260009060540160408051808303601f1901815282825280516020918201206000818152600b90925291812080546001600160a01b0319166001600160a01b038a1617905590925082917fb5e6e01e79f91267dc17b4e6314d5d4d03593d2ceee0fbb452b750bd70ea5af99190a2600854604051630200057560e51b81526001600160a01b0390911690634000aea0906120d490889087908790600401612e37565b602060405180830381600087803b1580156120ee57600080fd5b505af1158015612102573d6000803e3d6000fd5b505050506040513d601f19601f820116820180604052508101906121269190612afc565b61195b5760405162461bcd60e51b815260206004820152602360248201527f756e61626c6520746f207472616e73666572416e6443616c6c20746f206f7261604482015262636c6560e81b60648201526084016105ea565b6121888383612377565b61219560008484846124aa565b6107205760405162461bcd60e51b81526004016105ea90612ed3565b6121bc848484611a7f565b6121c8848484846124aa565b610e6a5760405162461bcd60e51b81526004016105ea90612ed3565b6040805180820190915260608152600060208201526122046020836131ac565b1561222c576122146020836131ac565b61221f9060206130d6565b6122299083612fa0565b91505b506020828101829052604080518085526000815290920101905290565b6017816001600160401b03161161226d57610e6a8360e0600585901b1683176125b4565b60ff816001600160401b0316116122a957612293836018611fe0600586901b16176125b4565b50610e6a836001600160401b03831660016125d9565b61ffff816001600160401b0316116122e6576122d0836019611fe0600586901b16176125b4565b50610e6a836001600160401b03831660026125d9565b63ffffffff816001600160401b0316116123255761230f83601a611fe0600586901b16176125b4565b50610e6a836001600160401b03831660046125d9565b61233a83601b611fe0600586901b16176125b4565b50610e6a836001600160401b03831660086125d9565b604080518082019091526060815260006020820152611147838460000151518485516125ff565b6001600160a01b0382166123cd5760405162461bcd60e51b815260206004820181905260248201527f4552433732313a206d696e7420746f20746865207a65726f206164647265737360448201526064016105ea565b6123d6816117a8565b156124235760405162461bcd60e51b815260206004820152601c60248201527f4552433732313a20746f6b656e20616c7265616479206d696e7465640000000060448201526064016105ea565b6001600160a01b038216600090815260036020526040812080546001929061244c908490612fa0565b909155505060008181526002602052604080822080546001600160a01b0319166001600160a01b03861690811790915590518392907fddf252ad1be2c89b69c2b068fc378daa952ba7f163c4a11628f55a4df523b3ef908290a45050565b60006001600160a01b0384163b156125ac57604051630a85bd0160e11b81526001600160a01b0385169063150b7a02906124ee903390899088908890600401612daf565b602060405180830381600087803b15801561250857600080fd5b505af1925050508015612538575060408051601f3d908101601f1916820190925261253591810190612bcf565b60015b612592573d808015612566576040519150601f19603f3d011682016040523d82523d6000602084013e61256b565b606091505b50805161258a5760405162461bcd60e51b81526004016105ea90612ed3565b805181602001fd5b6001600160e01b031916630a85bd0160e11b14905061195b565b50600161195b565b60408051808201909152606081526000602082015261114783846000015151846126e9565b60408051808201909152606081526000602082015261195b848560000151518585612745565b604080518082019091526060815260006020820152825182111561262257600080fd5b60208501516126318386612fa0565b111561266457612664856126548760200151878661264f9190612fa0565b6127c6565b61265f9060026130b7565b6127d7565b6000808651805187602083010193508088870111156126835787860182525b505050602084015b602084106126c357805182526126a2602083612fa0565b91506126af602082612fa0565b90506126bc6020856130d6565b935061268b565b51815160001960208690036101000a019081169019919091161790525083949350505050565b6040805180820190915260608152600060208201528360200151831061271e5761271e848560200151600261265f91906130b7565b83518051602085830101848153508085141561273b576001810182525b5093949350505050565b60408051808201909152606081526000602082015260208501516127698584612fa0565b111561277d5761277d856126548685612fa0565b6000600161278d8461010061300f565b61279791906130d6565b90508551838682010185831982511617815250805184870111156127bb5783860181525b509495945050505050565b600081831115611df15750816104ea565b81516127e383836121e4565b50610e6a8382612350565b8280546127fa9061313c565b90600052602060002090601f01602090048101928261281c5760008555612862565b82601f1061283557805160ff1916838001178555612862565b82800160010185558215612862579182015b82811115612862578251825591602001919060010190612847565b5061286e9291506128e7565b5090565b8280548282559060005260206000209081019282156128625791602002820182811115612862578251825591602001919060010190612847565b6040805160a0810182526000808252602080830182905282840182905260608084018390528451808601909552845283015290608082015290565b5b8082111561286e57600081556001016128e8565b60006001600160401b0380841115612916576129166131ec565b604051601f8501601f19908116603f0116810190828211818310171561293e5761293e6131ec565b8160405280935085815286868601111561295757600080fd5b858560208301376000602087830101525050509392505050565b80356001600160a01b038116811461298857600080fd5b919050565b803560ff8116811461298857600080fd5b6000602082840312156129af578081fd5b61114782612971565b600080604083850312156129ca578081fd5b6129d383612971565b91506129e160208401612971565b90509250929050565b6000806000606084860312156129fe578081fd5b612a0784612971565b9250612a1560208501612971565b9150604084013590509250925092565b60008060008060808587031215612a3a578081fd5b612a4385612971565b9350612a5160208601612971565b92506040850135915060608501356001600160401b03811115612a72578182fd5b8501601f81018713612a82578182fd5b612a91878235602084016128fc565b91505092959194509250565b60008060408385031215612aaf578182fd5b612ab883612971565b91506020830135612ac881613202565b809150509250929050565b60008060408385031215612ae5578182fd5b612aee83612971565b946020939093013593505050565b600060208284031215612b0d578081fd5b815161114781613202565b600060208284031215612b29578081fd5b5035919050565b60008060008060808587031215612b45578384fd5b8435935060208501356bffffffffffffffffffffffff1981168114612b68578384fd5b9250612b766040860161298d565b91506060850135612b8681613202565b939692955090935050565b60008060408385031215612ba3578182fd5b823591506129e16020840161298d565b600060208284031215612bc4578081fd5b813561114781613210565b600060208284031215612be0578081fd5b815161114781613210565b600060208284031215612bfc578081fd5b81356001600160401b03811115612c11578182fd5b8201601f81018413612c21578182fd5b61195b848235602084016128fc565b600060208284031215612c41578081fd5b5051919050565b60008151808452612c60816020860160208601613110565b601f01601f19169290920160200192915050565b60008151612c86818560208601613110565b9290920192915050565b60008351612ca2818460208801613110565b835190830190612cb6818360208801613110565b01949350505050565b60008351612cd1818460208801613110565b835190830190612ce5818360208801613110565b64173539b7b760d91b9101908152600501949350505050565b600080845482600182811c915080831680612d1a57607f831692505b6020808410821415612d3a57634e487b7160e01b87526022600452602487fd5b818015612d4e5760018114612d5f57612d8b565b60ff19861689528489019650612d8b565b60008b815260209020885b86811015612d835781548b820152908501908301612d6a565b505084890196505b505050505050611cca612d9e8286612c74565b64173539b7b760d91b815260050190565b6001600160a01b0385811682528416602082015260408101839052608060608201819052600090611d7890830184612c48565b60018060a01b038816815286602082015285604082015263ffffffff60e01b851660608201528360808201528260a082015260e060c08201526000612e2a60e0830184612c48565b9998505050505050505050565b60018060a01b0384168152826020820152606060408201526000611cca6060830184612c48565b6001600160a01b038416815260ff83166020808301919091526060604083018190528351908301819052600091848101916080850190845b81811015612eb257845183529383019391830191600101612e96565b509098975050505050505050565b6020815260006111476020830184612c48565b60208082526032908201527f4552433732313a207472616e7366657220746f206e6f6e20455243373231526560408201527131b2b4bb32b91034b6b83632b6b2b73a32b960711b606082015260800190565b60208082526010908201526f14185d5cd8589b194e881c185d5cd95960821b604082015260600190565b60208082526031908201527f4552433732313a207472616e736665722063616c6c6572206973206e6f74206f6040820152701ddb995c881b9bdc88185c1c1c9bdd9959607a1b606082015260800190565b60008219821115612fb357612fb36131c0565b500190565b600082612fc757612fc76131d6565b500490565b600181815b80851115613007578160001904821115612fed57612fed6131c0565b80851615612ffa57918102915b93841c9390800290612fd1565b509250929050565b60006111478383600082613025575060016104ea565b81613032575060006104ea565b816001811461304857600281146130525761306e565b60019150506104ea565b60ff841115613063576130636131c0565b50506001821b6104ea565b5060208310610133831016604e8410600b8410161715613091575081810a6104ea565b61309b8383612fcc565b80600019048211156130af576130af6131c0565b029392505050565b60008160001904831182151516156130d1576130d16131c0565b500290565b6000828210156130e8576130e86131c0565b500390565b600060ff821660ff841680821015613107576131076131c0565b90039392505050565b60005b8381101561312b578181015183820152602001613113565b83811115610e6a5750506000910152565b600181811c9082168061315057607f821691505b60208210811415611df157634e487b7160e01b600052602260045260246000fd5b6000600019821415613185576131856131c0565b5060010190565b600060ff821660ff8114156131a3576131a36131c0565b60010192915050565b6000826131bb576131bb6131d6565b500690565b634e487b7160e01b600052601160045260246000fd5b634e487b7160e01b600052601260045260246000fd5b634e487b7160e01b600052604160045260246000fd5b8015158114610fcf57600080fd5b6001600160e01b031981168114610fcf57600080fdfea26469706673582212203f40215f2c99eafec399c9c1d2ffeed25c3bde55741891da65a6698ad785f9a764736f6c63430008040033",
  "linkReferences": {},
  "deployedLinkReferences": {}
}